:020000040800F2
:1000000000000524252100080D1C00080F1C000815
:10001000111C0008131C0008151C0008000000003B
:1000200000000000000000000000000081A70008A0
:10003000171C00080000000021A8000885A800087F
:100040007521000875210008752100087521000838
:100050007521000875210008752100087521000828
:10006000752100087521000875210008191C000879
:10007000291C000875210008752100087521000859
:10008000752100087521000875210008391C000839
:10009000491C0008591C0008691C0008752100084B
:1000A00075210008752100087521000875210008D8
:1000B00075210008752100087521000875210008C8
:1000C00075210008752100087521000875210008B8
:1000D00075210008791C00087521000875210008A9
:1000E0007521000875210008000000007521000836
:1000F0007521000875210008752100087521000888
:100100007521000875210008752100087521000877
:1001100075210008891C0008752100087521000858
:100120007521000875210008752100087521000857
:10013000752100087521000875210008991C000828
:1001400000000000000000000000000000000000AF
:100150007521000875210008752100087521000827
:100160007521000875210008752100087521000817
:1001700075210008B11C000875210008000000006E
:1001800075210008752100087521000875210008F7
:1001900075210008752100087521000875210008E7
:1001A0007521000875210008752100080000000075
:1001B00075210008752100087521000875210008C7
:1001C00075210008752100080000000000000000F3
:1001D0000000000000000000752100080000000081
:1001E000000000000000000000000000000000000F
:1001F00000000000000000007521000875210008C3
:100200007521000875210008000000007521000814
:100210007521000875210008752100087521000866
:100220007521000800000000752100080000000092
:1002300075210008752100080000000075210008E4
:100240007521000875210008752100087521000836
:100250007521000875210008752100087521000826
:100260007521000875210008752100087521000816
:1002700075210008752100087521000800000000A4
:1002800075210008752100087521000875210008F6
:100290000000000075210008752100080000000022
:1002A0000000000075210008752100087521000874
:1002B000752100087521000875210008C11C00087F
:0C02C000D11C0008E11C0008752100089A
:1003000081F0004102E000BF83F0004330B54FEAC6
:1003100041044FEA430594EA050F08BF90EA020F33
:100320001FBF54EA000C55EA020C7FEA645C7FEAC6
:10033000655C00F0E2804FEA5454D4EB5555B8BFE9
:100340006D420CDD2C4480EA020281EA030382EA5A
:10035000000083EA010180EA020281EA0303362DEC
:1003600088BF30BD11F0004F4FEA01314FF4801CBF
:100370004CEA113102D0404261EB410113F0004FD1
:100380004FEA03334CEA133302D0524263EB430388
:1003900094EA050F00F0A780A4F10104D5F1200E26
:1003A0000DDB02FA0EFC22FA05F2801841F1000181
:1003B00003FA0EF2801843FA05F359410EE0A5F155
:1003C00020050EF1200E012A03FA0EFC28BF4CF086
:1003D000020C43FA05F3C01851EBE37101F000453C
:1003E00007D54FF0000EDCF1000C7EEB00006EEB49
:1003F0000101B1F5801F1BD3B1F5001F0CD34908D3
:100400005FEA30004FEA3C0C04F101044FEA445229
:1004100012F5800F80F09A80BCF1004F08BF5FEAB0
:10042000500C50F1000041EB045141EA050130BD90
:100430005FEA4C0C404141EB0101013C28BFB1F5A2
:10044000801FE9D291F0000F04BF01460020B1FAED
:1004500081F308BF2033A3F10B03B3F120020CDAC0
:100460000C3208DD02F1140CC2F10C0201FA0CF09E
:1004700021FA02F10CE002F11402D8BFC2F1200C03
:1004800001FA02F120FA0CFCDCBF41EA0C019040B9
:10049000E41AA2BF01EB0451294330BD6FEA040402
:1004A0001F3C1CDA0C340EDC04F11404C4F12002ED
:1004B00020FA04F001FA02F340EA030021FA04F3FF
:1004C00045EA030130BDC4F10C04C4F1200220FA56
:1004D00002F001FA04F340EA0300294630BD21FA94
:1004E00004F0294630BD94F0000F83F4801306BF5A
:1004F00081F480110134013D4EE77FEA645C18BF4E
:100500007FEA655C29D094EA050F08BF90EA020FE4
:1005100005D054EA000C04BF1946104630BD91EADC
:10052000030F1EBF0021002030BD5FEA545C05D1DF
:100530004000494128BF41F0004130BD14F580041E
:100540003CBF01F5801130BD01F0004545F0FE4192
:1005500041F470014FF0000030BD7FEA645C1ABFC7
:10056000194610467FEA655C1CBF0B46024650EAFE
:10057000013406BF52EA033591EA030F41F400212A
:1005800030BD00BF90F0000F04BF0021704730B5B0
:100590004FF4806404F132044FF000054FF0000185
:1005A00050E700BF90F0000F04BF0021704730B546
:1005B0004FF4806404F1320410F0004548BF40421B
:1005C0004FF000013EE700BF42004FEAE2014FEA70
:1005D00031014FEA02701FBF12F07F4393F07F4F4B
:1005E00081F06051704732F07F4208BF704793F04E
:1005F0007F4F04BF41F40021704730B54FF4607461
:1006000001F0004521F000411CE700BF50EA010263
:1006100008BF704730B54FF000050AE050EA01020C
:1006200008BF704730B511F0004502D5404261EB7C
:1006300041014FF4806404F132045FEA915C3FF4BD
:10064000D8AE4FF003025FEADC0C18BF03325FEA5A
:10065000DC0C18BF033202EBDC02C2F1200300FA0B
:1006600003FC20FA02F001FA03FE40EA0E0021FA30
:1006700002F11444BDE600BF70B54FF0FF0C4CF41E
:10068000E06C1CEA11541DBF1CEA135594EA0C0FD0
:1006900095EA0C0F00F0DEF82C4481EA030621EA0B
:1006A0004C5123EA4C5350EA013518BF52EA033546
:1006B00041F4801143F4801338D0A0FB02CE4FF0F8
:1006C0000005E1FB02E506F00042E0FB03E54FF028
:1006D0000006E1FB03569CF0000F18BF4EF0010E20
:1006E000A4F1FF04B6F5007F64F5407404D25FEA1C
:1006F0004E0E6D4146EB060642EAC62141EA5551CF
:100700004FEAC52040EA5E504FEACE2EB4F1FD0C10
:1007100088BFBCF5E06F1ED8BEF1004F08BF5FEA8E
:10072000500E50F1000041EB045170BD06F0004640
:1007300046EA010140EA020081EA0301B4EB5C04ED
:10074000C2BFD4EB0C0541EA045170BD41F48011E5
:100750004FF0000E013C00F3AB8014F1360FDEBF0A
:10076000002001F0004170BDC4F10004203C35DAE6
:100770000C341BDC04F11404C4F1200500FA05F369
:1007800020FA04F001FA05F240EA020001F000420A
:1007900021F0004110EBD37021FA04F642EB060180
:1007A0005EEA430E08BF20EAD37070BDC4F10C04AA
:1007B000C4F1200500FA04F320FA05F001FA04F26E
:1007C00040EA020001F0004110EBD37041F100015A
:1007D0005EEA430E08BF20EAD37070BDC4F1200565
:1007E00000FA05F24EEA020E20FA04F301FA05F2CD
:1007F00043EA020321FA04F001F0004121FA04F275
:1008000020EA020000EBD3705EEA430E08BF20EA44
:10081000D37070BD94F0000F0FD101F0004640007E
:1008200041EB010111F4801F08BF013CF7D041EA00
:10083000060195F0000F18BF704703F00046520004
:1008400043EB030313F4801F08BF013DF7D043EAD5
:100850000603704794EA0C0F0CEA135518BF95EA8B
:100860000C0F0CD050EA410618BF52EA4306D1D112
:1008700081EA030101F000414FF0000070BD50EA31
:10088000410606BF1046194652EA430619D094EABB
:100890000C0F02D150EA013613D195EA0C0F05D1A5
:1008A00052EA03361CBF104619460AD181EA0301F9
:1008B00001F0004141F0FE4141F470014FF00000B1
:1008C00070BD41F0FE4141F4780170BD70B54FF04C
:1008D000FF0C4CF4E06C1CEA11541DBF1CEA1355CC
:1008E00094EA0C0F95EA0C0F00F0A7F8A4EB0504AE
:1008F00081EA030E52EA03354FEA013100F08880A5
:100900004FEA03334FF0805545EA131343EA12636D
:100910004FEA022245EA111545EA10654FEA002622
:100920000EF000419D4208BF964244F1FD0404F5DB
:10093000407402D25B084FEA3202B61A65EB030537
:100940005B084FEA32024FF480104FF4002CB6EBF4
:10095000020E75EB030E22BFB61A754640EA0C0074
:100960005B084FEA3202B6EB020E75EB030E22BFB4
:10097000B61A754640EA5C005B084FEA3202B6EBF5
:10098000020E75EB030E22BFB61A754640EA9C00B4
:100990005B084FEA3202B6EB020E75EB030E22BF84
:1009A000B61A754640EADC0055EA060E18D04FEA42
:1009B000051545EA16754FEA06164FEAC30343EAE2
:1009C00052734FEAC2025FEA1C1CC0D111F4801FAF
:1009D0000BD141EA00014FF000004FF0004CB6E7A8
:1009E00011F4801F04BF01430020B4F1FD0C88BF47
:1009F000BCF5E06F3FF6AFAEB5EB030C04BFB6EB52
:100A0000020C5FEA500C50F1000041EB045170BD44
:100A10000EF0004E4EEA113114EB5C04C2BFD4EB71
:100A20000C0541EA045170BD41F480114FF0000EF5
:100A3000013C90E645EA060E8DE60CEA135594EA71
:100A40000C0F08BF95EA0C0F3FF43BAF94EA0C0F74
:100A50000AD150EA01347FF434AF95EA0C0F7FF4E9
:100A600025AF104619462CE795EA0C0F06D152EA3D
:100A700003353FF4FDAE1046194622E750EA410621
:100A800018BF52EA43067FF4C5AE50EA41047FF432
:100A90000DAF52EA43057FF4EBAE12E74FF0FF3C97
:100AA00006E000BF4FF0010C02E000BF4FF0010C68
:100AB0004DF804CD4FEA410C7FEA6C5C4FEA430CE1
:100AC00018BF7FEA6C5C1BD001B050EA410C0CBF30
:100AD00052EA430C91EA030F02BF90EA020F002092
:100AE000704710F1000F91EA030F58BF994208BFF9
:100AF00090422CBFD8176FEAE37040F001007047B6
:100B00004FEA410C7FEA6C5C02D150EA013C07D10C
:100B10004FEA430C7FEA6C5CD6D152EA033CD3D057
:100B20005DF8040B704700BF8446104662468C4651
:100B30001946634600E000BF01B5FFF7B7FF002884
:100B400048BF10F1000F01BD4DF808EDFFF7F4FFAD
:100B50000CBF012000205DF808FB00BF4DF808ED38
:100B6000FFF7EAFF34BF012000205DF808FB00BF5B
:100B70004DF808EDFFF7E0FF94BF012000205DF87D
:100B800008FB00BF4DF808EDFFF7CEFF94BF012032
:100B900000205DF808FB00BF4DF808EDFFF7C4FF2B
:100BA00034BF012000205DF808FB00BF4FEA41027E
:100BB000B2F1E04324BFB3F5001CDCF1FE5C0DD9BB
:100BC00001F0004C4FEAC0024CEA5070B2F1004F05
:100BD00040EB830008BF20F00100704711F0804F08
:100BE00021D113F13872BCBF01F00040704741F4CD
:100BF00080114FEA5252C2F11802C2F1200C10FAD1
:100C00000CF320FA02F018BF40F001004FEAC123B4
:100C10004FEAD32303FA0CFC40EA0C0023FA02F358
:100C20004FEA4303CCE77FEA625307D150EA01332E
:100C30001EBF4FF0FE4040F44000704701F00040FE
:100C400040F0FE4040F40000704700BF53B94AB97D
:100C5000002908BF00281CBF4FF0FF314FF0FF30C4
:100C600000F00CB8ADF1080C6DE904CE0EF03AFEC0
:100C7000DDF804E0DDE9022304B07047704700BFEF
:100C8000844641EA000313F003036DD1403A41D397
:100C900051F8043B40F8043B51F8043B40F8043B56
:100CA00051F8043B40F8043B51F8043B40F8043B46
:100CB00051F8043B40F8043B51F8043B40F8043B36
:100CC00051F8043B40F8043B51F8043B40F8043B26
:100CD00051F8043B40F8043B51F8043B40F8043B16
:100CE00051F8043B40F8043B51F8043B40F8043B06
:100CF00051F8043B40F8043B51F8043B40F8043BF6
:100D000051F8043B40F8043B51F8043B40F8043BE5
:100D1000403ABDD2303211D351F8043B40F8043B85
:100D200051F8043B40F8043B51F8043B40F8043BC5
:100D300051F8043B40F8043B103AEDD20C3205D395
:100D400051F8043B40F8043B043AF9D2043208D08D
:100D5000D2071CBF11F8013B00F8013B01D30B88FF
:100D600003806046704700BF082A13D38B078DD0DD
:100D700010F003038AD0C3F10403D21ADB071CBFAF
:100D800011F8013B00F8013B80D331F8023B20F819
:100D9000023B7BE7043AD9D3013A11F8013B00F852
:100DA000013BF9D20B7803704B7843708B788370DA
:100DB00060467047000000000000000000000000D6
:100DC00001F0FF01102A2BDB10F0070F08D010F8FC
:100DD000013B013A8B422DD010F0070F42B3F6D100
:100DE000F0B441EA012141EA014122F007047FF019
:100DF00000070023F0E80256083C85EA010586EA70
:100E0000010685FA47F5A3FA87F586FA47F6A5FAAB
:100E100087F68EB9EED1F0BC01F0FF0102F00702B7
:100E200032B110F8013B013A83EA010313B1F8D162
:100E30000020704701387047002D06BF3546033843
:100E4000073815F0010F07D1013015F4807F02BF7C
:100E5000013015F4C03F0130F0BC0138704700BFCD
:100E60000000000000000000000000000000000082
:100E70000000000000000000000000000000000072
:100E800030B490F800F020F007016FF0000C10F083
:100E9000070491F820F040F048804FF000046FF014
:100EA0000700D1E9002391F840F000F1080082FA30
:100EB0004CF2A4FA8CF283FA4CF3A2FA8CF34BBBFB
:100EC000D1E9022382FA4CF200F10800A4FA8CF274
:100ED00083FA4CF3A2FA8CF3E3B9D1E9042382FA42
:100EE0004CF200F10800A4FA8CF283FA4CF3A2FA57
:100EF0008CF37BB9D1E9062301F1200182FA4CF28F
:100F000000F10800A4FA8CF283FA4CF3A2FA8CF3F5
:100F1000002BC6D0002A04BF04301A4612BAB2FA17
:100F200082F200EBD20030BC7047D1E9002304F01C
:100F30000305C4F100004FEAC50514F0040F91F851
:100F400040F00CFA05F562EA05021CBF63EA0503EE
:100F500062464FF00004AAE74FEA410C7FEA6C5C5E
:100F600002D150EA013C0AD14FEA430C7FEA6C5CA3
:100F700002D152EA033C02D14FF0000070474FF01B
:100F8000010070474FEA410212F5001215D211D547
:100F90006FF47873B3EB625212D94FEAC12343F076
:100FA000004343EA505311F0004F23FA02F018BFF8
:100FB000404270474FF00000704750EA013005D1C1
:100FC00011F0004008BF6FF0004070474FF0000084
:100FD000704700BF0348044B834202D0034B03B168
:100FE00018477047700900247009002400000000B1
:100FF0000548064B1B1AD90F01EBA301491002D07B
:10100000034B03B11847704770090024700900248E
:101010000000000010B5064C237843B9FFF7DAFF53
:10102000044B13B10448AFF300800123237010BDBB
:101030007009002400000000B45B010808B5054BEE
:101040001BB105490548AFF30080BDE80840FFF734
:10105000CFBF00BF0000000074090024B45B01088A
:1010600000B583B00F4BD3F8D82042F00102C3F88B
:10107000D820D3F8D83003F001030193019B00225C
:1010800005210B2001F030F90B2001F03DF9002281
:1010900005210C2001F028F90C2001F035F903B0EE
:1010A0005DF804FB0044025810B51748174B036065
:1010B0004FF4407383600021C160012303744174C5
:1010C00083744361142282613B24C46102624362DF
:1010D000022484620D23C362046341630423836397
:1010E000C3630A22026443648264C3640465436583
:1010F0008265C26502664166836602F0DBFD00B967
:1011000010BD00F037FCFBE7D00A002400A000402F
:1011100010B51748174B03604FF4407383600021EC
:10112000C16001230374417483744361142282619A
:101130003B24C46102624362022484620D23C362C1
:101140000463416304238363C3630A220264436428
:101150008264C364046543658265C2650266416654
:10116000836602F0A7FD00B910BD00F003FCFBE7A9
:10117000300A002400A4004010B51748174B036044
:101180004FF4407383600021C160012303744174F4
:1011900083744361142282613B24C461026243620E
:1011A000022484620D23C3620463416304238363C6
:1011B000C3630A22026443648264C36404654365B2
:1011C0008265C26502664166836602F073FD00B9FE
:1011D00010BD00F0CFFBFBE79009002400D40040D5
:1011E00030B5BBB004460021359136913791389126
:1011F0003991B82206A80FF0E5F82368844A934293
:1012000008D0844A93425CD0834A934200F0B08075
:101210003BB030BD4FF400420023CDE906234FF030
:101220008053219306A805F015FA002838D17B4A8F
:10123000136801331360012B35D0794BD3F8E020CC
:1012400042F00802C3F8E020D3F8E03003F00803CE
:101250000193019B03233593022336930024379493
:1012600038940923399335A96E4803F09BFA224636
:101270000521132001F038F8132001F045F822462B
:101280000521152001F030F8152001F03DF8224627
:1012900005213F2001F028F83F2001F035F8B7E79D
:1012A00000F068FBC3E75E4BD3F8EC2042F4807299
:1012B000C3F8EC20D3F8EC3003F480730093009B68
:1012C000BBE74FF400420023CDE906234FF08053E3
:1012D000219306A805F0BEF9002838D14F4A1368BB
:1012E00001331360012B35D04D4BD3F8E02042F091
:1012F0000202C3F8E020D3F8E03003F002030393C6
:10130000039B60233593022336930024379438944B
:101310000923399335A9444803F044FA22460521AC
:10132000142000F0E1FF142000F0EEFF224605211A
:10133000162000F0D9FF162000F0E6FF2246052116
:101340003F2000F0D1FF3F2000F0DEFF60E700F01B
:1013500011FBC3E7324BD3F8EC2042F48072C3F8A0
:10136000EC20D3F8EC3003F480730293029BBBE7CC
:101370004FF400420023CDE906234FF08053219320
:1013800006A805F067F988BB244A13680133136087
:10139000012B2ED0224BD3F8E02042F00802C3F8F4
:1013A000E020D3F8E03003F008030593059B4FF4E9
:1013B00040533593022336930024379438940525FF
:1013C000399535A9174803F0EDF9224629469F20A3
:1013D00000F08AFF9F2000F097FF22462946A020B8
:1013E00000F082FFA02000F08FFF11E700F0C2FAAA
:1013F000CAE70B4BD3F8EC2042F48072C3F8EC2020
:10140000D3F8EC3003F480730493049BC2E700BF6D
:1014100000A0004000A4004000D400408C0900243B
:1014200000440258000C02580004025808B5036832
:10143000274A934206D0274A93421AD0264A93421B
:101440002ED008BD254A1368013B136033B9244AE6
:10145000D2F8EC3023F48073C2F8EC300321214839
:1014600003F0AAFA132000F053FF152000F050FFFC
:10147000E7E71A4A1368013B136033B9184AD2F8F8
:10148000EC3023F48073C2F8EC306021164803F08E
:1014900093FA142000F03CFF162000F039FFD0E74B
:1014A0000E4A1368013B136033B90D4AD2F8EC3091
:1014B00023F48073C2F8EC304FF44051094803F034
:1014C0007BFA9F2000F024FFA02000F021FFB8E766
:1014D00000A0004000A4004000D400408C0900247B
:1014E00000440258000C02580004025808B50BF0E2
:1014F0009DF8012009F09DF8FBE708B5012009F0EF
:1015000098F8FBE708B5012009F093F8FBE7000025
:10151000034B0360034B0B6080231360704700BFD5
:10152000CC110024CC0F0024034B0360034B0B6051
:101530004FF4807313607047700F0024700B002409
:1015400010B5B2B03F4C0DF1AC0CA646BEE80F0092
:10155000ACE80F009EE807008CE8070000212BA8EC
:1015600009F034F8384B18600DF1900C04F11C0EA2
:10157000BEE80F00ACE80F009EE807008CE807000B
:10158000002124A809F022F8304B18600DF1740CEA
:1015900004F1380EBEE80F00ACE80F009EE807002B
:1015A0008CE8070000211DA809F010F8284B1860EE
:1015B0000DF1580C04F1540EBEE80F00ACE80F001A
:1015C0009EE807008CE80700002116A808F0FEFF3F
:1015D000204B18600DF13C0C04F1700EBEE80F00BA
:1015E000ACE80F009EE807008CE8070000210FA878
:1015F00008F0ECFF184B18600DF1200C04F18C0E74
:10160000BEE80F00ACE80F009EE807008CE807007A
:10161000002108A808F0DAFF104B18600DF1040E45
:1016200004F1A80CBCE80F00AEE80F009CE807002E
:101630008EE80700002101A808F0C8FF084B1860D9
:1016400032B010BDD05B0108401200243C120024CF
:101650003812002434120024301200242C120024EA
:10166000281200242DE9F04F8DB00024079408942F
:1016700009940A940B94B34BD3F8E02042F004028F
:10168000C3F8E020D3F8E02002F004020192019AAE
:10169000D3F8E02042F08002C3F8E020D3F8E02045
:1016A00002F080020292029AD3F8E02042F0010296
:1016B000C3F8E020D3F8E02002F001020392039A7D
:1016C000D3F8E02042F00202C3F8E020D3F8E02093
:1016D00002F002020492049AD3F8E02042F01002D1
:1016E000C3F8E020D3F8E02002F010020592059A3A
:1016F000D3F8E02042F00802C3F8E020D3F8E0304D
:1017000003F008030693069BDFF840A201224EF285
:101710002901504603F0F2F9DFF834922246052100
:10172000484603F0EBF922464FF42241864803F085
:10173000E5F9DFF8208222464FF44061404603F08D
:10174000DDF901224FF48051404603F0D7F9DFF86C
:1017500008B222464FF48061584603F0CFF94FF4A7
:10176000604307930127089709940A9407A95046F4
:1017700003F018F8292307930897099403260A967B
:1017800007A9504603F00EF805230793089709941C
:101790000A9407A9484603F005F80225079508951D
:1017A00009940A9609230B9307A9484602F0FAFF09
:1017B00008230793089509940A9606230B9307A913
:1017C000484602F0EFFF202307930896099407A9E3
:1017D000484602F0E7FF102307930896099407A9EB
:1017E000504602F0DFFF0797089509940A964FF0DC
:1017F000040ACDF82CA007A9404602F0D3FF0795B4
:10180000089509940A940B9507A9404602F0CAFF6F
:10181000CDF81CA0089509940A9609230B9307A9F3
:10182000404602F0BFFF4FF4224307930897099404
:101830000A9407A9444802F0B5FF4FF4A053079358
:101840004FF488130893099407A93F4802F0AAFFB0
:101850004FF400630793089509940A960B230B93A2
:1018600007A9394802F09EFF4FF440630793089799
:1018700009940A9407A9404602F094FF4FF480535C
:101880000793089709970A9607A9404602F08AFF2E
:101890004FF400530793089509940A9605230B9378
:1018A00007A9404602F07EFF4FF4004ACDF81CA085
:1018B000089509940A940B9507A9404602F072FF17
:1018C0004FF480630793089709940A9407A9584630
:1018D00002F068FF4FF400630793089509940A9695
:1018E00009230B9307A9584602F05CFF4FF480735D
:1018F0000793089509940A940B9407A9484602F0A7
:1019000051FFCDF81CA00894099407A9484602F09D
:1019100049FF70230793089509940A9407230B93B2
:1019200007A9584602F03EFF8023079308950994C3
:101930000A9605230B9307A9584602F033FF0DB012
:10194000BDE8F08F00440258001002580008025809
:101950000000025800040258000C025808B5026842
:10196000034B9A4200D008BD00F034FCFBE700BFF7
:1019700000E0004072B6FEE700B59DB04C220021A9
:1019800009A80EF01FFD2022002101A80EF01AFD6B
:10199000022003F02BFF00230093264B9A6922F4C8
:1019A00040429A619B6903F440430093009B214BA2
:1019B0009B6913F4005FFAD0232309934FF480331B
:1019C0000A9301220C9240230D930F92022312934B
:1019D00013931493282115911692062217921893A7
:1019E0000C23199300231A931B9309A803F030FFCB
:1019F000D8B93F23019303210291002303930823C5
:101A000004934023059306934FF480620792089352
:101A100001A804F05DFB50B94FF480220021084674
:101A200004F008FA1DB05DF804FBFFF7A3FFFFF711
:101A3000A1FF00BF0048025808B500F09DFBFFF76A
:101A40009BFFFFF70FFEFFF70BFBFFF72DFBFFF7E9
:101A50005FFBFFF791FB00F03BFA00F0FDF90AF0A5
:101A6000E5FD03220021012009F062FA2D4B1860E8
:101A7000002851D003220021012009F059FA2A4BF5
:101A8000186000284AD003220021012009F050FAF2
:101A9000264B1860002843D0012009F03DFB244B61
:101AA0001860244C00220121204603F027F8002270
:101AB0000421204603F022F804F5805400224FF45C
:101AC0000071204603F01AF800224FF4005120461E
:101AD00003F014F84FF4F0700BF00CF801224FF4FF
:101AE0008041154803F00AF80422002113480BF046
:101AF000E7FD0422002112480BF0E2FD0422002140
:101B000010480BF0DDFD0BF0B7FD0BF0E5FBFFF728
:101B100017FD08F056FDFEE7FFF72CFFFFF72AFF41
:101B2000FFF728FF501200244C1200244812002412
:101B3000441200240000025800080258D00A002471
:101B4000300A00249009002400B583B00A4BD3F872
:101B5000F42042F00202C3F8F420D3F8F43003F08A
:101B600002030193019B00220F216FF0010000F09E
:101B7000BBFB03B05DF804FB004402580F2801D9F9
:101B80000120704710B58AB0044600220146A1200A
:101B900000F0AAFBA12000F0B7FB174B1C60174B0D
:101BA000D3F8EC2042F08072C3F8EC20D3F8EC308C
:101BB00003F080730093009B01A902A804F018FCB5
:101BC00004F004FC43000E4AA2FB03239B0C013BE0
:101BD0000C480D4A026040F2E732C26043600023C5
:101BE0000361836005F002FE10B101200AB010BD50
:101BF000044805F059FCF9E70C00002400440258A1
:101C000083DE1B435412002400E00040FEE7FEE7A1
:101C1000FEE7FEE7FEE7704708B5024801F07EFBED
:101C200008BD00BFA412002408B5024801F076FBED
:101C300008BD00BF1C13002408B5024802F022FCB6
:101C400008BD00BFD00A002408B5024802F01AFC03
:101C500008BD00BF300A002408B5024802F012FC9B
:101C600008BD00BFD00A002408B5024802F00AFCF3
:101C700008BD00BF300A002408B5024805F078FE10
:101C800008BD00BF9413002408B5024805F070FE9B
:101C900008BD00BF2814002408B5034802F0F2FB79
:101CA000024802F0EFFB08BDD00A0024300A0024ED
:101CB00008B5024803F059FA08BD00BF806A002445
:101CC00008B5024802F0DEFB08BD00BF9009002401
:101CD00008B5024802F0D6FB08BD00BF90090024F9
:101CE00008B5024805F034FC08BD00BF54120024BA
:101CF0000120704708B50EF01DFC162303604FF05D
:101D0000FF3008BD08B54FF0FF31FFF7F3FFFEE7E6
:101D100070B50C461646002506E0AFF3008021465C
:101D200001F8010B01350C46B542F6DB304670BDBB
:101D300070B50C461646002504E014F8010BAFF30D
:101D400000800135B542F8DB304670BD4FF0FF3002
:101D500070474FF400534B600020704701207047DC
:101D60000020704710B503460C4A0D490D48006825
:101D700040B10C4800680344521A934206D8094AFD
:101D8000136010BD0748084C0460F2E70EF0D2FB68
:101D90000C2303604FF0FF30F3E700BF0000052481
:101DA00000080000A012002490800024224AD2F8EB
:101DB000883043F47003C2F88830204B1B6803F06E
:101DC0000F03062B06D81D4A136823F00F0343F0B8
:101DD000070313601A4B1A6842F001021A600022CE
:101DE0001A611968174A0A401A60144B1B6813F0ED
:101DF000080F06D0114A136823F00F0343F00703BE
:101E000013600F4B00229A61DA611A620E499962DF
:101E10000E49D9620E4919635A639963DA631964EA
:101E20005A64196821F4802119601A66094B43F23B
:101E3000D2021A60704700BF00ED00E0002000529F
:101E4000004402587FEDF6EA000202020000FF01A2
:101E5000800201010040005208B51A481A4B036085
:101E60001A4B43604FF4805383604FF40053C360B8
:101E70004FF4806303610C23436100238361C361DA
:101E800003624362836206F032FC70B900210D48A0
:101E900006F000FD60B900210A4806F020FD50B9A7
:101EA000084806F0D8FC48B908BDFFF763FDEDE728
:101EB000FFF760FDEFE7FFF75DFDF1E7FFF75AFD84
:101EC000F2E700BF2814002400500040A086010063
:101ED00008B51748174B03604FF4E1334360002304
:101EE0008360C36003610C2242618361C36103624A
:101EF0004362836206F0FBFB70B900210C4806F0D8
:101F0000C9FC60B900210A4806F0E9FC50B908484C
:101F100006F0A1FC48B908BDFFF72CFDEDE7FFF77F
:101F200029FDEFE7FFF726FDF1E7FFF723FDF2E7D5
:101F300094130024001001402DE9F041BAB004468A
:101F4000002135913691379138913991B82206A800
:101F50000EF038FA2368694A934205D0684A9342E2
:101F600073D03AB0BDE8F08102220023CDE9062308
:101F700006A804F06FFB002861D1624BD3F8E8207B
:101F800042F48012C3F8E820D3F8E82002F480126B
:101F90000192019AD3F8E02042F00402C3F8E02055
:101FA000D3F8E02002F004020292029AD3F8E02073
:101FB00042F00802C3F8E020D3F8E03003F0080351
:101FC0000393039B4FF4805335934FF00208CDF8F1
:101FD000D88000253795032738970826399635A9E4
:101FE000494802F0DFFB04233593CDF8D8803795BC
:101FF0003897399635A9454802F0D4FB4448454BFB
:102000000360412343608560C5604FF480630361D2
:1020100045618561C5614FF440330362456200F05C
:102020008BFB78B93A4BC4F880309C6300220521C1
:10203000352000F059F9352000F066F991E7FFF7F7
:1020400099FC9AE7FFF796FCECE701220023CDE923
:10205000062306A804F0FEFA002848D1294BD3F83D
:10206000F02042F01002C3F8F020D3F8F02002F084
:1020700010020492049AD3F8E02042F00102C3F85F
:10208000E020D3F8E03003F001030593059B4FF403
:10209000C063359302233693002537950323389385
:1020A0000723399335A91C4802F07CFB1B481C4BC5
:1020B0000360292343608560C5604FF4806303613A
:1020C00045618561C5614FF440330362456200F0AC
:1020D00033FB78B9114BC4F880309C630022052192
:1020E000252000F001F9252000F00EF939E7FFF76F
:1020F00041FCB3E7FFF73EFCECE700BF00500040B7
:10210000001001400044025800080258000C025818
:102110001C1300242800024000000258A4120024CE
:1021200010000240DFF834D0FFF740FE0C480D49A4
:102130000D4A002302E0D458C4500433C4188C4222
:10214000F9D30A4A0A4C002301E013600432A24288
:10215000FBD30EF0F5F9FFF76FFC70470000052484
:102160000000002470090024286A01087009002476
:1021700090800024FEE7000010B5032000F0A2F8D4
:1021800003F0AAFE0F498B69C3F303230E4AD35C05
:1021900003F01F03D8408B6903F00F03D35C03F0F7
:1021A0001F0320FA03F3094A1360094B18600F203C
:1021B000FFF7E4FC10B10124204610BD0446FFF7F0
:1021C000C3FCF9E700440258705F010800000024D6
:1021D00004000024034B1B78034A11680B4413606E
:1021E000704700BF08000024BC140024014B18688D
:1021F000704700BFBC14002438B50446FFF7F6FF53
:102200000546B4F1FF3F02D0044B1B781C44FFF796
:10221000EDFF401BA042FAD338BD00BF08000024E8
:10222000002807DB00F01F02400901239340024A07
:1022300042F82030704700BF00E100E000280CDBCE
:1022400000F01F024009012393402030034A42F866
:102250002030BFF34F8FBFF36F8F704700E100E076
:10226000002804DB0901C9B2044B1954704700F07F
:102270000F000901C9B2024B1954704700E400E095
:1022800014ED00E000B500F00700C0F1070CBCF150
:10229000040F28BF4FF0040C031D062B0FD9C31EDB
:1022A0004FF0FF3E0EFA0CF021EA000199400EFAC1
:1022B00003FE22EA0E0241EA02005DF804FB00235D
:1022C000EEE700000649CB6823F4E0631B041B0C17
:1022D000000200F4E0600343024A1A43CA607047F8
:1022E00000ED00E00000FA0510B50446054BD86883
:1022F000C0F30220FFF7C6FF01462046FFF7B0FFFC
:1023000010BD00BF00ED00E008B5FFF789FF08BD74
:1023100008B5FFF793FF08BDF0B4876D0468664EFB
:10232000664DAC4218BFB44242D01835AC423FD0E3
:102330001835AC423CD01835AC4239D01835AC42D7
:1023400036D01835AC4233D01835AC4230D005F514
:102350005675AC422CD01835AC4229D01835AC4259
:1023600026D01835AC4223D01835AC4220D01835D1
:10237000AC421DD01835AC421AD01835AC4217D03B
:102380004F4DAC4214D01435AC4211D01435AC4290
:102390000ED01435AC420BD01435AC4208D01435F5
:1023A000AC4205D01435AC4202D01435AC4207D152
:1023B000446E856E6560C46E14B1046F456F6560D0
:1023C00004683D4E3D4DAC4218BFB44252D0183562
:1023D000AC424FD01835AC424CD01835AC4249D045
:1023E0001835AC4246D01835AC4243D01835AC4213
:1023F00040D005F55675AC423CD01835AC4239D0CA
:102400001835AC4236D01835AC4233D01835AC4212
:1024100030D01835AC422DD01835AC422AD0183502
:10242000AC4227D0264E274DAC4218BFB44211D043
:10243000254DAC420ED01435AC420BD01435AC4215
:1024400008D01435AC4205D01435AC4202D0143556
:10245000AC4224D1C46D04F01F050124AC407C6063
:10246000046863608368402B20D003689960036828
:10247000DA6014E0C46D04F01F0C3F2404FA0CF47D
:10248000BC6005682C6824F480242C6004686360B8
:102490008368402B05D0036899600368DA60F0BC5C
:1024A000704703689A600368D960F8E703689A6028
:1024B0000368D960F3E700BF100002402800024023
:1024C000085402581C5402583054025803682749D3
:1024D000274A934218BF8B422FD0183293422CD0F8
:1024E0001832934229D01832934226D018329342A0
:1024F00023D01832934220D0183293421DD002F5D7
:102500005672934219D01832934216D01832934221
:1025100013D01832934210D0183293420DD0183293
:1025200093420AD01832934207D01832934204D013
:1025300023F0FF038365806D704710B4D9B2103962
:102540000C4AA2FB0142C2F302120B4CA25CC26510
:102550005F2907D96FF3090304338365806D5DF844
:10256000044B70476FF309038365F7E710000240DF
:1025700028000240ABAAAAAA805F010883699BB920
:10258000836A012B0AD0022B02D00BB100207047C6
:10259000C36A13F0807F2AD100207047C36AB3F169
:1025A000C07F26D000207047B3F5005F0AD0836A51
:1025B000022B26D9032B26D1C36A13F0807F24D1A6
:1025C00000207047836A032B03D8DFE803F014046C
:1025D000140A00207047C36A13F0807F0DD10020D9
:1025E0007047C36AB3F1C07F09D000207047012053
:1025F000704701207047012070470120704701207B
:10260000704701207047002070470120704700008C
:1026100003682149214A934218BF8B4227D01432C4
:10262000934224D01432934221D0143293421ED0CC
:10263000143293421BD01432934218D01432934276
:1026400015D0DAB2103A1649A1FB02121209154947
:102650001944A8291ED9144B13449B000366134B3D
:10266000436602F01F020123934083667047DBB28A
:10267000083B0F4AA2FB03230E4A02EB13129200FF
:1026800002660D4A4266C3F30413012202FA03F301
:10269000836670470832DEE7085402581C5402581B
:1026A000ABAAAAAAF0FBFDBF00820010800802407E
:1026B000CDCCCCCC009600168058025801794A1E29
:1026C000072A2BD830B40368154D164CA34218BF07
:1026D000AB4218D01434A34215D01434A34212D004
:1026E0001434A3420FD01434A3420CD01434A342A8
:1026F00009D01434A34206D00B4B0B449B00C36695
:102700000A4B036705E00A4B0B449B00C366094B69
:10271000036701239340436730BC7047704700BF95
:10272000085402581C5402583F82001040090240CD
:102730003F9600164059025870B50446FFF756FD03
:10274000002C00F0B781054623685349534A934251
:1027500018BF8B420CBF0121002150D01832934288
:102760004DD0183293424AD01832934247D0183293
:10277000934244D01832934241D0183293423ED013
:1027800002F5567293423AD01832934237D018323B
:10279000934234D01832934231D0183293422ED023
:1027A000183293422BD01832934228D018329342D9
:1027B00025D03B493B4A934218BF8B4200F03281FF
:1027C000394A934200F02E811432934200F02A815C
:1027D0001432934200F026811432934200F0228199
:1027E0001432934200F01E811432934200F01A8199
:1027F00040236365032384F8353001204AE0022238
:1028000084F83520002284F8342079BB274A93428B
:102810002CD01832934229D01832934226D0183245
:10282000934223D01832934220D0183293421DD0C5
:1028300002F55672934219D01832934216D01832CC
:10284000934213D01832934210D0183293420DD0D5
:10285000183293420AD01832934207D0183293426A
:1028600004D01A6822F001021A6003E01A6822F00C
:1028700001021A6023681A6812F0010F18D0FFF7DE
:10288000B5FC431B052BF5D920236365032384F88E
:102890003530012070BD00BF10000240280002400A
:1028A000085402581C540258305402584000024048
:1028B0001A6881491140A268E06802432069024316
:1028C00060690243A0690243E0690243206A02434F
:1028D0000A43616A042900F090806168522900F27D
:1028E00096803F29C0F08E803F39744820FA01F16C
:1028F00011F0010F01D042F480121A602668756948
:1029000025F00705636A1D43042B08D1A36A1D4304
:10291000E36A23B12046FFF731FE00287CD17561C0
:102920002046FFF7D3FDE36D03F01F023F239340E2
:10293000836023686249634A934218BF8B4242D046
:10294000183293423FD0183293423CD0183293420F
:1029500039D01832934236D01832934233D01832DD
:10296000934230D002F5567293422CD018329342E3
:1029700029D01832934226D01832934223D01832ED
:10298000934220D0183293421DD0183293421AD06D
:102990001832934217D04C4A934214D014329342C7
:1029A00011D0143293420ED0143293420BD0143211
:1029B000934208D01432934205D01432934202D08D
:1029C0001432934213D12046FFF722FEA368802BD6
:1029D00063D0236E22791A60636EA26E5A606368B8
:1029E000013B072B5CD90023E36623676367002064
:1029F0006065012384F835304CE7E16A206B0143C0
:102A00000A436AE7293905293FF677AF73E7743936
:102A100003293FF672AF6EE740236365012084F817
:102A2000350037E7022284F83520002284F834206C
:102A300019686FF31011A268402A2CD0802A27D081
:102A40000022E06842EAD002206942EAD0026069CE
:102A500042EAD002A06942EAD002E06942EAD0022A
:102A6000206A42EA10120A431A602268174B134484
:102A7000174AA2FB03231B099B00E3652046FFF7CF
:102A800025FDE26D02F01F0101228A40426050E7FD
:102A90004FF48042D5E71022D3E70023636098E724
:102AA0002046FFF70BFEE36E00221A60236F626F71
:102AB0005A609CE70120EDE63F8010FE0F030F00F7
:102AC000100002402800024008540258F8ABFDA74D
:102AD000CDCCCCCC002800F03E8170B5044690F8F7
:102AE0003400012800F03981012084F8340094F882
:102AF0003500C0B2012807D04FF40063636500239E
:102B000084F83430012070BD022084F835000020A4
:102B100060652068924E934DA84218BFB0422FD0F6
:102B20001835A8422CD01835A84229D01835A8420B
:102B300026D01835A84223D01835A84220D0183501
:102B4000A8421DD005F55675A84219D01835A842DF
:102B500016D01835A84213D01835A84210D0183511
:102B6000A8420DD01835A8420AD01835A84207D07F
:102B70001835A84204D0056825F00105056003E07A
:102B8000056825F0010505602046FFF7C5FB2368B1
:102B90007349744A934218BF8B4238D0183293421B
:102BA00035D01832934232D0183293422FD0183297
:102BB00093422CD01832934229D01832934226D017
:102BC00002F55672934222D0183293421FD0183227
:102BD00093421CD01832934219D01832934216D027
:102BE0001832934213D01832934210D018329342C5
:102BF0000DD01A6822F00E0242F00A021A60236C0D
:102C000093B12268136843F0040313600CE01A6860
:102C100022F01E0242F016021A60236C23B12268D1
:102C2000136843F00803136023684D494D4A9342EB
:102C300018BF8B4242D0183293423FD01832934291
:102C40003CD01832934239D01832934236D01832E1
:102C5000934233D01832934230D002F556729342E9
:102C60002CD01832934229D01832934226D01832F1
:102C7000934223D01832934220D0183293421DD071
:102C8000183293421AD01832934217D0364A9342E0
:102C900014D01432934211D0143293420ED0143215
:102CA00093420BD01432934208D01432934205D091
:102CB0001432934202D0143293420ED1236E1A681A
:102CC00012F4803F03D01A6842F480721A60E36EF7
:102CD0001BB11A6842F480721A6023682049214AA5
:102CE000934218BF8B4230D0183293422DD0183205
:102CF00093422AD01832934227D01832934224D0DC
:102D00001832934221D0183293421ED002F55672E7
:102D100093421AD01832934217D01832934214D0EB
:102D20001832934211D0183293420ED01832934287
:102D30000BD01832934208D01832934205D01A684B
:102D400042F001021A600020DDE61A6842F001023A
:102D50001A600020D7E6012070470220D3E600BFAA
:102D600010000240280002400854025870B5044682
:102D7000FFF73CFA002C00F09181054694F83530BD
:102D8000DBB2022B06D080236365002384F8343045
:102D9000012070BD23688C498C4A934218BF8B4236
:102DA00030D0183293422DD0183293422AD01832A4
:102DB000934227D01832934224D01832934221D024
:102DC000183293421ED002F5567293421AD018322E
:102DD000934217D01832934214D01832934211D034
:102DE000183293420ED0183293420BD018329342CD
:102DF00008D01832934205D01A6822F00E021A60E9
:102E0000266809E01A6822F01E021A6022685369D7
:102E100023F080035361266823686B496B4A934211
:102E200018BF8B4242D0183293423FD0183293429F
:102E30003CD01832934239D01832934236D01832EF
:102E4000934233D01832934230D002F556729342F7
:102E50002CD01832934229D01832934226D01832FF
:102E6000934223D01832934220D0183293421DD07F
:102E7000183293421AD01832934217D0544A9342D0
:102E800014D01432934211D0143293420ED0143223
:102E900093420BD01432934208D01432934205D09F
:102EA0001432934202D01432934204D1226E13683A
:102EB00023F48073136023684349444A934218BF44
:102EC0008B422FD0183293422CD01832934229D003
:102ED0001832934226D01832934223D018329342AC
:102EE00020D0183293421DD002F55672934219D069
:102EF0001832934216D01832934213D018329342AC
:102F000010D0183293420DD0183293420AD01832A2
:102F1000934207D01832934204D01A6822F001027B
:102F20001A6003E01A6822F001021A60336813F095
:102F3000010F0ED0FFF75AF9431B052BF6D92023BA
:102F40006365032384F83530002384F8343001208E
:102F50001FE723681C491D4A934218BF8B4239D092
:102F60001832934236D01832934233D018329342FB
:102F700030D0183293422DD0183293422AD01832D2
:102F8000934227D002F55672934223D018329342CF
:102F900020D0183293421DD0183293421AD01832E2
:102FA000934217D01832934214D01832934211D062
:102FB000183293420ED0A16DE36D03F01F0201237E
:102FC00093404B600DE000BF10000240280002401B
:102FD00008540258A16DE36D03F01F023F23934094
:102FE0008B6023682E492F4A934218BF8B4242D0F0
:102FF000183293423FD0183293423CD01832934259
:1030000039D01832934236D01832934233D0183226
:10301000934230D002F5567293422CD0183293422C
:1030200029D01832934226D01832934223D0183236
:10303000934220D0183293421DD0183293421AD0B6
:103040001832934217D0184A934214D01432934244
:1030500011D0143293420ED0143293420BD014325A
:10306000934208D01432934205D01432934202D0D6
:10307000143293420BD1636EA26E5A60E36E33B189
:103080001A6822F480721A60236F626F5A600123FB
:1030900084F83530002084F834007AE6012078E6A0
:1030A000100002402800024008540258002800F096
:1030B000288108B5024690F83530DBB2022B03D0E8
:1030C00080234365012008BD0368904890498B42E6
:1030D00018BF83420CBF0120002065D018318B42FD
:1030E00062D018318B425FD018318B425CD01831DE
:1030F0008B4259D018318B4256D018318B4253D065
:1031000001F556718B424FD018318B424CD018319B
:103110008B4249D018318B4246D018318B4243D074
:1031200018318B4240D018318B423DD018318B4240
:103130003AD0196821F00E01196013687348744978
:103140008B4218BF83426AD072498B4267D01831D4
:103150008B4264D018318B4261D018318B425ED0E3
:1031600018318B425BD018318B4258D001F5567123
:103170008B4254D018318B4251D018318B424ED0F3
:1031800018318B424BD018318B4248D018318B42CA
:1031900045D018318B4242D018318B423FD019684C
:1031A00021F0010119603EE0042182F8351080BB56
:1031B000584A93422DD0183293422AD01832934263
:1031C00027D01832934224D01832934221D018329B
:1031D00093421ED002F5567293421AD0183293428F
:1031E00017D01832934214D01832934211D01832AB
:1031F00093420ED0183293420BD01832934208D02B
:103200001832934205D01A6822F001021A60002099
:1032100059E71A6822F001021A60002053E7196882
:1032200021F0010119601368384839498B4218BFF1
:10323000834242D018318B423FD018318B423CD070
:1032400018318B4239D018318B4236D018318B422D
:1032500033D018318B4230D001F556718B422CD0CF
:1032600018318B4229D018318B4226D018318B422D
:1032700023D018318B4220D018318B421DD0183109
:103280008B421AD018318B4217D023498B4214D06D
:1032900014318B4211D014318B420ED014318B4239
:1032A0000BD014318B4208D014318B4205D014312D
:1032B0008B4202D014318B4217D1116E0B6823F46C
:1032C00080730B60906DD36D03F01F0101238B4061
:1032D0004360536E916E5960D36E33B1196821F417
:1032E00080711960136F516F5960012382F8353076
:1032F000002382F83430136D2BB11046984700201C
:10330000E1E6012070470020DDE600BF100002402A
:10331000280002404000024008540258F0B583B033
:103320000446002301937D4B1D687D4BA3FB0535AF
:10333000AD0A876D3E68D7F800C0036879497A48BE
:10334000834218BF8B420CBF0120002061D0774A16
:1033500093425ED0183293425BD01832934258D0D9
:103360001832934255D01832934252D018329342B9
:103370004FD002F5567293424BD01832934248D048
:103380001832934245D01832934242D018329342B9
:103390003FD0183293423CD01832934239D0183281
:1033A000934236D06249634A934218BF8B4212D08F
:1033B000614A93420FD0143293420CD0143293429C
:1033C00009D01432934206D01432934203D01432FF
:1033D000934240F061821A68E16D01F01F01042000
:1033E000884010EA0C0F00F0A78212F0040F00F0E2
:1033F000A382786012F4004F00F05A8212F4803FEA
:1034000040F05082A36C002B00F046822046984783
:1034100042E2E26D02F01F0108228A40324241D0AE
:1034200070BB424A93422BD01832934228D01832B4
:10343000934225D01832934222D0183293421FD0A3
:10344000183293421CD002F55672934218D01832AB
:10345000934215D01832934212D0183293420FD0B3
:10346000183293420CD01832934209D0183293424A
:1034700006D01832934203D01A68C2F3C00202E0A9
:103480001A68C2F380026AB11A6822F004021A6054
:10349000E36D03F01F0208239340BB60636D43F0AC
:1034A00001036365E26D02F01F0226FA02F313F0D6
:1034B000010F47D023681B481B498B4218BF83422A
:1034C0003CD018318B4239D018318B4236D018316C
:1034D0008B4233D018318B4230D018318B422DD0F3
:1034E00018318B422AD001F556718B4226D0183103
:1034F0008B4223D018318B4220D018318B421DD003
:1035000018318B421AD018318B4217D018318B42A8
:1035100014D018318B4211D01B6813E00400002432
:10352000B5814E1B100002402800024040000240BE
:10353000085402581C540258305402585B6913F066
:10354000800F3BD1E36D03F01F03042202FA03F363
:1035500033423FD02268964896498A4218BF824239
:1035600034D018318A4231D018318A422ED01831E5
:103570008A422BD018318A4228D018318A4225D06D
:1035800018318A4222D001F556718A421ED0183174
:103590008A421BD018318A4218D018318A4215D07D
:1035A00018318A4212D018318A420FD018318A421B
:1035B0000CD018318A4209D013680BE001239340E4
:1035C000BB60636D43F002036365BBE7126812F0F2
:1035D000020F3DD1E36D03F01F03102202FA03F343
:1035E00033425FD02268724872498A4218BF8242D1
:1035F00034D018318A4231D018318A422ED0183155
:103600008A422BD018318A4228D018318A4225D0DC
:1036100018318A4222D001F556718A421ED01831E3
:103620008A421BD018318A4218D018318A4215D0EC
:1036300018318A4212D018318A420FD018318A428A
:103640000CD018318A4209D01268C2F3800208E017
:10365000BB60636D43F004036365BBE71268C2F3AC
:10366000C002FAB1BB6023681A6812F4802F0DD033
:103670001B6813F4002F04D1236C9BB1204698479C
:1036800010E0A36C73B1204698470BE01A6812F45F
:10369000807F03D11A6822F008021A60236C0BB1F4
:1036A00020469847E36D03F01F03202202FA03F33C
:1036B000334200F0938022683D483E498A4218BF59
:1036C00082422ED018318A422BD018318A4228D01B
:1036D00018318A4225D018318A4222D018318A42C4
:1036E0001FD018318A421CD001F556718A4218D079
:1036F00018318A4215D018318A4212D018318A42C4
:103700000FD018318A420CD018318A4209D01831B2
:103710008A4206D018318A4203D01268C2F34002AE
:1037200002E01268C2F30012002A57D0BB6094F87E
:103730003530DBB2042B0ED023681A6812F4802FC8
:103740003AD01B6813F4002F2DD1636C002B45D0A9
:103750002046984742E02268136823F0160313605E
:103760002268536923F080035361236CBBB1226844
:10377000136823F008031360E36D03F01F023F2377
:103780009340BB60012384F83530002384F8343043
:10379000236D002B00F08080204698477CE0A36CCE
:1037A000002BE4D1E8E7E36BC3B12046984715E06E
:1037B00010000240280002401A6812F4807F09D1EC
:1037C0001A6822F010021A60012384F835300023B1
:1037D00084F83430E36B0BB120469847636D002BBF
:1037E0005AD0636D13F0010F52D0042384F83530A2
:1037F00023689649964A934218BF8B422FD01832BD
:1038000093422CD01832934229D01832934226D0BA
:103810001832934223D01832934220D01832934268
:103820001DD002F55672934219D01832934216D029
:103830001832934213D01832934210D01832934268
:103840000DD0183293420AD01832934207D0183262
:10385000934204D01A6822F001021A6003E01A6849
:1038600022F001021A60019B01330193AB4204D89C
:1038700023681B6813F0010FF5D123681B6813F050
:10388000010F0BD0032384F83530002384F8343043
:10389000E36C0BB12046984703B0F0BD012384F8D8
:1038A0003530F2E7236C002BF6D020469847F3E73B
:1038B00012F0200F3AD123686449654A934218BF39
:1038C0008B422FD0183293422CD01832934229D0F9
:1038D0001832934226D01832934223D018329342A2
:1038E00020D0183293421DD002F55672934219D05F
:1038F0001832934216D01832934213D018329342A2
:1039000010D0183293420DD0183293420AD0183298
:10391000934207D01832934204D01A6822F004026E
:103920001A6003E01A6822F008021A60236C002B68
:10393000B2D020469847AFE70220884010EA0C0F2B
:1039400060D012F0020F5DD0786012F4004F0ED0FC
:1039500012F4803F05D1636C002B9DD02046984720
:103960009AE7E36B002B97D02046984794E712F034
:10397000200F40D123683549354A934218BF8B4206
:103980002FD0183293422CD01832934229D01832BB
:10399000934226D01832934223D01832934220D03B
:1039A000183293421DD002F55672934219D0183244
:1039B000934216D01832934213D01832934210D04B
:1039C000183293420DD0183293420AD018329342E3
:1039D00007D01832934204D01A6822F00A021A6003
:1039E00003E01A6822F014021A60012384F83530CB
:1039F000002384F83430E36B002B3FF44DAF2046B6
:103A0000984749E7082000FA01F111EA0C0F3FF44A
:103A100043AF12F0080F3FF43FAF1A6822F00E02D6
:103A20001A60E36D03F01F03012202FA03F37B60C7
:103A3000626584F83520002384F83430E36C002B71
:103A40003FF42AAF2046984726E700BF1000024007
:103A50002800024030B4416B0468D4F884306F4AC7
:103A6000134043EA8103C4F884300468D4F88430F6
:103A700023F47F03856B43EA0543C4F88430836BEA
:103A80000B440468D4F88810114041EA8301C4F85B
:103A900088100468D4F8881021F4FE01C56B41EA4F
:103AA0000541C4F88810C16B03EB41030468D4F8E6
:103AB000A010114041EA8301C4F8A0100468D4F8B2
:103AC000A01021F4FE01056C41EA0541C4F8A010E4
:103AD000016C446C04FB01330468D4F8B01011404D
:103AE00041EA8301C4F8B0100468D4F8B01021F49E
:103AF000FE01856C41EA0541C4F8B010816CC46CCC
:103B000004FB01330468D4F8AC10114041EA83018E
:103B1000C4F8AC10016D446D04FB01330468D4F8A3
:103B2000F010114041EA8301C4F8F0100468D4F8A1
:103B3000F01021F47C11856D41EA0541C4F8F010C4
:103B4000816D03EB41030468D4F8C0100A4042EAD7
:103B50008303C4F8C0300268D2F8C03023F47C1369
:103B6000C16D43EA0143C2F8C0300268D2F8C030E8
:103B700023F07C53016E43EA0163C2F8C030436B0B
:103B8000274A1A449200C266836B02EB83030367E1
:103B9000C16B03EBC1034367016C446C04FB01F18F
:103BA00003EB81038367816CC46C04FB01F103EBBD
:103BB0008103C367016D446D04FB01F103EB8103D5
:103BC000C0F88030816D03EBC103C0F88430816E92
:103BD000C46D01FB04FC03EB8C03C0F88830046E59
:103BE00004FB01F103EB8103C0F890300D498B42D7
:103BF0000DD9D0F89C3043F02003C0F89C3003234B
:103C000080F89830012007E0002342F8043BD0F808
:103C100090309342F8D8002030BC70470300FFFF7B
:103C2000002B0010FCD3004070B54C68FCB90D6946
:103C30008C6825430C6845EA84450E6ACC6944EAE1
:103C400006648E6934434E693443CE6844EA0644C0
:103C5000D0F88460806E00FB03F306EB830E46F819
:103C60002350CEF804400EF1080E002019E00C6934
:103C70008D6825430C68254345F08045DDE702EB60
:103C8000000C9CF803409CF802301B0443EA0463D8
:103C90009CF8014043EA0423145C23434EF8043BA0
:103CA0000430CB68024CE35C8342E8D870BD00BFAF
:103CB000885F010830B595B004464C22A04901A8A0
:103CC000FCF7DEFF002C00F0388123689D4A934208
:103CD00020D094F898300BB32268936923F0100336
:103CE0009361FEF783FA054623689A6912F0080F7C
:103CF0001AD0FEF77BFA431B0A2BF5D9D4F89C3077
:103D000043F00103C4F89C30032384F89830012069
:103D100015B030BD03F580736360DAE784F899303D
:103D20002046FDF75DFAD7E79A6942F001029A61F1
:103D3000FEF75CFA054623689A6912F0010F0FD16D
:103D4000FEF754FA401B0A28F5D9D4F89C3043F00A
:103D50000103C4F89C30032384F898300120D7E78E
:103D60009A6942F002029A61237C012B40D02268BA
:103D7000936943F040039361637C012B3ED022683A
:103D8000936923F480439361A37C012B3CD0226888
:103D9000936943F4805393612268936923F44073D9
:103DA000A1680B4393612268936923F0A403936194
:103DB0002268136923F010031361E368012B29D0F3
:103DC000002B2CD0022B00F09B802268936943F0DB
:103DD000800393612268136943F010031361E36861
:103DE000032B1CD12268936943F02003936116E0F2
:103DF0002268936923F040039361BDE722689369C9
:103E000043F480439361BFE72268936923F48053AE
:103E10009361C1E72268936943F004039361A36946
:103E20005A1EE369013B1B0243EA4263226A013ADC
:103E300013436269013A216843EA0243CB61A368F4
:103E4000B3F5407F62D0236E33B12268D2F8C03020
:103E5000616E0B43C2F8C030E36D226ED3420DD0C9
:103E60002168D1F8C83023F00703A26E14A800EB34
:103E7000820252F84C2C1343C1F8C830236C6BB14A
:103E80002168D1F8BC3023F00703626C14A800EB62
:103E9000820252F84C2C1343C1F8BC30A36C73B1AE
:103EA0002168D1F8BC3023F07003E26C14A800EB59
:103EB000820252F84C2C43EA0213C1F8BC30236D45
:103EC00073B12168D1F8BC3023F4E063626D14A8AB
:103ED00000EB820252F84C2C43EA0223C1F8BC30BA
:103EE0002268184B9A4222D00023C4F89430C4F8B8
:103EF0009C30012384F898302046FFF7ABFD07E79C
:103F00002268936943F02003936188E7A36A013B29
:103F1000E26A013A43EA0223226B013A43EA0213BE
:103F2000626A013A216843EA0243CB608BE7626828
:103F3000936823F003039360D6E70120E8E600BF0F
:103F4000945C010800A0004090F89830013BDBB27F
:103F5000012B07D9D0F89C3043F00203C0F89C3005
:103F6000012070470B68DBB9CB68072B0ED08A683D
:103F7000DB0643EA82730A6943EA02434A69134350
:103F8000C26E496842F82130002070470A69CB6947
:103F90001B0243EA02438A69134343F06053EFE78D
:103FA00010B4CA680B6943EA4273072A0FD04A6902
:103FB0008C6842EA8472006F496800EBC10C40F8DB
:103FC0003130CCF8042000205DF8044B70478A693A
:103FD000F1E790F898C05FFA8CFCBCF1010F07D0B4
:103FE000D0F89C3043F00403C0F89C3001207047A7
:103FF000920042EA011242EA43030168009A1A431E
:10400000C1F880200020704790F89830DBB2012B77
:1040100007D0D0F89C3043F00403C0F89C30012056
:10402000704751B90168D1F8F03023F07C5343EA6E
:104030000263C1F8F03000207047012909D00168FF
:10404000D1F8B03023F0FE4343EA0263C1F8B03048
:10405000F1E70168D1F8A03023F0FE4343EA0263A0
:10406000C1F8A030E7E790F89830DBB2012B07D019
:10407000D0F89C3043F00403C0F89C300120704716
:10408000022380F898300268936923F0010393615A
:104090000023C0F89C301846704790F89830DBB287
:1040A000022B3ED10268936943F001039361002320
:1040B0000268916911F0010F0ED1322B01D8013342
:1040C000F6E7D0F89C3043F00103C0F89C3003239E
:1040D00080F8983001207047936923F010039361B2
:1040E00000230268916911F0080F0ED0322B01D81D
:1040F0000133F6E7D0F89C3043F00103C0F89C3060
:10410000032380F8983001207047936943F002033D
:1041100093610023C0F89430012280F8982018465B
:104120007047D0F89C3043F00803C0F89C30012061
:10413000704788B110B50446FFF7AFFF2268D36D12
:1041400023F00303D3652046FDF770F90020C4F87F
:104150009C0084F8980010BD0120704738B50446D3
:1041600090F89830DBB2022B2BD10368D3F8C00053
:1041700010F07C5F0CD0D3F8C40010F4001F0FD0F7
:10418000D4F89C3043F40073C4F89C3001201FE045
:10419000D4F89C3043F02003C4F89C30012017E091
:1041A000D3F8C450C5F304452B462046FFF73CFD29
:1041B00022680123AB40C2F8D030C4F8943000200C
:1041C00006E0D0F89C3043F00803C0F89C30012092
:1041D00038BD000090F898C05FFA8CFCBCF1020F6B
:1041E00040F0DF8070B540290CD041293DD0046DEE
:1041F0008C426DD8D0F89C3043F02003C0F89C303E
:104200000120C1E00468D4F8A05015F4FE0F0CD0D2
:10421000D4F8A45015F07F0F0FD1D0F89C3043F4A0
:104220008073C0F89C300120AEE0D0F89C3043F0A1
:104230002003C0F89C300120A6E0D4F8A46016F05A
:10424000807604D0D4F8A050002D0CDB0026D4F8E2
:10425000A440C4F305242644456F446C06FB04F4D3
:1042600005EB840E3BE00126F1E70468D4F8B0507A
:1042700015F4FE0F0CD0D4F8B45015F07F0F0FD109
:10428000D0F89C3043F48073C0F89C3001207BE070
:10429000D0F89C3043F02003C0F89C30012073E03C
:1042A000D4F8B46016F0807604D0D4F8B050002D65
:1042B0000CDB0026D4F8B440C4F305242644856FF3
:1042C000C46C06FB04F405EB840E08E00126F1E75C
:1042D000C56F446D01FB04F405EB840E0026DEF887
:1042E000004004F08044546064BBDEF80040C4F336
:1042F0008A441460DEF8004004F000549460DEF854
:10430000004004F000441461BEF80440D461BEF8DB
:10431000064004F00F04D460DEF8044004F4801476
:104320005461DEF8044004F4001494619EF80740E0
:1043300004F07F041462DEF80440E40F54624FF08E
:10434000000C0CE0DEF8004024F060441460D1E77B
:104350000EEB0C04247A03F80C400CF1010CD46829
:10436000144D2C5D6445F3D8402909D041290CD067
:104370001F290ED8026801238B40C2F8983002E052
:104380000368C3F8A860002070BD0368C3F8B86074
:10439000F9E701F01F01026801238B40C2F89C304D
:1043A000F1E7D0F89C3043F00803C0F89C300120BE
:1043B000704700BF885F0108402905D00368D3F823
:1043C000B40000F07F0070470368D3F8A40000F049
:1043D0007F00704790F89830013BDBB2012B07D982
:1043E000D0F89C3043F00203C0F89C3001207047A5
:1043F00010B403689C6D0C4224D1DC6D44F00104C0
:10440000DC6511F4007F05D00468D4F8E030134374
:10441000C4F8E03011F4806F05D00468D4F8E430BB
:104420001343C4F8E4300068436D0C4A0A40134358
:1044300043650B4A536943EA9173536100205DF869
:10444000044B70479C6D31EA040402D00324DC6500
:10445000D7E7DC6D44F00204DC65D2E7FFFFCF3F15
:1044600000A800407047704770477047704770471A
:104470007047704770477047704770477047704784
:10448000704700002DE9F04F83B00446904B1A6945
:104490005B69134001939B07009303681A6D02F454
:1044A000704A5A6D0AEA020A1A6D02F00F095A6D33
:1044B00009EA02091A6D02F0F0085A6D08EA0208CA
:1044C0001E6D06F071565A6D16401F6D07F060772D
:1044D0005A6D17405D6DD3F850B015F4807F02D04F
:1044E0001BF4807F64D115F4806F02D01BF4806FC1
:1044F00067D1009B002B74D1BAF1000F7ED1B9F1C6
:10450000000F40F08780B8F1000F40F08F8015F465
:10451000006F03D01BF4006F40F0948015F4007F0F
:1045200003D01BF4007F40F0988015F4002F03D0D7
:104530001BF4002F40F0A18015F4803F03D01BF442
:10454000803F40F0A58015F4802F03D01BF4802F0E
:1045500040F0A98015F4003F0FD01BF4003F0CD0B1
:1045600023684FF400321A65594B00221A61D4F8BF
:104570009C3043F08003C4F89C30002F40F09E80B4
:104580004EB123681E65B20F514B1A61D4F89C30AE
:104590003343C4F89C3022684E4B9A4200F09C8012
:1045A000D4F89C30002B40F0F98003B0BDE8F08FC8
:1045B0004FF480721A65464B00221A61FFF75BFFC9
:1045C00091E72368D3F8DC10D3F8E4204FF480603F
:1045D00018653F4B0020186111402046FFF747FF48
:1045E00087E7236800221A65019B03F00303384A1A
:1045F000136100992046FFF735FF7DE72368C3F874
:1046000050A04FEA9A72324B1A6151462046FFF78A
:104610002AFF74E72368C3F850904FEA99722C4B35
:104620001A614946204609F017F96CE72368C3F878
:1046300050804FEA9872264B1A6141462046FFF798
:1046400013FF64E723684FF400621A65204B0022D1
:104650001A612046FFF709FF60E72368D3F8D810F6
:10466000D3F8E0204FF400701865194B0020186152
:1046700011402046FFF7FAFE57E723684FF4002267
:104680001A65134B00221A612046FFF7F1FE53E72B
:1046900023684FF480321A650D4B00221A612046C0
:1046A000FFF7E7FE4FE723684FF480221A65084BB7
:1046B00000221A612046FFF7DDFE4BE723681F65E5
:1046C000BA0F034B1A613946204609F0DFF857E765
:1046D00000A8004000A0004063689A6812F0030F31
:1046E0003FF45EAF196A01F00F015A6A186A00F0D0
:1046F0003008586A08EA00081F6A07F4C077586A49
:1047000007401E6A06F4FC46586A06401D6A05F416
:10471000F025586A0540D3F82490D3F820A0114022
:104720001CD1B8F1000F1ED119F0400F02D01AF0C1
:10473000400F20D15FBB36B163681E62D4F89C3055
:104740003343C4F89C30002D3FF42AAF63681D62E8
:10475000D4F89C302B43C4F89C3021E719622046E2
:10476000FFF78BFEDDE76368C3F8208041462046F3
:10477000FFF784FED8E76368D96BDA6B40201862D4
:1047800002F03F02090C2046FFF779FED2E763688A
:104790001F6239462046FFF773FECCE72046FFF73D
:1047A0006BFE02E7F0B583B000236BE085685E0026
:1047B0000324B44025EA0405CC68B4402C4384604B
:1047C000456825EA0C054C68C4F300149C402C4352
:1047D000446069E0DD08083550F8254003F0070C17
:1047E0004FEA8C0C4FF00F0E0EFA0CFE24EA0E0E60
:1047F0000C6904FA0CF444EA0E0440F825406BE01E
:10480000092400E0002404FA0EF42C430CF1020CFD
:10481000664D45F82C404FF0B0442568D44325EA56
:1048200002064F6817F4801F01D042EA05064FF0D8
:10483000B0452E606D6804EA05064F6817F4001F46
:1048400001D042EA05064FF0B0456E60D5F88450BD
:1048500004EA05064F6817F4003F01D042EA050656
:104860004FF0B045C5F88460D5F880502C404E68B4
:1048700016F4803F01D042EA05044FF0B042C2F87E
:10488000804001330A6832FA03F400F08C804FF064
:10489000010C0CFA03FC1CEA0202F2D04C6804F092
:1048A0000304013C012C81D94C6804F00304032C5F
:1048B0000CD0C4685D004FF0030C0CFA05FC24EA30
:1048C0000C0C8C68AC4044EA0C04C4604C6804F0E6
:1048D0000304022C3FF47EAF04684FEA430E4FF00E
:1048E000030C0CFA0EFC24EA0C0C4C6804F00304D4
:1048F00004FA0EF444EA0C0404604C6814F4403FDB
:10490000BFD02B4CD4F8F45045F00205C4F8F45055
:10491000D4F8F44004F002040194019C4FEA930C93
:104920000CF10205214C54F8255003F0030E4FEA18
:104930008E0E0F2404FA0EF425EA04051D4CA04245
:104940003FF460AF04F58064A0421ED004F580649B
:10495000A0421CD004F58064A0421AD004F5806403
:10496000A04218D004F58064A04216D004F58064FB
:10497000A04214D004F58064A04212D004F5006473
:10498000A0423FF43DAF0A243DE701243BE7022467
:1049900039E7032437E7042435E7052433E7062401
:1049A00031E707242FE703B0F0BD00BF0004005833
:1049B0000044025800000258002331FA03F200F0CC
:1049C0009780F0B52EE0092500E0002505FA0CF5EA
:1049D000A5426CD004685D004FF0030C0CFA05FC96
:1049E00044EA0C0404604FEAD30E0EF1080E50F8AE
:1049F0002E4003F00706B6000F25B54024EA050453
:104A000040F82E40C46824EA0C04C460446824EAD8
:104A100002024260826822EA0C028260013331FAAB
:104A200003F264D001229A4012EA010EF6D09E08E9
:104A3000B51C304C54F8254003F0030C4FEA8C0CA5
:104A40000F2505FA0CF73C402B4DA842BDD005F5CB
:104A50008065A8421DD005F58065A8421BD005F5EC
:104A60008065A84219D005F58065A84217D005F5E4
:104A70008065A84215D005F58065A84213D005F5DC
:104A80008065A84211D005F50065A8429BD00A2593
:104A90009CE701259AE7022598E7032596E7042578
:104AA00094E7052592E7062590E707258EE74FF066
:104AB000B044D4F8805025EA0E05C4F88050D4F8EC
:104AC000845025EA0E05C4F88450656825EA0E0571
:104AD0006560256825EA0E052560DFF818C0B41C5E
:104AE0005CF8245025EA07054CF8245072E7F0BD25
:104AF000704700BF00040058000002580AB18161ED
:104B000070470904816170472DE9F04383B0D0F804
:104B1000008001EBC10300EB83039A6A5B6A9A424F
:104B200054D807460C469B1A01EBC10200EB8202E7
:104B3000D2699A4200D31A4602F103094FEA990951
:104B400015E006F103094FEA9909BB7904EBC405A6
:104B500007EB8505296A0093B3B2E2B2404604F040
:104B600044FA2B6A33442B62AB6A3344AB6208EBE2
:104B7000441303F510639B699BB24B4512D304EBBE
:104B8000C40307EB83039A6A5B6A9A420AD24BB169
:104B90009B1A04EBC40207EB8202D6699E42D0D373
:104BA0001E46CEE704EBC40307EB83077A6ABB6AB1
:104BB0009A420FD804F00F040122A240D8F83438EA
:104BC00023EA0203C8F83438002000E0012003B0D3
:104BD000BDE8F0830020FAE730B583B000287AD032
:104BE000044690F89534ABB1032384F895342068DB
:104BF00003F0B2FF237C8DF80030231D0ECB20681C
:104C000003F0E0FE58B1022384F8953401252846CC
:104C100003B030BD80F8943407F0F6FDE4E70021DE
:104C2000206804F0F8FB024608B9034617E00223A7
:104C300084F895340125EAE703EBC30104EB810115
:104C4000012048750B75CB8500200876C861086285
:104C500003EBC30104EB810148620133DBB220792D
:104C60009842E9D816E002EBC20304EB830300216B
:104C700083F8551283F8542283F85812C3F85C1253
:104C8000C3F8601202EBC20304EB8303C3F864129F
:104C90000132D2B29042E6D8237C8DF80030231D39
:104CA0000ECB206803F0AEFF054658B900236374AD
:104CB000012384F89534237B012B08D0206804F06D
:104CC00069FBA4E7022384F8953401259FE7204679
:104CD00000F076FDF2E7012599E7036890F8942447
:104CE000012A1AD010B50446012280F89424DA680B
:104CF00012F0400F02D0427B012A09D0206803F055
:104D000025FF206804F038FB002084F8940410BDCF
:104D10009A6B42F480329A63F0E7022070470000F9
:104D200070B504460D460068066C00EB411303F5B0
:104D300030639A68A179012911D038498E4256D042
:104D40003DB905EBC50304EB8303D3F86432002BB4
:104D50005ED0E9B2204607F099FD002070BD12F048
:104D6000080F09D02E498E42F7D912F4004FF4D023
:104D70004FF400429A60F0E712F0200F02D0202298
:104D80009A60EAE712F0280FE7D125498E4206D94A
:104D900012F4004F03D04FF400429A60DDE705EBB8
:104DA000C50204EB8202D2F874121B69C3F312032A
:104DB000CB1AC2F868327DB905EBC50204EB82025A
:104DC000D2F864226AB105EBC50204EB8202D2F884
:104DD00060121944C2F86012E9B2204607F056FD8D
:104DE000BBE704F29C42012104F054FBF4E712F407
:104DF000004F03D04FF400429A60AEE712F0200F4C
:104E000001D020229A60E9B2204607F03FFDA4E7D6
:104E100004F29C42002104F03DFB9AE70A31544F12
:104E20000A30544F38B5044603681D6C03EB411338
:104E3000D3F8081B0E4A954207D903F5306311F4E5
:104E4000004F02D04FF400429A60204607F016FD52
:104E5000074B9D4202D9A379012B01D0002038BD18
:104E600004F29C420121206804F014FBF6E700BF25
:104E70000A30544F90F89434012B0CD010B50446EE
:104E8000012380F894344174006804F065FA00202E
:104E900084F8940410BD0220704738B505468C464E
:104EA00011F0800F2BD101F00F0E0EEBCE04A400F9
:104EB00004F514740444211D0EEBCE0E00EB8E0E8F
:104EC00000208EF855020CF00F0C81F800C0C2F3E0
:104ED0000A028A600B714A780AB1A1F81AC0022B43
:104EE0001CD095F89434012B1BD0012385F8943401
:104EF000286803F05FFF002085F8940438BD01F0B6
:104F00000F0000EBC001890010312944043100EB8F
:104F1000C00005EB800001244475D4E700234B71E9
:104F2000DFE70220EAE710B504460A4611F0800FD9
:104F300020D101F00F0000EBC0039B0003F51473B8
:104F40002344191D00EBC00004EB8000002380F80F
:104F5000553202F00F020A7094F89434012B18D0E5
:104F6000012384F89434206803F070FF002084F853
:104F7000940410BD01F00F0000EBC0039B00103340
:104F80002344191D00EBC00004EB8000012343758E
:104F9000DFE70220EDE710B5144601F00F0C0CEB33
:104FA000CC01890001F51471014404310CEBCC0EE5
:104FB00000EB8E0ECEF86022CEF864320023CEF8DD
:104FC00068328EF855328EF854C28279012A04D0A4
:104FD000006804F021F8002010BDCEF87042F7E719
:104FE00001F00F0101EBC10100EB8100D0F8680274
:104FF000704710B5144601F00F0C0CEBCC01890082
:105000001031014404310CEBCC0E00EB8E0ECEF8C7
:105010002020CEF824300023CEF8283001238EF84B
:1050200015308EF814C082799A4204D0006803F0DB
:10503000F3FF002010BDCEF83040F7E738B501F09F
:105040000F050279AA4238D304460B4611F0800FAF
:105050001FD101EBC101890001F514710144043134
:1050600003EBC30300EB8303002283F855220123E3
:105070008B700D7094F89434012B20D0012384F8A8
:105080009434206804F00DF985B1002084F894046C
:1050900038BD05EBC501890010310144043105EB31
:1050A000C50300EB830301225A75E0E704F29C423A
:1050B000A179206804F0EEF9E7E70120E8E7022093
:1050C000E6E701F00F0302799A4230D310B50446A7
:1050D00011F0800F1ED103EBC301890001F514719B
:1050E0000144043103EBC30200EB8202002082F88A
:1050F000550200228A700B7094F89434012B18D05A
:10510000012384F89434206804F0F8F8002084F82F
:10511000940410BD03EBC301890010310144043134
:1051200003EBC30200EB820201205075E1E701208E
:1051300070470220EDE708B511F0800F0CD101F0A7
:105140000F0101EBC101890001F514710144043123
:10515000006803F0EBFE08BD01F00F0101EBC10197
:105160008900103101440431F2E72DE9F04F83B09A
:1051700004460568284604F04AF910B103B0BDE8BA
:10518000F08F0646206804F013F90028F6D005F5E4
:105190000067BB68C3F30D23C4F8D434206804F05F
:1051A00007F910F0020F04D02268536903F00203DC
:1051B0005361206804F0FCF810F0100F16D022683C
:1051C000936923F010039361D5F8208008F00F094C
:1051D00008F4F013B3F5802F6AD0B3F5402F00F038
:1051E0008D802268936943F010039361206804F076
:1051F000DFF810F4002F40F09380206804F0D8F816
:1052000010F4802F40F0FC80206804F0D1F80028D2
:10521000C0F27D81206804F0CBF810F4006F09D053
:10522000BB6813F0010F40F08A812268536903F4D0
:1052300000635361206804F0BBF810F0006F15D0D4
:105240002268536903F00063536194F8CC34002B57
:1052500040F07981012184F8CC1423685B6DC3F39D
:105260008303C4F8D034204600F0BEFA206804F06E
:105270009FF810F4805F40F06A81206804F098F88D
:1052800010F4005F40F0B681206804F091F810F04F
:10529000080F40F0C781206804F08AF810F0800FF2
:1052A00000F0DA81AB6923F08003AB610126C3E132
:1052B00047F6F07318EA030F93D04FEA181A4FEA33
:1052C000C903019309EBC90B04EB8B0BC8F30A125A
:1052D000DBF86012284603F0C1FFDBF86032CAF346
:1052E0000A0A5344CBF86032DBF86832019A4A4428
:1052F00004EB82025344C2F8683272E7082204F2D7
:105300009C41284603F0AAFF09EBC90304EB830381
:10531000D3F86822C8F30A184244C3F8682260E749
:10532000206804F049F88046B14635E005EB4913A2
:105330000122C3F8082B49462046FFF7F1FC3CE068
:1053400005EB49130822C3F8082B49462046FFF70E
:1053500069FD35E009EBC90304EB830393F8573289
:10536000012B41D005EB49130222C3F8082B1AF098
:10537000200F04D005EB49132022C3F8082B1AF4A0
:10538000005F05D005EB49134FF40052C3F8082B1A
:1053900009F101094FEA5808B8F1000F3FF42DAFA9
:1053A00018F0010FF4D05FFA89FB5946206804F029
:1053B00013F8824610F0010FB8D11AF0080FBFD1D0
:1053C0001AF0100F04D005EB49131022C3F8082B74
:1053D0001AF0020FCBD06B6913F0800FBAD07B6844
:1053E00043F480637B60B5E709EBC90304EB8303F7
:1053F000002283F857225946204607F097FAB1E772
:10540000206803F0E1FF8046B14625E0594620467A
:1054100007F048FA1AF0080F04D005EB49130822E8
:10542000C3F808291AF0100F04D005EB4913102215
:10543000C3F808291AF0400F04D005EB49134022A5
:10544000C3F808291AF0020F40D11AF0800F59D181
:1054500009F101094FEA5808B8F1000F3FF4D4AE42
:1054600018F0010FF4D05FFA89FB5946206803F069
:10547000BCFF824610F0010FCCD009F00F020121D1
:1054800001FA02F27B6B23EA02037B6305EB49130B
:10549000C3F80819A3798B42B8D109EBC90304EB0F
:1054A00083031A6AD9690A441A62B9F1000FADD1AF
:1054B00009EBC90304EB83035B6A002BA6D104F25A
:1054C0009C420121206803F0E5FF9FE749462846FA
:1054D00003F048FB09EBC90304EB8303DB7D012BDD
:1054E00005D005EB49130222C3F80829ADE709EB03
:1054F000C90304EB83030022DA755946204607F0FE
:105500001BFAEEE749462046FFF7FEFAA0E77B6864
:1055100023F001037B6094F8CC34012B08D02046A3
:1055200007F0FEF92268536903F00043536171E606
:10553000002184F8CC14204600F056F9F2E720460A
:1055400007F0D6F971E6204607F0D2F98EE67B68BF
:1055500023F001037B601021206803F003FB1AE0B5
:1055600005EB46134FF67F31C3F80819D3F800292D
:1055700022F40012C3F80029C3F8081BD3F8002B4B
:1055800022F40012C3F8002BD3F8002B42F0006283
:10559000C3F8002B01362379B342E1D8FB6943F00D
:1055A0000113FB61E37BDBB1D7F8843043F00B03DD
:1055B000C7F884307B6C43F00B037B64D5F800386C
:1055C00023F4FE63C5F8003804F29C42A1792068F8
:1055D00003F060FF2268536903F4805353614CE683
:1055E0007A6942F22B0313437B613B6943F00B035F
:1055F0003B61E3E7206803F03FFF206803F0C8FB4E
:10560000E071266800F0AEFE0146E279304603F014
:105610002BFA204607F057F92268536903F4005328
:10562000536131E6204607F048F92268536903F0D8
:10563000080353612FE601362379B3420CD906EBF8
:10564000C60304EB830393F85732012BF3D1F1B275
:105650002046FFF770FDEEE7206803F0A9FE10F486
:10566000801F25D1206803F0A3FE10F4001F58D03E
:10567000012326E001362379B3421BD905EB4613FB
:10568000D3F8002906EBC60304EB83031B7E012B32
:10569000F0D1002AEEDA06EBC60304EB8303012205
:1056A000DA7566F07F01C9B22046FFF744FDE1E7F5
:1056B0000126E0E72268536903F480135361D1E7C0
:1056C000013322799A4227D905EB4312D2F8001B05
:1056D00003EBC30204EB820292F85822012AEFD1B5
:1056E0000029EDDAD4F8D42482EA114212F0010F35
:1056F000E6D103EBC30204EB8202012182F85712C8
:10570000AA6942F08002AA616A6912F0800FD7D1BB
:105710007B6843F400737B602268536903F40013D1
:105720005361206803F044FE10F0804F10D12068D0
:1057300003F03EFE10F0040F3FF420AD23685D68D7
:1057400015F0040F0DD1226853682B43536015E503
:10575000204607F0F7F82268536903F0804353614D
:10576000E5E7204607F0F4F8EDE710B40468606A56
:1057700031B940EA0240A06200205DF8044B704756
:105780008C46A36A00EB1340002308E003F14001BC
:1057900004EB8101496800EB11400133DBB20CF1ED
:1057A000FF318B42F2D340EA02400CF13F0104EB9F
:1057B00081046060E0E703685962002070470000E0
:1057C000034602680121C0F8D814002083F8CC04F5
:1057D000936943F000639361516D024B0B43536532
:1057E000704700BF0300001070470000134BDB68D8
:1057F00013F0040F07D1114BDB6803F0070383425A
:105800001AD00120704710B50C4AD36823F0070363
:105810000343D360FCF7EAFC0446084B5B6813F4CF
:10582000005F07D1FCF7E2FC001BB0F57A7FF4D9EA
:10583000012000E0002010BD002070470048025801
:10584000024AD36843F08073D3607047004802581F
:10585000002800F0D58238B50446036813F0010F24
:1058600025D0A04A136903F03803926A102B15D093
:10587000182B0FD06368B3F5803F3FD0002B53D176
:10588000984B1A6822F480321A601A6822F4802237
:105890001A6038E002F00302022AEBD1914B1B6838
:1058A00013F4003F03D06368002B00F0AB82236841
:1058B00013F0020F00F088808A4A1369926A13F08D
:1058C00038035AD0182B55D0E368002B00F0A9807C
:1058D00084490A6822F0190213430B60FCF786FC26
:1058E0000546804B1B6813F0040F40F09180FCF7D5
:1058F0007DFC401B0228F4D903208AE2794A136810
:1059000043F48033136063682BB3FCF76FFC0546E8
:10591000744B1B6813F4003FC9D1FCF767FC401BB4
:105920006428F5D9032074E2B3F5A02F09D06D4B9C
:105930001A6822F480321A601A6822F480221A60EF
:10594000E1E7684B1A6842F480221A601A6842F450
:1059500080321A60D7E7FCF749FC0546614B1B68AB
:1059600013F4003FA3D0FCF741FC401B6428F5D999
:1059700003204EE212F0030FA6D15A4B1B6813F01E
:10598000040F03D0E368002B00F03E82554A1368F1
:1059900023F01903E1680B431360FCF727FC05466D
:1059A000504B1B6813F0040F06D1FCF71FFC401B83
:1059B0000228F5D903202CE24A4A536823F0FE431B
:1059C000216943EA01635360236813F0100F51D03B
:1059D000444A136903F03803926A082B39D0182B14
:1059E00033D0E369002B69D03E4A136843F080034B
:1059F0001360FCF7FBFB05463A4B1B6813F4807FF2
:105A000053D1FCF7F3FB401B0228F5D9032000E239
:105A1000344A536823F0FE43216943EA016353602B
:105A2000D2E7304A136823F001031360FCF7DEFB72
:105A300005462C4B1B6813F0040FC5D0FCF7D6FBB2
:105A4000401B0228F5D90320E3E102F00302012AFA
:105A5000C7D1244B1B6813F4807F03D0E369802BEC
:105A600040F0D4811F4AD36823F07C53216A43EA73
:105A70000163D360236813F0080F49D06369002BDA
:105A800032D0184A536F43F001035367FCF7AEFB63
:105A90000546144B5B6F13F0020F39D1FCF7A6FBE0
:105AA000401B0228F5D90320B3E10E4AD36823F046
:105AB0007C53216A43EA0163D360DBE7094A136838
:105AC00023F080031360FCF791FB0546054B1B6830
:105AD00013F4807FCED0FCF789FB401B0228F5D958
:105AE000032096E1004402589D4A536F23F00103BE
:105AF0005367FCF77BFB0546994B5B6F13F0020F76
:105B000006D0FCF773FB401B0228F5D9032080E187
