:020000040800F2
:1000000000000524DD280008091E00080B1E00085A
:100010000D1E00080F1E0008111E00080000000041
:1000200000000000000000000000000081CC00087B
:10003000131E00080000000021CD000885CD000837
:100040002D2900082D2900082D2900082D29000838
:100050002D2900082D2900082D2900082D29000828
:100060002D2900082D2900082D290008151E00083B
:100070002D2900082D2900082D2900082D29000808
:100080002D2900082D2900082D290008251E00080B
:10009000351E0008451E0008551E00082D290008C1
:1000A0002D2900082D2900082D2900082D290008D8
:1000B0002D2900082D2900082D2900082D290008C8
:1000C0002D2900082D2900082D2900082D290008B8
:1000D0002D290008651E0008751E0008851E0008F1
:1000E0002D2900082D290008000000002D290008F6
:1000F0002D2900082D2900082D2900082D29000888
:100100002D2900082D2900082D2900082D29000877
:100110002D2900082D2900082D2900082D29000867
:100120002D2900082D2900082D2900082D29000857
:100130002D2900082D2900082D2900082D29000847
:1001400000000000000000000000000000000000AF
:100150002D2900082D2900082D2900082D29000827
:100160002D2900082D2900082D2900082D29000817
:100170002D290008951E00082D2900080000000008
:100180002D2900082D290008A51E00082D2900088A
:100190002D2900082D2900082D2900082D290008E7
:1001A0002D2900082D2900082D2900080000000035
:1001B0002D2900082D2900082D2900082D290008C7
:1001C0002D2900082D290008000000000000000073
:1001D00000000000000000002D29000800000000C1
:1001E000000000000000000000000000000000000F
:1001F00000000000000000002D2900082D29000843
:100200002D2900082D290008000000002D290008D4
:100210002D2900082D2900082D2900082D29000866
:100220002D290008000000002D2900080000000012
:100230002D2900082D290008000000002D290008A4
:100240002D2900082D2900082D2900082D29000836
:100250002D2900082D2900082D2900082D29000826
:100260002D2900082D2900082D2900082D29000816
:100270002D2900082D2900082D2900080000000064
:100280002D2900082D2900082D2900082D290008F6
:10029000000000002D2900082D29000800000000A2
:1002A000000000002D2900082D2900082D29000834
:1002B000B51E00082D2900082D290008C51E0008BC
:0C02C000D51E0008E51E00082D290008CE
:1002D00081F0004102E000BF83F0004330B54FEAF7
:1002E00041044FEA430594EA050F08BF90EA020F64
:1002F0001FBF54EA000C55EA020C7FEA645C7FEAF7
:10030000655C00F0E2804FEA5454D4EB5555B8BF19
:100310006D420CDD2C4480EA020281EA030382EA8A
:10032000000083EA010180EA020281EA0303362D1C
:1003300088BF30BD11F0004F4FEA01314FF4801CEF
:100340004CEA113102D0404261EB410113F0004F01
:100350004FEA03334CEA133302D0524263EB4303B8
:1003600094EA050F00F0A780A4F10104D5F1200E56
:100370000DDB02FA0EFC22FA05F2801841F10001B1
:1003800003FA0EF2801843FA05F359410EE0A5F185
:1003900020050EF1200E012A03FA0EFC28BF4CF0B6
:1003A000020C43FA05F3C01851EBE37101F000456C
:1003B00007D54FF0000EDCF1000C7EEB00006EEB79
:1003C0000101B1F5801F1BD3B1F5001F0CD3490803
:1003D0005FEA30004FEA3C0C04F101044FEA44525A
:1003E00012F5800F80F09A80BCF1004F08BF5FEAE1
:1003F000500C50F1000041EB045141EA050130BDC1
:100400005FEA4C0C404141EB0101013C28BFB1F5D2
:10041000801FE9D291F0000F04BF01460020B1FA1D
:1004200081F308BF2033A3F10B03B3F120020CDAF0
:100430000C3208DD02F1140CC2F10C0201FA0CF0CE
:1004400021FA02F10CE002F11402D8BFC2F1200C33
:1004500001FA02F120FA0CFCDCBF41EA0C019040E9
:10046000E41AA2BF01EB0451294330BD6FEA040432
:100470001F3C1CDA0C340EDC04F11404C4F120021D
:1004800020FA04F001FA02F340EA030021FA04F32F
:1004900045EA030130BDC4F10C04C4F1200220FA86
:1004A00002F001FA04F340EA0300294630BD21FAC4
:1004B00004F0294630BD94F0000F83F4801306BF8A
:1004C00081F480110134013D4EE77FEA645C18BF7E
:1004D0007FEA655C29D094EA050F08BF90EA020F15
:1004E00005D054EA000C04BF1946104630BD91EA0D
:1004F000030F1EBF0021002030BD5FEA545C05D110
:100500004000494128BF41F0004130BD14F580044E
:100510003CBF01F5801130BD01F0004545F0FE41C2
:1005200041F470014FF0000030BD7FEA645C1ABFF7
:10053000194610467FEA655C1CBF0B46024650EA2E
:10054000013406BF52EA033591EA030F41F400215A
:1005500030BD00BF90F0000F04BF0021704730B5E0
:100560004FF4806404F132044FF000054FF00001B5
:1005700050E700BF90F0000F04BF0021704730B576
:100580004FF4806404F1320410F0004548BF40424B
:100590004FF000013EE700BF42004FEAE2014FEAA0
:1005A00031014FEA02701FBF12F07F4393F07F4F7B
:1005B00081F06051704732F07F4208BF704793F07E
:1005C0007F4F04BF41F40021704730B54FF4607491
:1005D00001F0004521F000411CE700BF50EA010294
:1005E00008BF704730B54FF000050AE050EA01023D
:1005F00008BF704730B511F0004502D5404261EBAD
:1006000041014FF4806404F132045FEA915C3FF4ED
:10061000D8AE4FF003025FEADC0C18BF03325FEA8A
:10062000DC0C18BF033202EBDC02C2F1200300FA3B
:1006300003FC20FA02F001FA03FE40EA0E0021FA60
:1006400002F11444BDE600BF70B54FF0FF0C4CF44E
:10065000E06C1CEA11541DBF1CEA135594EA0C0F00
:1006600095EA0C0F00F0DEF82C4481EA030621EA3B
:100670004C5123EA4C5350EA013518BF52EA033576
:1006800041F4801143F4801338D0A0FB02CE4FF028
:100690000005E1FB02E506F00042E0FB03E54FF058
:1006A0000006E1FB03569CF0000F18BF4EF0010E50
:1006B000A4F1FF04B6F5007F64F5407404D25FEA4C
:1006C0004E0E6D4146EB060642EAC62141EA5551FF
:1006D0004FEAC52040EA5E504FEACE2EB4F1FD0C41
:1006E00088BFBCF5E06F1ED8BEF1004F08BF5FEABF
:1006F000500E50F1000041EB045170BD06F0004671
:1007000046EA010140EA020081EA0301B4EB5C041D
:10071000C2BFD4EB0C0541EA045170BD41F4801115
:100720004FF0000E013C00F3AB8014F1360FDEBF3A
:10073000002001F0004170BDC4F10004203C35DA16
:100740000C341BDC04F11404C4F1200500FA05F399
:1007500020FA04F001FA05F240EA020001F000423A
:1007600021F0004110EBD37021FA04F642EB0601B0
:100770005EEA430E08BF20EAD37070BDC4F10C04DA
:10078000C4F1200500FA04F320FA05F001FA04F29E
:1007900040EA020001F0004110EBD37041F100018A
:1007A0005EEA430E08BF20EAD37070BDC4F1200595
:1007B00000FA05F24EEA020E20FA04F301FA05F2FD
:1007C00043EA020321FA04F001F0004121FA04F2A5
:1007D00020EA020000EBD3705EEA430E08BF20EA75
:1007E000D37070BD94F0000F0FD101F000464000AF
:1007F00041EB010111F4801F08BF013CF7D041EA31
:10080000060195F0000F18BF704703F00046520034
:1008100043EB030313F4801F08BF013DF7D043EA05
:100820000603704794EA0C0F0CEA135518BF95EABB
:100830000C0F0CD050EA410618BF52EA4306D1D142
:1008400081EA030101F000414FF0000070BD50EA61
:10085000410606BF1046194652EA430619D094EAEB
:100860000C0F02D150EA013613D195EA0C0F05D1D5
:1008700052EA03361CBF104619460AD181EA030129
:1008800001F0004141F0FE4141F470014FF00000E1
:1008900070BD41F0FE4141F4780170BD70B54FF07C
:1008A000FF0C4CF4E06C1CEA11541DBF1CEA1355FC
:1008B00094EA0C0F95EA0C0F00F0A7F8A4EB0504DE
:1008C00081EA030E52EA03354FEA013100F08880D5
:1008D0004FEA03334FF0805545EA131343EA12639E
:1008E0004FEA022245EA111545EA10654FEA002653
:1008F0000EF000419D4208BF964244F1FD0404F50C
:10090000407402D25B084FEA3202B61A65EB030567
:100910005B084FEA32024FF480104FF4002CB6EB24
:10092000020E75EB030E22BFB61A754640EA0C00A4
:100930005B084FEA3202B6EB020E75EB030E22BFE4
:10094000B61A754640EA5C005B084FEA3202B6EB25
:10095000020E75EB030E22BFB61A754640EA9C00E4
:100960005B084FEA3202B6EB020E75EB030E22BFB4
:10097000B61A754640EADC0055EA060E18D04FEA72
:10098000051545EA16754FEA06164FEAC30343EA12
:1009900052734FEAC2025FEA1C1CC0D111F4801FDF
:1009A0000BD141EA00014FF000004FF0004CB6E7D8
:1009B00011F4801F04BF01430020B4F1FD0C88BF77
:1009C000BCF5E06F3FF6AFAEB5EB030C04BFB6EB82
:1009D000020C5FEA500C50F1000041EB045170BD75
:1009E0000EF0004E4EEA113114EB5C04C2BFD4EBA2
:1009F0000C0541EA045170BD41F480114FF0000E26
:100A0000013C90E645EA060E8DE60CEA135594EAA1
:100A10000C0F08BF95EA0C0F3FF43BAF94EA0C0FA4
:100A20000AD150EA01347FF434AF95EA0C0F7FF419
:100A300025AF104619462CE795EA0C0F06D152EA6D
:100A400003353FF4FDAE1046194622E750EA410651
:100A500018BF52EA43067FF4C5AE50EA41047FF462
:100A60000DAF52EA43057FF4EBAE12E74FEA4102C5
:100A7000B2F1E04324BFB3F5001CDCF1FE5C0DD9FC
:100A800001F0004C4FEAC0024CEA5070B2F1004F46
:100A900040EB830008BF20F00100704711F0804F49
:100AA00021D113F13872BCBF01F00040704741F40E
:100AB00080114FEA5252C2F11802C2F1200C10FA12
:100AC0000CF320FA02F018BF40F001004FEAC123F6
:100AD0004FEAD32303FA0CFC40EA0C0023FA02F39A
:100AE0004FEA4303CCE77FEA625307D150EA013370
:100AF0001EBF4FF0FE4040F44000704701F0004040
:100B000040F0FE4040F40000704700BF53B94AB9BE
:100B1000002908BF00281CBF4FF0FF314FF0FF3005
:100B200000F00CB8ADF1080C6DE904CE0EF0D2FD6A
:100B3000DDF804E0DDE9022304B07047704700BF30
:100B4000844641EA000313F003036DD1403A41D3D8
:100B500051F8043B40F8043B51F8043B40F8043B97
:100B600051F8043B40F8043B51F8043B40F8043B87
:100B700051F8043B40F8043B51F8043B40F8043B77
:100B800051F8043B40F8043B51F8043B40F8043B67
:100B900051F8043B40F8043B51F8043B40F8043B57
:100BA00051F8043B40F8043B51F8043B40F8043B47
:100BB00051F8043B40F8043B51F8043B40F8043B37
:100BC00051F8043B40F8043B51F8043B40F8043B27
:100BD000403ABDD2303211D351F8043B40F8043BC7
:100BE00051F8043B40F8043B51F8043B40F8043B07
:100BF00051F8043B40F8043B103AEDD20C3205D3D7
:100C000051F8043B40F8043B043AF9D2043208D0CE
:100C1000D2071CBF11F8013B00F8013B01D30B8840
:100C200003806046704700BF082A13D38B078DD01E
:100C300010F003038AD0C3F10403D21ADB071CBFF0
:100C400011F8013B00F8013B80D331F8023B20F85A
:100C5000023B7BE7043AD9D3013A11F8013B00F893
:100C6000013BF9D20B7803704B7843708B7883701B
:100C7000604670474FF0FF3C06E000BF4FF0010CAC
:100C800002E000BF4FF0010C4DF804CD4FEA410CDB
:100C90007FEA6C5C4FEA430C18BF7FEA6C5C1BD0A8
:100CA00001B050EA410C0CBF52EA430C91EA030F29
:100CB00002BF90EA020F0020704710F1000F91EA86
:100CC000030F58BF994208BF90422CBFD8176FEA54
:100CD000E37040F0010070474FEA410C7FEA6C5C22
:100CE00002D150EA013C07D14FEA430C7FEA6C5C29
:100CF000D6D152EA033CD3D05DF8040B704700BF55
:100D00008446104662468C461946634600E000BFA2
:100D100001B5FFF7B7FF002848BF10F1000F01BD74
:100D20004DF808EDFFF7F4FF0CBF012000205DF83F
:100D300008FB00BF4DF808EDFFF7EAFF34BF0120C4
:100D400000205DF808FB00BF4DF808EDFFF7E0FF5D
:100D500094BF012000205DF808FB00BF4DF808EDAE
:100D6000FFF7CEFF94BF012000205DF808FB00BF15
:100D70004DF808EDFFF7C4FF34BF012000205DF8F7
:100D800008FB00BF4FEA410212F5001215D211D53F
:100D90006FF47873B3EB625212D94FEAC12343F078
:100DA000004343EA505311F0004F23FA02F018BFFA
:100DB000404270474FF00000704750EA013005D1C3
:100DC00011F0004008BF6FF0004070474FF0000086
:100DD000704700BF0348044B834202D0034B03B16A
:100DE000184770475C0200245C02002400000000E9
:100DF0000548064B1B1AD90F01EBA301491002D07D
:100E0000034B03B1184770475C0200245C020024C6
:100E10000000000010B5064C237843B9FFF7DAFF55
:100E2000044B13B10448AFF300800123237010BDBD
:100E30005C02002400000000D813010808B5054B2F
:100E40001BB105490548AFF30080BDE80840FFF736
:100E5000CFBF00BF0000000060020024D8130108CB
:100E600010B58CB0002409940A940B9424222146D6
:100E700068460EF08DFD2748274B03604FF4101392
:100E80004360846001230361042242610476437657
:100E90000222C26180F820408462C462032202639D
:100EA000C463046480F84440836402F087F920BB83
:100EB0000023099309A9174802F0E8FA00BB174B71
:100EC0000093062301930423029340F2FF720392DE
:100ED0000493002305938DF8213069460D4801F0F5
:100EE0000DFE80B90E4B00930C230193694609480F
:100EF00001F004FE50B90CB010BD00F0EDFBD7E7D7
:100F000000F0EAFBDBE700F0E7FBEBE700F0E4FBD7
:100F1000F1E700BFF0020024002002401000C010E2
:100F20000000B84F70B5B8B0044600213391349139
:100F3000359136913791B82204A80EF029FD226828
:100F4000384B9A4201D038B070BD4FF400220023D4
:100F5000CDE90423022306931022079208930993F4
:100F60000A93C0230B930DEB020006F03FFB002811
:100F700052D12D4BD3F8D82042F02002C3F8D8200C
:100F8000D3F8D82002F020020192019AD3F8E02091
:100F900042F00102C3F8E020D3F8E02002F00102A1
:100FA0000292029AD3F8E02042F00402C3F8E02053
:100FB000D3F8E03003F004030393039B202333931F
:100FC000032634960025359533A9184804F0BAF85D
:100FD000102333933496359533A9154804F0B2F8AD
:100FE0001448154B0360092343608560C5604FF4C6
:100FF000806303614FF4006343614FF400538361E6
:101000004FF48073C3610562456202F083FC30B91E
:10101000084BA3659C6396E700F05EFBA9E700F030
:101020005BFBF5E700200240004402580000025834
:1010300000080258780200241000024000B583B076
:101040000B4BD3F8D82042F00102C3F8D820D3F8D4
:10105000D83003F001030193019B002205210B20EE
:1010600002F00EFB0B2002F01BFB03B05DF804FB4B
:101070000044025808B51548154B036000238360EF
:10108000C360037443748374182242610122826135
:101090000221C161016242628262C26202634363F1
:1010A0008263C36320210164042242648364C264B6
:1010B000036542658365C36501664366826603F026
:1010C00055FD00B908BD00F007FBFBE7A4040024B0
:1010D00000A0004008B51648164B0360002383604B
:1010E000C3600374437483741822426101228261D5
:1010F0000221C161016242628262C262026340F205
:10110000064141638263C363202101640422426477
:101110008364C264036542658365C3650166436693
:10112000826603F023FD00B908BD00F0D5FAFBE7A5
:101130000404002400A4004008B51648164B0360C0
:1011400000238360C3600374437483741822426174
:10115000012282610221C161016242628262C26235
:10116000026340F6120141638263C363202101647C
:10117000042242648364C264036542658365C36577
:1011800001664366826603F0F1FC00B908BD00F019
:10119000A3FAFBE76403002400D4004030B5BBB0E1
:1011A0000446002135913691379138913991B82212
:1011B00006A80EF0EDFB23687B4A934208D07B4AD9
:1011C000934253D07A4A934200F09E803BB030BDA8
:1011D0004FF400420023CDE906234FF080532193C2
:1011E00006A806F003FA80BB724A13680133136045
:1011F000012B2DD0704BD3F8E02042F00802C3F849
:10120000E020D3F8E03003F008030193019B0323AF
:101210003593022336930024379438940923399365
:1012200035A9664803F08EFF22460521132002F0FF
:1012300027FA132002F034FA22460521152002F085
:101240001FFA152002F02CFAC0E700F045FACBE7B0
:10125000594BD3F8EC2042F48072C3F8EC20D3F859
:10126000EC3003F480730093009BC3E74FF400421B
:101270000023CDE906234FF08053219306A806F002
:10128000B5F980BB4B4A136801331360012B2DD095
:10129000494BD3F8E02042F00202C3F8E020D3F833
:1012A000E03003F002030393039B60233593022392
:1012B00036930024379438940923399335A940484C
:1012C00003F040FF22460521142002F0D9F9142032
:1012D00002F0E6F922460521162002F0D1F9162087
:1012E00002F0DEF972E700F0F7F9CBE7324BD3F802
:1012F000EC2042F48072C3F8EC20D3F8EC3003F415
:1013000080730293029BC3E74FF400420023CDE9B0
:1013100006234FF08053219306A806F067F988BB97
:10132000244A136801331360012B2ED0224BD3F8CB
:10133000E02042F00802C3F8E020D3F8E03003F0E8
:1013400008030593059B4FF44053359302233693CE
:101350000024379438940525399535A9174803F0AA
:10136000F1FE224629469F2002F08AF99F2002F0D2
:1013700097F922462946A02002F082F9A02002F027
:101380008FF923E700F0A8F9CAE70B4BD3F8EC205C
:1013900042F48072C3F8EC20D3F8EC3003F480738D
:1013A0000493049BC2E700BF00A0004000A40040DB
:1013B00000D400406003002400440258000C02588E
:1013C0000004025808B50DF083F901200BF0B1FBC1
:1013D000FBE708B501200BF0ACFBFBE708B50120EB
:1013E0000BF0A7FBFBE708B501200BF0A2FBFBE726
:1013F000034B0360034B0B6080231360704700BFF7
:10140000A00B0024A0090024034B0360034B0B60D6
:101410004FF480731360704744090024440500248E
:1014200010B5A4B02D4C0DF1740CA646BEE80F000B
:10143000ACE80F009EE807008CE8070000211DA81B
:101440000BF044FB264B18600DF1580C04F11C0EF8
:10145000BEE80F00ACE80F009EE807008CE807002C
:10146000002116A80BF032FB1E4B18600DF13C0C4E
:1014700004F1380EBEE80F00ACE80F009EE807004C
:101480008CE8070000210FA80BF020FB164B18601A
:101490000DF1200C04F1540EBEE80F00ACE80F0073
:1014A0009EE807008CE80700002108A80BF00EFB5F
:1014B0000E4B18600DF1040E04F1700CBCE80F0027
:1014C000AEE80F009CE807008EE80700002101A8A5
:1014D0000BF0FCFA064B186024B010BDF0130108A5
:1014E0007C2500247825002418230024B81E00241D
:1014F000580E00242DE9F0478CB00024079408947E
:1015000009940A940B94684BD3F8E02042F010023F
:10151000C3F8E020D3F8E02002F010020192019A13
:10152000D3F8E02042F00402C3F8E020D3F8E02032
:1015300002F004020292029AD3F8E02042F0800204
:10154000C3F8E020D3F8E02002F080020392039A6F
:10155000D3F8E02042F00102C3F8E020D3F8E02005
:1015600002F001020492049AD3F8E02042F0020251
:10157000C3F8E020D3F8E02002F002020592059AB9
:10158000D3F8E02042F00802C3F8E020D3F8E030BE
:1015900003F008030693069BDFF81C8101224EF23C
:1015A0002901404603F0D8FE404F22464FF4004147
:1015B000384603F0D1FE3E4E22464FF4406130469D
:1015C00003F0CAFE01224FF48051304603F0C4FEFE
:1015D000DFF8E89022464FF48061484603F0BCFEF5
:1015E0004FF4604307930125089509940A9407A9CD
:1015F000404603F0A7FD29230793089509944FF06F
:10160000030ACDF828A007A9404603F09BFD4FF43C
:10161000A05307934FF488130893099407A93846F9
:1016200003F090FD4FF40048CDF81C800895099414
:101630000A9407A9384603F085FD4FF440630793E9
:10164000089509940A9407A9304603F07BFD4FF4EE
:101650008053079308950995CDF828A007A930462F
:1016600003F070FD4FF480630793089509940A9482
:1016700007A9484603F066FD4FF4807307930223E1
:10168000089309940A940B940A4D07A9284603F07D
:1016900059FDCDF81C800894099407A9284603F049
:1016A00051FD0CB0BDE8F08700440258001002580C
:1016B000000402580000025800080258000C0258AA
:1016C00008B50268034B9A4200D008BD01F05EF9EC
:1016D000FBE700BF00E0004072B6FEE700B59DB03A
:1016E0004C22002109A80EF053F92022002101A864
:1016F0000EF04EF9022005F045F800230093264B2A
:101700009A6922F440429A619B6903F44043009332
:10171000009B214B9B6913F4005FFAD023230993AC
:101720004FF480330A9301220C9240230D930F92C1
:1017300002231293139314932821159116920422D5
:10174000179218930C23199300231A931B9309A83B
:1017500005F04AF8D8B93F230193032102910023F1
:101760000393082304934023059306934FF4806268
:101770000792089301A805F077FC50B94FF4802236
:101780000021084605F022FB1DB05DF804FBFFF7C1
:10179000A3FFFFF7A1FF00BF0048025808B501F002
:1017A000C7F8FFF79BFFFFF7A5FEFFF747FCFFF722
:1017B00057FB00F0CBFD00F021F900F081F900F0BB
:1017C0004FF900F07FFD00F037FE00F069FE00F0F9
:1017D0009DFE00F0FDFD00F0CFFEFFF74BFCFFF794
:1017E00079FCFFF7A9FC00F0B1FC00F01FFD00F050
:1017F00005F8FFF715FE0BF064F9FEE700B587B0BA
:1018000000230093019302930393049305931848D4
:10181000184A0260082242608360C3601721016198
:10182000012141618361C1610362032141624FF083
:1018300080418162C362036342638363C36303F0D5
:1018400035FE78B90123009302934FF001130393FF
:1018500041F288326946064803F0ACFE28B907B069
:101860005DF804FBFFF738FFECE7FFF735FFF6E71D
:101870008025002400A000522DE9F043BBB00446AF
:10188000002135913691379138913991B82206A8C7
:101890000EF07EF82268544B9A4202D03BB0BDE86D
:1018A000F0834FF000720023CDE9062306A805F06F
:1018B0009DFE002840F094804C4BD3F8D42042F495
:1018C0000012C3F8D420D3F8D42002F400120092FE
:1018D000009AD3F8D42042F40022C3F8D420D3F8DD
:1018E000D42002F400220192019AD3F8E02042F0C1
:1018F0000102C3F8E020D3F8E02002F001020292D6
:10190000029AD3F8E02042F00202C3F8E020D3F8B4
:10191000E02002F002020392039AD3F8E02042F0A2
:101920001002C3F8E020D3F8E02002F01002049285
:10193000049AD3F8E02042F00802C3F8E020D3F87C
:10194000E03003F008030593059B02243594369498
:10195000002637960325389509273997DFF89880B0
:1019600035A9404603F0EEFB0823359336943796AD
:1019700038950623399335A9404603F0E3FB01234C
:1019800035933694379638954FF00409CDF8E490A6
:1019900008F5806835A9404603F0D4FBCDF8D49013
:1019A000369437963895399735A9404603F0CAFBE7
:1019B0004FF40068CDF8D4803694379638950B23D1
:1019C000399335A90A4803F0BDFBCDF8D48036948D
:1019D00037963895399735A9064803F0B3FB5DE78C
:1019E000FFF77AFE68E700BF00A0005200440258EB
:1019F00000100258000C02580000025808B51648A2
:101A0000164B03604FF4800343604FF40033836050
:101A10000723C3604FF000730361002343614FF05D
:101A2000806282614FF08052C261036243628362CE
:101A3000C3624FF0804242638363C36303644364C1
:101A40008364C36403654365836507F08FF900B958
:101A500008BDFFF741FEFBE7EC2600240030014003
:101A600008B51548154B03604FF48003436000230D
:101A700083600722C2604FF0007202614FF08072F3
:101A800042614FF0806282614FF08042C261036226
:101A900043628362C36242638363C36303644364D8
:101AA0008364C36403654365836507F05FF900B928
:101AB00008BDFFF711FEFBE7642600240038004054
:101AC00008B51648164B03604FF4800343604FF48B
:101AD000003383600723C360002303614FF08072EB
:101AE00042614FF0806282614FF08052C2610362B6
:101AF00043628362C3624FF0804242638363C36385
:101B0000036443648364C36403654365836507F0CA
:101B10002DF900B908BDFFF7DFFDFBE7DC25002448
:101B200000140058F0B5BFB00446002139913A9135
:101B30003B913C913D91B8220AA80DF029FF236802
:101B4000784A934208D0784A934250D0774A9342D9
:101B500000F099803FB0F0BD4FF480520023CDE9F2
:101B60000A230AA805F042FD00283DD1704BD3F8A6
:101B7000F02042F48052C3F8F020D3F8F02002F4B1
:101B800080520192019AD3F8E02042F00802C3F893
:101B9000E020D3F8E02002F008020292029AD3F883
:101BA000E02042F00202C3F8E020D3F8E03003F076
:101BB00002030393039B8023399302273A9700265D
:101BC0003B9603253C9505243D9439A9594803F0DB
:101BD000B9FA082339933A973B963C953D9439A935
:101BE000554803F0AFFAB5E7FFF776FDBEE74FF4CF
:101BF00080520023CDE90A230AA805F0F7FC00284B
:101C00003ED14B4BD3F8E82042F48042C3F8E820A1
:101C1000D3F8E82002F480420492049AD3F8E0203A
:101C200042F00402C3F8E020D3F8E02002F00402FE
:101C30000592059AD3F8E02042F00202C3F8E020B2
:101C4000D3F8E03003F002030693069B0623399392
:101C500002273A9700263B9603253C9505243D94A0
:101C600039A9364803F06EFA4FF4005339933A9786
:101C70003B963C953D9439A92F4803F063FA69E7F8
:101C8000FFF72AFDBDE74FF480420023CDE90A2388
:101C90004FF0A04335930AA805F0A8FC00283ED1D8
:101CA000234BD3F8F42042F02002C3F8F420D3F8F9
:101CB000F42002F020020792079AD3F8E02042F0C5
:101CC0000102C3F8E020D3F8E02002F001020892FC
:101CD000089AD3F8E02042F00402C3F8E020D3F8D9
:101CE000E03003F004030993099B80233993022514
:101CF0003A9500243B943C9408233D9339A910481D
:101D000003F020FA4FF4805339933A953B943C9476
:101D100005233D9339A9094803F014FA1AE7FFF7A0
:101D2000DBFCBDE7003001400038004000140058E3
:101D300000440258000C02580004025800080258DF
:101D40000000025800B583B00A4BD3F8F42042F0EB
:101D50000202C3F8F420D3F8F43003F00203019335
:101D6000019B00220F216FF0010001F089FC03B0FC
:101D70005DF804FB004402580F2801D90120704788
:101D800010B58AB0044600220146A12001F078FC7B
:101D9000A12001F085FC174B1C60174BD3F8EC20F9
:101DA00042F08072C3F8EC20D3F8EC3003F080737B
:101DB0000093009B01A902A805F0E6FA05F0D2FA0B
:101DC00043000E4AA2FB03239B0C013B0C480D4A27
:101DD000026040F2E732C260436000230361836027
:101DE00007F0CAFD10B101200AB010BD044807F089
:101DF00019FCF9E70C0000240044025883DE1B4361
:101E00007427002400E00040FEE7FEE7FEE7FEE75F
:101E1000FEE7704708B5024802F022FA08BD00BF8D
:101E20007802002408B5024802F0FCFF08BD00BF9C
:101E3000A404002408B5024802F0F4FF08BD00BF66
:101E40000404002408B5024802F0ECFF08BD00BFFE
:101E5000A404002408B5024802F0E4FF08BD00BF56
:101E60000404002408B5024808F094F808BD00BF37
:101E7000AC2A002408B5024808F08CF808BD00BF61
:101E8000182A002408B5024808F084F808BD00BFED
:101E90008429002408B5024804F033F908BD00BFC6
:101EA0009881002408B5024808F074F808BD00BF06
:101EB000402B002408B5024808F06CF808BD00BFAC
:101EC000F028002408B5024802F0ACFF08BD00BFAE
:101ED0006403002408B5024802F0A4FF08BD00BF57
:101EE0006403002408B5024807F0F0FB08BD00BFFA
:101EF00074270024224AD2F8883043F47003C2F8D1
:101F00008830204B1B6803F00F03062B06D81D4AB0
:101F1000136823F00F0343F0070313601A4B1A688A
:101F200042F001021A6000221A611968174A0A4039
:101F30001A60144B1B6813F0080F06D0114A13687F
:101F400023F00F0343F0070313600F4B00229A6145
:101F5000DA611A620E4999620E49D9620E49196313
:101F60005A639963DA6319645A64196821F4802109
:101F700019601A66094B43F2D2021A60704700BF1B
:101F800000ED00E000200052004402587FEDF6EA28
:101F9000000202020000FF01800201010040005225
:101FA00084B00368224A934216D0B3F1804F22D006
:101FB000204A93422DD0204A93421AD11F4BD3F886
:101FC000E82042F04002C3F8E820D3F8E83003F0FC
:101FD00040030393039B0CE0184BD3F8F02042F02E
:101FE0000102C3F8F020D3F8F03003F001030093AE
:101FF000009B04B07047114BD3F8E82042F0010277
:10200000C3F8E820D3F8E83003F001030193019B03
:10201000EFE70A4BD3F8E82042F00202C3F8E820C9
:10202000D3F8E83003F002030293029BE1E700BF1C
:102030000000014000040040001800400044025825
:1020400000B58BB00023059306930793089309937B
:102050000368374A93420BD0B3F1804F21D0354A01
:10206000934236D0344A934249D00BB05DF804FB1A
:10207000324BD3F8E02042F01002C3F8E020D3F84E
:10208000E03003F010030193019B4FF408530593D4
:10209000022306930123099305A9294803F052F866
:1020A000E3E7264BD3F8E02042F00102C3F8E0203A
:1020B000D3F8E03003F001030293029B052305935C
:1020C000022306930123099305A91E4803F03AF859
:1020D000CBE71A4BD3F8E02042F00202C3F8E0202D
:1020E000D3F8E03003F002030393039B022305932C
:1020F0000693099305A9144803F024F8B5E70F4B9C
:10210000D3F8E02042F00202C3F8E020D3F8E03038
:1021100003F002030493049B4FF40043059302234E
:102120000693099305A9084803F00CF89DE700BF42
:102130000000014000040040001800400044025824
:1021400000100258000002580004025810B598B060
:1021500000241594169417940E940F9410941194CF
:102160001294139414943422214601A80DF010FC0B
:102170002C482D4B036018234360846042F2107397
:10218000C36004614461846107F026FC002839D1F2
:10219000002315931693179315A9224807F002FE02
:1021A000002832D160230E9341F288330F9300222E
:1021B000109211921292139214920EA9194807F0DC
:1021C00085FC28BB08220EA9164807F07FFC10BB2F
:1021D0000023019302930393049305934FF4005259
:1021E0000692079309934FF000720A920B930D9396
:1021F00001A90C4807F02EFE80B90A48FFF720FF1E
:1022000018B010BDFFF768FAC2E7FFF765FAC9E733
:10221000FFF762FAD6E7FFF75FFAD9E7FFF75CFA54
:10222000EBE700BFA42800240000014000B58BB0FC
:102230000023079308930993009301930293039358
:102240000493059306931E484FF0804202601822C3
:102250004260836042F21072C2600361836107F0E2
:10226000BBFB00BB00230793099307A9144807F0A1
:1022700099FDD8B96023009341F28833019300227D
:102280000292049269460E4807F020FC88B90822A1
:1022900069460B4807F01AFC70B90948FFF7D0FEF1
:1022A0000BB05DF804FBFFF717FADBE7FFF714FA52
:1022B000E0E7FFF711FAEAE7FFF70EFAEDE700BFF4
:1022C0005828002400B58BB0002307930893099386
:1022D0000093019302930393049305930693194883
:1022E000194A026017224260836042F20F72C26094
:1022F00003618023836107F06FFBC8B90023079354
:10230000099307A90F4807F04DFDA0B9602300937A
:1023100000230193029304930C226946094807F0B5
:10232000D5FB58B90748FFF78BFE0BB05DF804FBEF
:10233000FFF7D2F9E2E7FFF7CFF9E7E7FFF7CCF9CC
:10234000F0E700BF0C2800240004004000B58BB06B
:102350000023079308930993009301930293039337
:102360000493059306931848184A026017224260A6
:10237000836040F2CF72C2600361836107F02CFB7F
:10238000C8B900230793099307A90F4807F00AFD6E
:10239000A0B96023009300230193029304930422C5
:1023A0006946094807F092FB58B90748FFF748FE0D
:1023B0000BB05DF804FBFFF78FF9E2E7FFF78CF94C
:1023C000E7E7FFF789F9F0E7C0270024001800408D
:1023D00008B51748174B03604FF46123436000238F
:1023E0008360C36003610C2242618361C361036245
:1023F0004362836208F027FC70B900210C4808F0A2
:10240000DEFC60B900210A4808F0FEFC50B908481B
:1024100008F0B6FC48B908BDFFF75EF9EDE7FFF735
:102420005BF9EFE7FFF758F9F1E7FFF755F9F2E746
:10243000402B00240078004008B51748174B036074
:102440004FF46123436000238360C36003610C2267
:1024500042618361C36103624362836208F0F3FBFC
:1024600070B900210C4808F0AAFC60B900210A48A4
:1024700008F0CAFC50B9084808F082FC48B908BD09
:10248000FFF72AF9EDE7FFF727F9EFE7FFF724F960
:10249000F1E7FFF721F9F2E7AC2A00240010014030
:1024A00008B51848184B03604FF4612343600021BE
:1024B0008160C16001610C2343618161C16101627E
:1024C000416281620B460A4608F016FC70B9002191
:1024D0000C4808F074FC60B900210A4808F094FC2C
:1024E00050B9084808F04CFC48B908BDFFF7F4F8AB
:1024F000EDE7FFF7F1F8EFE7FFF7EEF8F1E7FFF7A9
:10250000EBF8F2E7182A00240044004008B5184808
:10251000184B03604FF46123436000218160C16068
:1025200001610C2343618161C16101624162816289
:102530000B460A4608F0E0FB70B900210C4808F091
:102540003EFC60B900210A4808F05EFC50B908481A
:1025500008F016FC48B908BDFFF7BEF8EDE7FFF735
:10256000BBF8EFE7FFF7B8F8F1E7FFF7B5F8F2E7E8
:10257000842900240048004008B51748174B036021
:102580004FF46123436000238360C36003610C2226
:1025900042618361C36103624362836208F053FB5B
:1025A00070B900210C4808F00AFC60B900210A4803
:1025B00008F02AFC50B9084808F0E2FB48B908BD09
:1025C000FFF78AF8EDE7FFF787F8EFE7FFF784F802
:1025D000F1E7FFF781F8F2E7F0280024001C014042
:1025E00070B5C0B0044600213B913C913D913E91B5
:1025F0003F91B8220CA80DF0CBF92368AD4A934265
:102600000FD0AD4A934247D0AC4A93427FD0AC4AF8
:10261000934200F0B680AB4A934200F0058140B08F
:1026200070BD02220023CDE90C230CA804F0DEFFCC
:1026300078BBA54BD3F8E82042F08042C3F8E820ED
:10264000D3F8E82002F080420192019AD3F8E0200A
:1026500042F01002C3F8E020D3F8E03003F010039A
:102660000293029B4FF4C0733B9302233C930024DC
:102670003D943E9407233F933BA9944802F062FDAA
:1026800022460521522000F0FBFF522001F008F8FD
:10269000C5E7FFF721F8CCE701220023CDE90C23A1
:1026A0000CA804F0A3FF78BB874BD3F8F02042F0CE
:1026B0001002C3F8F020D3F8F02002F010020392C9
:1026C000039AD3F8E02042F00102C3F8E020D3F8E7
:1026D000E03003F001030493049B4FF4C0633B9389
:1026E00002233C9300243D943E9407233F933BA94F
:1026F000774802F027FD22460521252000F0C0FF83
:10270000252000F0CDFF8AE7FEF7E6FFCCE70222A6
:102710000023CDE90C230CA804F068FF70BB6A4BC2
:10272000D3F8E82042F40032C3F8E820D3F8E820D8
:1027300002F400320592059AD3F8E02042F0080234
:10274000C3F8E020D3F8E03003F008030693069BBB
:1027500070233B9302233C9300243D943E94072333
:102760003F933BA95B4802F0EDFC22460521262061
:1027700000F086FF262000F093FF50E7FEF7ACFF45
:10278000CDE702220023CDE90C230CA804F02EFF94
:10279000002846D14C4BD3F8E82042F48022C3F8FD
:1027A000E820D3F8E82002F480220792079AD3F8B1
:1027B000E02042F00202C3F8E020D3F8E02002F06B
:1027C00002020892089AD3F8E02042F00802C3F807
:1027D000E020D3F8E03003F008030993099B4FF49D
:1027E00080433B9302263C9600243D943E9407256B
:1027F0003F953BA9384802F0A5FC4FF440733B934A
:102800003C963D943E943F953BA9324802F09AFC99
:1028100022460521272000F033FF272000F040FF4B
:10282000FDE6FEF759FFB5E701220023CDE90C23B1
:102830000CA804F0DBFE002839D1234BD3F8F0209C
:1028400042F08002C3F8F020D3F8F02002F08002BA
:102850000A920A9AD3F8E02042F01002C3F8E0206E
:10286000D3F8E03003F010030B930B9B04233B934E
:1028700002263C9600243D943E943F93134D3BA981
:10288000284602F05FFC08233B933C963D943E941F
:102890000B233F933BA9284602F054FC2246052116
:1028A0009C2000F0EDFE9C2000F0FAFEB7E6FEF75B
:1028B00013FFC2E7007800400010014000440040D0
:1028C00000480040001C014000440258001002581B
:1028D00000000258000C025800040258DFF834D0FF
:1028E000FFF708FB0C480D490D4A002302E0D458BD
:1028F000C4500433C4188C42F9D30A4A0A4C00234A
:1029000001E013600432A242FBD30DF099F8FEF708
:1029100045FF704700000524000000245C020024ED
:10292000E41701085C020024AC8D0024FEE70000DF
:1029300010B5032000F092FE04F09AFA0F498B695B
:10294000C3F303230E4AD35C03F01F03D8408B6903
:1029500003F00F03D35C03F01F0320FA03F3094ACB
:102960001360094B18600F20FFF706FA10B101241D
:10297000204610BD0446FFF7E5F9F9E70044025888
:10298000541501080000002404000024034B1B78A8
:10299000034A11680B441360704700BF080000240D
:1029A000D42B0024014B1868704700BFD42B00249F
:1029B00038B50446FFF7F6FF0546B4F1FF3F02D0F5
:1029C000044B1B781C44FFF7EDFF401BA042FAD3D9
:1029D00038BD00BF0800002410B400F1600C0D4C9D
:1029E000A0420CD05CF8210000F0004002F0F84258
:1029F000134303434CF821305DF8044B70475CF8F7
:102A0000210002F0F842134343F000434CF8213018
:102A1000F2E700BF0060025800F1600C094B9842D9
:102A200007D05CF8213023F000431A434CF82120F2
:102A300070475CF8213023F0004313434CF82130F9
:102A4000704700BF0060025810B430300B0A9B0082
:102A500003F00C03C45801F01F014FF01F0C0CFAD7
:102A600001FC24EA0C0CC2F384628A404CEA0202A4
:102A7000C2505DF8044B704710B414304B0E9B00ED
:102A800003F00403C458C1F304514FF0070C0CFACF
:102A900001FC24EA0C0C8A404CEA0202C2505DF8A8
:102AA000044B7047134B984211D0D0F8C030C1F39B
:102AB000130C23EA0C0C02F018020F4BD340194000
:102AC000C1F313014CEA0101C0F8C0107047D0F8FF
:102AD000B030C1F3130C23EA0C0C02F01802064BC1
:102AE000D3400B40C3F313034CEA0303C0F8B030E8
:102AF000704700BF00600258FFFF0F0070B582B042
:102B00000023019390F85C30012B00F0A88204466A
:102B10000D46012380F85C3001688B6813F0040FC8
:102B200009D0036E43F0200303660120002384F8DC
:102B30005C3002B070BD2B68002B0CDBA74A9142C1
:102B400009D0C3F3130272BBC3F3846301229A401A
:102B5000CB691343CB612A6869682068FFF774FF6B
:102B60002068836813F0040300D00123826812F008
:102B7000080200D0012252EA030620D020688368B0
:102B800013F0010F40F06782EA682968FFF78AFFB7
:102B9000EA68934B9A4200F036812B68002BC0F212
:102BA000E1810020C2E793FAA3F333B1B3FA83F3D0
:102BB00003F01F0301229A40CAE72023F8E7AA681E
:102BC0002968FFF759FF2068844B984211D0854B44
:102BD0001B6803F07043B3F1805F3DD0C36813F00E
:102BE000100F40D16B69C268C2F382025200934059
:102BF00005E06B69C268C2F3C102520093402969C3
:102C0000042938D1754B98427FD0036E03F0F84306
:102C10002A68B3EB826F00F0E7802268536E03F0FE
:102C2000F8432968B3EB816F00F0E3802268936E6C
:102C300003F0F8432968B3EB816F00F0DF8022686E
:102C4000D36E03F0F8432968B3EB816F96D1D36E4E
:102C500023F00043D36691E76B69C268C2F3820236
:102C600052009340CBE76B69C268920802F00402FD
:102C700052009340C3E72A68FFF7AEFE2368574A25
:102C800093421CD0286995F82120012A37D031467B
:102C9000603353F8202022F000420A4343F82020FA
:102CA00021682A692B7E012B2CD00B6923F4F04379
:102CB00002F01F0206FA02F213430B615EE7286975
:102CC000EA69603353F8201021F080710A4343F819
:102CD00020202368296995F82020012A0CD03F4A3A
:102CE00093427FF44BAF603353F8212022F00072FF
:102CF000324343F8212041E74FF00076EFE74FF0F1
:102D00000041C5E74FF40066CFE7036E026EC2F3E1
:102D100084622B68C3F3130181BBC3F384639A42BB
:102D200034D02068436E426EC2F384622B68C3F3D2
:102D3000130181BBC3F384639A4234D02068836E4D
:102D4000826EC2F384622B68C3F3130181BBC3F3A9
:102D500084639A4234D02068C36EC26EC2F3846228
:102D60002B68C3F3130181BBC3F384639A427FF4DE
:102D700005AF00220321FFF74FFEFFE693FAA3F30E
:102D800013B1B3FA83F3CAE72023C8E70022114640
:102D9000FFF742FEC5E793FAA3F313B1B3FA83F347
:102DA000CAE72023C8E700220121FFF735FEC5E767
:102DB00093FAA3F313B1B3FA83F3CAE72023C8E766
:102DC00000220221FFF728FEC5E793FAA3F313B10F
:102DD000B3FA83F3CAE72023C8E700BF00600258B4
:102DE0000000FF470010005C036E23F00043036601
:102DF00013E7536E23F00043536617E7936E23F0F7
:102E0000004393661BE720682B68C3F313063EBBA1
:102E10009A0E013202F01F02092A8CBF0022012201
:102E2000002A55D05EBB990E0131890601F0F841A8
:102E30008EBB4FEA936C0CF1010C0CF01F0C0122BD
:102E400002FA0CF21143AEBB9B0E013303F01F03D9
:102E500003EB43031B051943AA68FFF70DFE9CE62D
:102E600093FAA3F24AB1B2FA82F2013202F01F02DF
:102E7000092A8CBF00220122D2E72022F5E793FA2B
:102E8000A3F131B1B1FA81F10131890601F0F841C4
:102E9000CEE72021F8E793FAA3F24AB1B2FA82F220
:102EA000013202F01F024FF0010C0CFA02F2C9E7E6
:102EB0002022F5E793FAA3F343B1B3FA83F3013386
:102EC00003F01F0303EB43031B05C4E72023F6E7CE
:102ED000E6B9990E0131890601F0F84116BB4FEAB7
:102EE000936C0CF1010C0CF01F0C012202FA0CF295
:102EF000114336BB9B0E013303F01F0303EB430367
:102F00001E3B1B0543F000731943A5E793FAA3F199
:102F100031B1B1FA81F10131890601F0F841DDE703
:102F20002021F8E793FAA3F24AB1B2FA82F2013211
:102F300002F01F024FF0010C0CFA02F2D8E7202237
:102F4000F5E793FAA3F35BB1B3FA83F3013303F02C
:102F50001F0303EB43031E3B1B0543F00073D3E742
:102F60002023F3E722683F493F48824218BF8A4244
:102F70000CBF0121002118D13C4EB56805F0E07C62
:102F8000A9B13849886810F0010000D00120364905
:102F9000896811F0010100D0012101430CD0236E9A
:102FA00043F0200323660120C0E5314EE5E73149B7
:102FB000896811F0010FF2D12F498B4207D02F49B8
:102FC0008B4226D02E498B4234D00020AEE515F43A
:102FD000000FF4D1274B9A4201D00020A6E54CF413
:102FE0000003B26822F0E0721343B360254B1B6804
:102FF0009B09254AA2FB03239B0901335B00019334
:1030000002E0019B013B0193019B002BF9D10020C1
:103010008CE515F0807FD5D1164B9A4201D0002067
:1030200084E54CF08073B26822F0E0721343B36021
:1030300000207BE515F4800F0FD10E4B9A4201D092
:10304000002073E54CF48003B26822F0E072134371
:10305000B36000206AE5002068E5002066E50220F4
:1030600067E500BF0020024000210240002302402B
:103070000063025800600258000052C7000021C3DC
:10308000000084CB04000024632D3E0510B50446E7
:1030900003684349434A934218BF8B421FD1424BB6
:1030A0009B6813F4403F14BF012300230BB304F0CB
:1030B00025F96368B3F5003F05D0B3F5403F16D05E
:1030C000B3F5803F02D11B0CB0FBF3F0374B9842B5
:1030D00049D82268936823F44073936010BD344B41
:1030E0009B6813F4403F14BF01230023DEE78008F0
:1030F000ECE74FF40020002105F0A0FA6368B3F577
:10310000101F2CD021D8B3F5E01F26D004D9B3F579
:10311000001FDBD14009D9E7B3F5801F10D009D8D3
:10312000B3F5002F0CD0B3F5402F09D0B3F5802FA5
:1031300006D0CBE7B3F5A01F02D0B3F5C01FC5D1B1
:103140009B0C5B00B0FBF3F0C0E7B3F5201F08D089
:10315000B3F5301FBAD1000AB8E70009B6E7800915
:10316000B4E7C009B2E7134B984207D822689368C6
:1031700023F4407343F480739360AFE70E4B98429F
:1031800007D82268936823F4407343F40073936074
:10319000A4E72268936843F4407393609EE700BFFE
:1031A00000200240002102400023024021BCBE005A
:1031B0000063025841787D0181F0FA0230B583B096
:1031C00000230193002800F043810446036EEBB115
:1031D00023689A6812F0005F03D099689D4A0A40FC
:1031E0009A6023689A6812F0805F1CD199689A4AA5
:1031F0000A4042F080529A60984B1B689B09984A9B
:10320000A2FB03239B090133019309E0FDF78AFE2A
:103210000023636684F85C30DAE7019B013B01938D
:10322000019B002BF9D123689A6812F0805F40F06F
:103230009F80226E42F010022266626E42F001020E
:10324000626601259A6812F0040200D00122216E04
:1032500011F0100F40F0F480002A40F0F180216E50
:1032600021F4817141F002012166996811F0010F8A
:103270001ED17C487C498B4218BF83420CBF01237E
:10328000002377D1806810F0010000D0012076493A
:10329000896811F0010100D00121014308D1002B00
:1032A0006ED072486368816821F47C110B4383609F
:1032B00021686F4B994265D0627EE36B43EA4233EB
:1032C000A268134394F8202043EA024394F8202094
:1032D000012A6FD0A26A22B102F47872E06A024336
:1032E0001343634A91426AD0C868624A02401A4353
:1032F000CA6021688A6812F0040200D001228B683B
:1033000013F0080300D00123134322D1584B9942F4
:1033100062D0237E226B42EA8332C868564B034058
:103320001343CB6094F84430012B5CD022681369BE
:1033300023F0010313612268136923F07043216CA9
:103340000B43136122684A4B9A4202D02046FFF792
:103350009DFE2369012B6AD02268136B23F00F03B3
:103360001363236E23F0030343F0010323666CE031
:10337000002567E73E49896811F0010F98D18EE773
:103380003E488FE7607EE36B43EA4033E0680343E7
:10339000A068182804D01C2808D00C2808D10820C0
:1033A000034394F8202043EA02438FE71020F7E715
:1033B0001046F5E7626A013A43EA42438AE7C86881
:1033C0002F4A02401A43CA602268136923F04063FF
:1033D000616B0B4313618CE7237E94F83820520015
:1033E00042EA833299E72168214B994210D00A6959
:1033F000244B1340A26C501EE26C42EA0042206D46
:103400000243606D0243134343F001030B6192E7F3
:103410000A691D4B1340A26CE06C0243206D02430D
:10342000606D0243134343F001030B6183E721689E
:103430000B6B23F00F03E269013A13430B6390E730
:10344000236E43F0100323660125284603B030BDE8
:103450000125FAE7C0FFFF5FC0FFFF6F04000024F3
:10346000632D3E050020024000210240002302405F
:103470000060025803C0F0FFFCBFFFFF006302586A
:103480000740F0FF1EF800FC1FF800FC90F85C20DD
:10349000012A00F0968030B49CB00346012280F8E7
:1034A0005C200022189219920068474A904236D058
:1034B00000220092009A002A35D0926812F004028D
:1034C00000D00122846814F0040F6BD1002A69D166
:1034D0003D4C3E4A904218BFA0422DD102F50072E9
:1034E0000868002839D0906820F440404C68204398
:1034F00090601868344D354CA04218BFA8421DD1C9
:10350000AC6814F0010400D001243048806810F049
:10351000010000D00120204315D0002047E002F533
:1035200080720092C6E71A6E42F020021A660022EC
:1035300083F85C2001203DE0254AD1E725488068DA
:1035400010F0010F39D19468234820400C68896835
:10355000214308439060002029E0916821F4404114
:1035600091601968184C1948814218BFA1420ED1C8
:10357000A06810F0010000D001201449896811F002
:10358000010100D00121014306D000200FE01149C4
:10359000896811F0010F12D190680F4901409160C4
:1035A000002004E01A6E42F020021A660120002278
:1035B00083F85C201CB030BC70470020F7E7002087
:1035C000F5E70220704700BF0020024000210240C2
:1035D0000063025800600258E0F0FFFF002807DB9C
:1035E00000F01F02400901239340024A42F82030B4
:1035F000704700BF00E100E0002804DB0901C9B208
:10360000044B1954704700F00F000901C9B2024B76
:103610001954704700E400E014ED00E000B500F03C
:103620000700C0F1070CBCF1040F28BF4FF0040CD9
:10363000031D062B0FD9C31E4FF0FF3E0EFA0CF0F0
:1036400021EA000199400EFA03FE22EA0E0241EA45
:1036500002005DF804FB0023EEE700000649CB689A
:1036600023F4E0631B041B0C000200F4E06003433E
:10367000024A1A43CA60704700ED00E00000FA05F4
:1036800010B50446054BD868C0F30220FFF7C6FF0B
:1036900001462046FFF7B0FF10BD00BF00ED00E07F
:1036A00008B5FFF79BFF08BD03682749274A9342E7
:1036B00018BF8B422FD0183293422CD0183293422D
:1036C00029D01832934226D01832934223D0183290
:1036D000934220D0183293421DD002F55672934285
:1036E00019D01832934216D01832934213D01832A0
:1036F000934210D0183293420DD0183293420AD020
:103700001832934207D01832934204D023F0FF03BB
:103710008365806D704710B4D9B210390C4AA2FB92
:103720000142C2F302120B4CA25CC2655F2907D9A9
:103730006FF3090304338365806D5DF8044B7047B4
:103740006FF309038365F7E7100002402800024089
:10375000ABAAAAAA6415010883699BB9836A012BE5
:103760000AD0022B02D00BB100207047C36A13F0BD
:10377000807F2AD100207047C36AB3F1C07F26D072
:1037800000207047B3F5005F0AD0836A022B26D968
:10379000032B26D1C36A13F0807F24D10020704709
:1037A000836A032B03D8DFE803F01404140A002013
:1037B0007047C36A13F0807F0DD100207047C36A41
:1037C000B3F1C07F09D0002070470120704701206D
:1037D0007047012070470120704701207047012089
:1037E000704700207047012070470000036821499E
:1037F000214A934218BF8B4227D01432934224D0DF
:103800001432934221D0143293421ED01432934288
:103810001BD01432934218D01432934215D0DAB22E
:10382000103A1649A1FB0212120915491944A82998
:103830001ED9144B13449B000366134B436602F0DE
:103840001F020123934083667047DBB2083B0F4A97
:10385000A2FB03230E4A02EB1312920002660D4AEA
:103860004266C3F30413012202FA03F3836670472E
:103870000832DEE7085402581C540258ABAAAAAA20
:10388000F0FBFDBF0082001080080240CDCCCCCC04
:10389000009600168058025801794A1E072A2BD834
:1038A00030B40368154D164CA34218BFAB4218D074
:1038B0001434A34215D01434A34212D01434A342BA
:1038C0000FD01434A3420CD01434A34209D01434C2
:1038D000A34206D00B4B0B449B00C3660A4B036705
:1038E00005E00A4B0B449B00C366094B03670123A9
:1038F0009340436730BC7047704700BF085402587C
:103900001C5402583F820010400902403F960016A6
:103910004059025870B50446FFF744F8002C00F0F7
:10392000B781054623685349534A934218BF8B42D7
:103930000CBF0121002150D0183293424DD01832D3
:1039400093424AD01832934247D01832934244D01F
:103950001832934241D0183293423ED002F556724B
:1039600093423AD01832934237D01832934234D02F
:103970001832934231D0183293422ED018329342EB
:103980002BD01832934228D01832934225D03B498D
:103990003B4A934218BF8B4200F03281394A93422E
:1039A00000F02E811432934200F02A8114329342A7
:1039B00000F026811432934200F0228114329342A7
:1039C00000F01E811432934200F01A814023636597
:1039D000032384F8353001204AE0022284F83520A0
:1039E000002284F8342079BB274A93422CD0183225
:1039F000934229D01832934226D01832934223D0D2
:103A00001832934220D0183293421DD002F55672DC
:103A1000934219D01832934216D01832934213D0E1
:103A20001832934210D0183293420DD0183293427C
:103A30000AD01832934207D01832934204D01A6841
:103A400022F001021A6003E01A6822F001021A60F3
:103A500023681A6812F0010F18D0FEF7A3FF431B6A
:103A6000052BF5D920236365032384F83530012025
:103A700070BD00BF100002402800024008540258E8
:103A80001C54025830540258400002401A688149C0
:103A90001140A268E0680243206902436069024362
:103AA000A0690243E0690243206A02430A43616A53
:103AB000042900F090806168522900F296803F2925
:103AC000C0F08E803F39744820FA01F111F0010FE7
:103AD00001D042F480121A602668756925F0070546
:103AE000636A1D43042B08D1A36A1D43E36A23B113
:103AF0002046FFF731FE00287CD175612046FFF794
:103B0000D3FDE36D03F01F023F23934083602368DE
:103B10006249634A934218BF8B4242D018329342A3
:103B20003FD0183293423CD01832934239D01832E9
:103B3000934236D01832934233D01832934230D069
:103B400002F5567293422CD01832934229D0183283
:103B5000934226D01832934223D01832934220D079
:103B6000183293421DD0183293421AD01832934221
:103B700017D04C4A934214D01432934211D01432CD
:103B800093420ED0143293420BD01432934208D099
:103B90001432934205D01432934202D0143293422D
:103BA00013D12046FFF722FEA368802B63D0236E3B
:103BB00022791A60636EA26E5A606368013B072B1C
:103BC0005CD90023E36623676367002060650123F7
:103BD00084F835304CE7E16A206B01430A436AE719
:103BE000293905293FF677AF73E7743903293FF682
:103BF00072AF6EE740236365012084F8350037E734
:103C0000022284F83520002284F8342019686FF3EA
:103C10001011A268402A2CD0802A27D00022E06808
:103C200042EAD002206942EAD002606942EAD00248
:103C3000A06942EAD002E06942EAD002206A42EA80
:103C400010120A431A602268174B1344174AA2FB4A
:103C500003231B099B00E3652046FFF725FDE26D6A
:103C600002F01F0101228A40426050E74FF4804277
:103C7000D5E71022D3E70023636098E72046FFF7DB
:103C80000BFEE36E00221A60236F626F5A609CE79E
:103C90000120EDE63F8010FE0F030F0010000240F0
:103CA0002800024008540258F8ABFDA7CDCCCCCC7C
:103CB00070B50446FEF776FE002C00F091810546B3
:103CC00094F83530DBB2022B06D0802363650023E5
:103CD00084F83430012070BD23688C498C4A9342AB
:103CE00018BF8B4230D0183293422DD018329342F5
:103CF0002AD01832934227D01832934224D0183257
:103D0000934221D0183293421ED002F5567293424C
:103D10001AD01832934217D01832934214D0183266
:103D2000934211D0183293420ED0183293420BD0E6
:103D30001832934208D01832934205D01A6822F004
:103D40000E021A60266809E01A6822F01E021A6044
:103D50002268536923F080035361266823686B4906
:103D60006B4A934218BF8B4242D0183293423FD0E5
:103D7000183293423CD01832934239D018329342D1
:103D800036D01832934233D01832934230D002F5F5
:103D9000567293422CD01832934229D01832934253
:103DA00026D01832934223D01832934220D01832B2
:103DB00093421DD0183293421AD01832934217D032
:103DC000544A934214D01432934211D01432934285
:103DD0000ED0143293420BD01432934208D01432D6
:103DE000934205D01432934202D01432934204D14C
:103DF000226E136823F48073136023684349444A96
:103E0000934218BF8B422FD0183293422CD01832D5
:103E1000934229D01832934226D01832934223D0AD
:103E20001832934220D0183293421DD002F55672B8
:103E3000934219D01832934216D01832934213D0BD
:103E40001832934210D0183293420DD01832934258
:103E50000AD01832934207D01832934204D01A681D
:103E600022F001021A6003E01A6822F001021A60CF
:103E7000336813F0010F0ED0FEF794FD431B052BA2
:103E8000F6D920236365032384F83530002384F8B2
:103E9000343001201FE723681C491D4A934218BF94
:103EA0008B4239D01832934236D01832934233D0F5
:103EB0001832934230D0183293422DD018329342A8
:103EC0002AD01832934227D002F55672934223D05B
:103ED0001832934220D0183293421DD018329342A8
:103EE0001AD01832934217D01832934214D0183295
:103EF000934211D0183293420ED0A16DE36D03F0BE
:103F00001F02012393404B600DE000BF10000240F0
:103F10002800024008540258A16DE36D03F01F020F
:103F20003F2393408B6023682E492F4A934218BF4A
:103F30008B4242D0183293423FD0183293423CD049
:103F40001832934239D01832934236D01832934205
:103F500033D01832934230D002F5567293422CD0AF
:103F60001832934229D01832934226D01832934205
:103F700023D01832934220D0183293421DD01832E9
:103F800093421AD01832934217D0184A934214D051
:103F90001432934211D0143293420ED01432934211
:103FA0000BD01432934208D01432934205D014320D
:103FB000934202D0143293420BD1636EA26E5A60C8
:103FC000E36E33B11A6822F480721A60236F626F55
:103FD0005A60012384F83530002084F834007AE6F2
:103FE000012078E6100002402800024008540258E0
:103FF000002800F0288108B5024690F83530DBB281
:10400000022B03D080234365012008BD036890483C
:1040100090498B4218BF83420CBF0120002065D01D
:1040200018318B4262D018318B425FD018318B42ED
:104030005CD018318B4259D018318B4256D0183190
:104040008B4253D001F556718B424FD018318B42C1
:104050004CD018318B4249D018318B4246D01831A0
:104060008B4243D018318B4240D018318B423DD027
:1040700018318B423AD0196821F00E01196013688B
:10408000734874498B4218BF83426AD072498B428D
:1040900067D018318B4264D018318B4261D018310F
:1040A0008B425ED018318B425BD018318B4258D096
:1040B00001F556718B4254D018318B4251D01831D2
:1040C0008B424ED018318B424BD018318B4248D0A6
:1040D00018318B4245D018318B4242D018318B4277
:1040E0003FD0196821F0010119603EE0042182F8F7
:1040F000351080BB584A93422DD0183293422AD0B3
:104100001832934227D01832934224D01832934267
:1041100021D0183293421ED002F5567293421AD023
:104120001832934217D01832934214D01832934267
:1041300011D0183293420ED0183293420BD018325D
:10414000934208D01832934205D01A6822F0010237
:104150001A60002059E71A6822F001021A60002054
:1041600053E7196821F0010119601368384839498B
:104170008B4218BF834242D018318B423FD0183156
:104180008B423CD018318B4239D018318B4236D01B
:1041900018318B4233D018318B4230D001F5567133
:1041A0008B422CD018318B4229D018318B4226D02B
:1041B00018318B4223D018318B4220D018318B42DA
:1041C0001DD018318B421AD018318B4217D0234999
:1041D0008B4214D014318B4211D014318B420ED04B
:1041E00014318B420BD014318B4208D014318B42E6
:1041F00005D014318B4202D014318B4217D1116E8D
:104200000B6823F480730B60906DD36D03F01F0176
:1042100001238B404360536E916E5960D36E33B16E
:10422000196821F480711960136F516F596001236F
:1042300082F83530002382F83430136D2BB11046EC
:1042400098470020E1E6012070470020DDE600BF2E
:10425000100002402800024040000240085402586A
:10426000F0B583B00446002301937D4B1D687D4B60
:10427000A3FB0535AD0A876D3E68D7F800C003681B
:1042800079497A48834218BF8B420CBF0120002035
:1042900061D0774A93425ED0183293425BD0183295
:1042A000934258D01832934255D01832934252D08C
:1042B000183293424FD002F5567293424BD01832C7
:1042C000934248D01832934245D01832934242D09C
:1042D000183293423FD0183293423CD01832934266
:1042E00039D01832934236D06249634A934218BF9C
:1042F0008B4212D0614A93420FD0143293420CD0B9
:104300001432934209D01432934206D014329342AD
:1043100003D01432934240F061821A68E16D01F0DB
:104320001F010420884010EA0C0F00F0A78212F051
:10433000040F00F0A382786012F4004F00F05A825C
:1043400012F4803F40F05082A36C002B00F04682B4
:104350002046984742E2E26D02F01F0108228A409F
:10436000324241D070BB424A93422BD01832934222
:1043700028D01832934225D01832934222D01832D6
:1043800093421FD0183293421CD002F556729342CA
:1043900018D01832934215D01832934212D01832E6
:1043A00093420FD0183293420CD01832934209D066
:1043B0001832934206D01832934203D01A68C2F3DF
:1043C000C00202E01A68C2F380026AB11A6822F0E1
:1043D00004021A60E36D03F01F0208239340BB60E0
:1043E000636D43F001036365E26D02F01F0226FA7C
:1043F00002F313F0010F47D023681B481B498B427F
:1044000018BF83423CD018318B4239D018318B42CF
:1044100036D018318B4233D018318B4230D018311E
:104420008B422DD018318B422AD001F556718B4228
:1044300026D018318B4223D018318B4220D018312E
:104440008B421DD018318B421AD018318B4217D0B5
:1044500018318B4214D018318B4211D01B6813E0F5
:1044600004000024B5814E1B1000024028000240C9
:1044700040000240085402581C540258305402585C
:104480005B6913F0800F3BD1E36D03F01F0304223F
:1044900002FA03F333423FD02268964896498A4293
:1044A00018BF824234D018318A4231D018318A4242
:1044B0002ED018318A422BD018318A4228D0183198
:1044C0008A4225D018318A4222D001F556718A429B
:1044D0001ED018318A421BD018318A4218D01831A8
:1044E0008A4215D018318A4212D018318A420FD030
:1044F00018318A420CD018318A4209D013680BE077
:1045000001239340BB60636D43F002036365BBE727
:10451000126812F0020F3DD1E36D03F01F03102269
:1045200002FA03F333425FD02268724872498A422A
:1045300018BF824234D018318A4231D018318A42B1
:104540002ED018318A422BD018318A4228D0183107
:104550008A4225D018318A4222D001F556718A420A
:104560001ED018318A421BD018318A4218D0183117
:104570008A4215D018318A4212D018318A420FD09F
:1045800018318A420CD018318A4209D01268C2F31D
:10459000800208E0BB60636D43F004036365BBE722
:1045A0001268C2F3C002FAB1BB6023681A6812F441
:1045B000802F0DD01B6813F4002F04D1236C9BB106
:1045C0002046984710E0A36C73B1204698470BE053
:1045D0001A6812F4807F03D11A6822F008021A6068
:1045E000236C0BB120469847E36D03F01F03202294
:1045F00002FA03F3334200F0938022683D483E49BB
:104600008A4218BF82422ED018318A422BD01831EC
:104610008A4228D018318A4225D018318A4222D0C5
:1046200018318A421FD018318A421CD001F55671C8
:104630008A4218D018318A4215D018318A4212D0D5
:1046400018318A420FD018318A420CD018318A4270
:1046500009D018318A4206D018318A4203D0126834
:10466000C2F3400202E01268C2F30012002A57D0DF
:10467000BB6094F83530DBB2042B0ED023681A6887
:1046800012F4802F3AD01B6813F4002F2DD1636CE5
:10469000002B45D02046984742E02268136823F05B
:1046A000160313602268536923F080035361236C5F
:1046B000BBB12268136823F008031360E36D03F0B5
:1046C0001F023F239340BB60012384F83530002351
:1046D00084F83430236D002B00F08080204698470A
:1046E0007CE0A36C002BE4D1E8E7E36BC3B1204688
:1046F000984715E010000240280002401A6812F4A2
:10470000807F09D11A6822F010021A60012384F810
:104710003530002384F83430E36B0BB120469847E2
:10472000636D002B5AD0636D13F0010F52D0042338
:1047300084F8353023689649964A934218BF8B42D5
:104740002FD0183293422CD01832934229D01832ED
:10475000934226D01832934223D01832934220D06D
:10476000183293421DD002F55672934219D0183276
:10477000934216D01832934213D01832934210D07D
:10478000183293420DD0183293420AD01832934215
:1047900007D01832934204D01A6822F001021A603E
:1047A00003E01A6822F001021A60019B01330193B1
:1047B000AB4204D823681B6813F0010FF5D12368BE
:1047C0001B6813F0010F0BD0032384F8353000234E
:1047D00084F83430E36C0BB12046984703B0F0BD49
:1047E000012384F83530F2E7236C002BF6D0204605
:1047F0009847F3E712F0200F3AD123686449654ADD
:10480000934218BF8B422FD0183293422CD01832CB
:10481000934229D01832934226D01832934223D0A3
:104820001832934220D0183293421DD002F55672AE
:10483000934219D01832934216D01832934213D0B3
:104840001832934210D0183293420DD0183293424E
:104850000AD01832934207D01832934204D01A6813
:1048600022F004021A6003E01A6822F008021A60BB
:10487000236C002BB2D020469847AFE70220884037
:1048800010EA0C0F60D012F0020F5DD0786012F4C5
:10489000004F0ED012F4803F05D1636C002B9DD0E9
:1048A000204698479AE7E36B002B97D0204698471D
:1048B00094E712F0200F40D123683549354A9342DE
:1048C00018BF8B422FD0183293422CD0183293420B
:1048D00029D01832934226D01832934223D018326E
:1048E000934220D0183293421DD002F55672934263
:1048F00019D01832934216D01832934213D018327E
:10490000934210D0183293420DD0183293420AD0FD
:104910001832934207D01832934204D01A6822F01A
:104920000A021A6003E01A6822F014021A600123D6
:1049300084F83530002384F83430E36B002B3FF4E7
:104940004DAF2046984749E7082000FA01F111EAE7
:104950000C0F3FF443AF12F0080F3FF43FAF1A685B
:1049600022F00E021A60E36D03F01F03012202FA27
:1049700003F37B60626584F83520002384F83430CB
:10498000E36C002B3FF42AAF2046984726E700BF90
:10499000100002402800024030B4416B0468D4F893
:1049A00084306F4A134043EA8103C4F884300468BA
:1049B000D4F8843023F47F03856B43EA0543C4F8BD
:1049C0008430836B0B440468D4F88810114041EAAA
:1049D0008301C4F888100468D4F8881021F4FE011B
:1049E000C56B41EA0541C4F88810C16B03EB410374
:1049F0000468D4F8A010114041EA8301C4F8A01063
:104A00000468D4F8A01021F4FE01056C41EA0541C8
:104A1000C4F8A010016C446C04FB01330468D4F8A2
:104A2000B010114041EA8301C4F8B0100468D4F812
:104A3000B01021F4FE01856C41EA0541C4F8B010C4
:104A4000816CC46C04FB01330468D4F8AC101140D1
:104A500041EA8301C4F8AC10016D446D04FB0133DD
:104A60000468D4F8F010114041EA8301C4F8F01052
:104A70000468D4F8F01021F47C11856D41EA0541F9
:104A8000C4F8F010816D03EB41030468D4F8C01042
:104A90000A4042EA8303C4F8C0300268D2F8C0304A
:104AA00023F47C13C16D43EA0143C2F8C0300268AD
:104AB000D2F8C03023F07C53016E43EA0163C2F8A0
:104AC000C030436B274A1A449200C266836B02EBE4
:104AD00083030367C16B03EBC1034367016C446C41
:104AE00004FB01F103EB81038367816CC46C04FB5D
:104AF00001F103EB8103C367016D446D04FB01F118
:104B000003EB8103C0F88030816D03EBC103C0F873
:104B10008430816EC46D01FB04FC03EB8C03C0F890
:104B20008830046E04FB01F103EB8103C0F8903080
:104B30000D498B420DD9D0F89C3043F02003C0F8CA
:104B40009C30032380F89830012007E0002342F8CE
:104B5000043BD0F890309342F8D8002030BC704726
:104B60000300FFFF002B0010FCD3004030B595B0D0
:104B700004464C22A04901A8FBF7E2FF002C00F0FC
:104B8000388123689D4A934220D094F898300BB323
:104B90002268936923F010039361FDF703FF054634
:104BA00023689A6912F0080F1AD0FDF7FBFE431B29
:104BB0000A2BF5D9D4F89C3043F00103C4F89C309B
:104BC000032384F89830012015B030BD03F58073BD
:104BD0006360DAE784F899302046FCF7DFFAD7E71C
:104BE0009A6942F001029A61FDF7DCFE05462368EE
:104BF0009A6912F0010F0FD1FDF7D4FE401B0A286D
:104C0000F5D9D4F89C3043F00103C4F89C30032359
:104C100084F898300120D7E79A6942F002029A613D
:104C2000237C012B40D02268936943F040039361B9
:104C3000637C012B3ED02268936923F48043936107
:104C4000A37C012B3CD02268936943F48053936189
:104C50002268936923F44073A1680B43936122682F
:104C6000936923F0A40393612268136923F010036E
:104C70001361E368012B29D0002B2CD0022B00F00C
:104C80009B802268936943F08003936122681369D3
:104C900043F010031361E368032B1CD1226893696E
:104CA00043F02003936116E02268936923F04003E8
:104CB0009361BDE72268936943F480439361BFE742
:104CC0002268936923F480539361C1E72268936952
:104CD00043F004039361A3695A1EE369013B1B027D
:104CE00043EA4263226A013A13436269013A216846
:104CF00043EA0243CB61A368B3F5407F62D0236EE1
:104D000033B12268D2F8C030616E0B43C2F8C030B4
:104D1000E36D226ED3420DD02168D1F8C83023F064
:104D20000703A26E14A800EB820252F84C2C134326
:104D3000C1F8C830236C6BB12168D1F8BC3023F0C6
:104D40000703626C14A800EB820252F84C2C134348
:104D5000C1F8BC30A36C73B12168D1F8BC3023F02A
:104D60007003E26C14A800EB820252F84C2C43EA68
:104D70000213C1F8BC30236D73B12168D1F8BC3087
:104D800023F4E063626D14A800EB820252F84C2C0D
:104D900043EA0223C1F8BC302268184B9A4222D061
:104DA0000023C4F89430C4F89C30012384F8983070
:104DB0002046FFF7F1FD07E72268936943F02003DF
:104DC000936188E7A36A013BE26A013A43EA02235E
:104DD000226B013A43EA0213626A013A216843EA0C
:104DE0000243CB608BE76268936823F00303936010
:104DF000D6E70120E8E600BF7C14010800A00040CF
:104E000070477047704770477047704770477047EA
:104E100070477047704770477047704770477047DA
:104E2000704700002DE9F04F83B00446904B1A699B
:104E30005B69134001939B07009303681A6D02F4AA
:104E4000704A5A6D0AEA020A1A6D02F00F095A6D89
:104E500009EA02091A6D02F0F0085A6D08EA020820
:104E60001E6D06F071565A6D16401F6D07F0607783
:104E70005A6D17405D6DD3F850B015F4807F02D0A5
:104E80001BF4807F64D115F4806F02D01BF4806F17
:104E900067D1009B002B74D1BAF1000F7ED1B9F11C
:104EA000000F40F08780B8F1000F40F08F8015F4BC
:104EB000006F03D01BF4006F40F0948015F4007F66
:104EC00003D01BF4007F40F0988015F4002F03D02E
:104ED0001BF4002F40F0A18015F4803F03D01BF499
:104EE000803F40F0A58015F4802F03D01BF4802F65
:104EF00040F0A98015F4003F0FD01BF4003F0CD008
:104F000023684FF400321A65594B00221A61D4F815
:104F10009C3043F08003C4F89C30002F40F09E800A
:104F20004EB123681E65B20F514B1A61D4F89C3004
:104F30003343C4F89C3022684E4B9A4200F09C8068
:104F4000D4F89C30002B40F0F98003B0BDE8F08F1E
:104F50004FF480721A65464B00221A61FFF75AFF20
:104F600091E72368D3F8DC10D3F8E4204FF4806095
:104F700018653F4B0020186111402046FFF746FF9F
:104F800087E7236800221A65019B03F00303384A70
:104F9000136100992046FFF733FF7DE72368C3F8CC
:104FA00050A04FEA9A72324B1A6151462046FFF7E1
:104FB00028FF74E72368C3F850904FEA99722C4B8E
:104FC0001A6149462046FFF71DFF6CE72368C3F8C6
:104FD00050804FEA9872264B1A6141462046FFF7EF
:104FE00012FF64E723684FF400621A65204B002229
:104FF0001A612046FFF708FF60E72368D3F8D8104E
:10500000D3F8E0204FF400701865194B00201861A8
:1050100011402046FFF7F9FE57E723684FF40022BE
:105020001A65134B00221A612046FFF7F0FE53E782
:1050300023684FF480321A650D4B00221A61204616
:10504000FFF7E6FE4FE723684FF480221A65084B0E
:1050500000221A612046FFF7DCFE4BE723681F653C
:10506000BA0F034B1A6139462046FFF7D5FE57E7C2
:1050700000A8004000A0004063689A6812F0030F87
:105080003FF45EAF196A01F00F015A6A186A00F026
:105090003008586A08EA00081F6A07F4C077586A9F
:1050A00007401E6A06F4FC46586A06401D6A05F46D
:1050B000F025586A0540D3F82490D3F820A0114079
:1050C0001CD1B8F1000F1ED119F0400F02D01AF018
:1050D000400F20D15FBB36B163681E62D4F89C30AC
:1050E0003343C4F89C30002D3FF42AAF63681D623F
:1050F000D4F89C302B43C4F89C3021E71962204639
:10510000FFF78BFEDDE76368C3F820804146204649
:10511000FFF784FED8E76368D96BDA6B402018622A
:1051200002F03F02090C2046FFF779FED2E76368E0
:105130001F6239462046FFF773FECCE72046FFF793
:105140006AFE02E7F0B583B000236BE085685E007D
:105150000324B44025EA0405CC68B4402C438460A1
:10516000456825EA0C054C68C4F300149C402C43A8
:10517000446069E0DD08083550F8254003F0070C6D
:105180004FEA8C0C4FF00F0E0EFA0CFE24EA0E0EB6
:105190000C6904FA0CF444EA0E0440F825406BE074
:1051A000092400E0002404FA0EF42C430CF1020C54
:1051B000664D45F82C404FF0B0442568D44325EAAD
:1051C00002064F6817F4801F01D042EA05064FF02F
:1051D000B0452E606D6804EA05064F6817F4001F9D
:1051E00001D042EA05064FF0B0456E60D5F8845014
:1051F00004EA05064F6817F4003F01D042EA0506AD
:105200004FF0B045C5F88460D5F880502C404E680A
:1052100016F4803F01D042EA05044FF0B042C2F8D4
:10522000804001330A6832FA03F400F08C804FF0BA
:10523000010C0CFA03FC1CEA0202F2D04C6804F0E8
:105240000304013C012C81D94C6804F00304032CB5
:105250000CD0C4685D004FF0030C0CFA05FC24EA86
:105260000C0C8C68AC4044EA0C04C4604C6804F03C
:105270000304022C3FF47EAF04684FEA430E4FF064
:10528000030C0CFA0EFC24EA0C0C4C6804F003042A
:1052900004FA0EF444EA0C0404604C6814F4403F31
:1052A000BFD02B4CD4F8F45045F00205C4F8F450AC
:1052B000D4F8F44004F002040194019C4FEA930CEA
:1052C0000CF10205214C54F8255003F0030E4FEA6F
:1052D0008E0E0F2404FA0EF425EA04051D4CA0429C
:1052E0003FF460AF04F58064A0421ED004F58064F2
:1052F000A0421CD004F58064A0421AD004F580645A
:10530000A04218D004F58064A04216D004F5806451
:10531000A04214D004F58064A04212D004F50064C9
:10532000A0423FF43DAF0A243DE701243BE70224BD
:1053300039E7032437E7042435E7052433E7062457
:1053400031E707242FE703B0F0BD00BF0004005889
:1053500000440258000002580AB1816170470904F4
:1053600081617047431EDBB2012B01D901207047D8
:10537000002965D010B400230B604B608B60CB60BC
:105380000B61022802D00024002213E02D4B1B6881
:1053900013F0010F01D12C4CF6E74FF40074F3E742
:1053A000501C40F08070C86036E0531C43F080739E
:1053B0000B610132012A3FD89000244B1B5813F097
:1053C000010F06D084EA030010F0020F01D1501C37
:1053D000086013F0100F06D084EA030010F0200FCD
:1053E00001D1501C486013F4807F06D084EA03008A
:1053F00010F4007F01D1501C886013F4803F0BD063
:1054000084EA030010F4802F06D113F4003FC7D1C3
:10541000501C40F48030C86013F0807FC9D084EA0B
:10542000030010F0806FC4D113F0007FBDD1531C76
:1054300043F480330B61BCE700205DF8044B7047F8
:105440000120704700B400522202040404B4005248
:105450002DE9F84305460F4616469946DDF82080AB
:105460002C68246A3C4214BF4FF0010C4FF0000C32
:10547000B44514D0B8F1FF3FF2D0FDF793FAA0EB9A
:105480000900404502D8B8F1000FE9D14FF400738C
:105490002B656B6D43F001036B65012000E000207C
:1054A000BDE8F883816500207047000030B583B007
:1054B0000446FDF777FA002C77D005460023636594
:1054C000236D13B1002003B030BD2046FCF7D4F9A2
:1054D00041F288312046FFF7E5FF20688268344BAF
:1054E0001340E2682169013942EA014261690139E8
:1054F00042EA0122616B0A43E1690A431343836074
:105500002268D36823F4E023216A0B43D360216B24
:10551000A36B226843EA014313612368E26B5A617B
:1055200021680B6823F4F8536268013A43EA0223C6
:105530000B60A36D00932B46002220212046FFF72D
:1055400087FF0028BFD12168CB6823F0FF03626A80
:10555000013A1343CB602268136823F04003A1682B
:105560000B4313602168D1F8083123F0A043A26AED
:10557000E56A2A431343C1F808312268136843F0EF
:1055800001031360A369022B06D0E368B3F1806FB7
:1055900008D00223236596E72268936843F002034C
:1055A0009360F2E7012323658DE701208BE700BFBD
:1055B000F4F8E0F82DE9F0438DB081460D4602681D
:1055C0009A4B9A4205D04FF00008012600231F464F
:1055D00004E04FF001080026F8E72346012B0FD81E
:1055E0005C1CE4B203EB43030DEBC3012046FFF761
:1055F000B9FE0028F1D00823C9F854300127ECE7A0
:10560000002F40F00C81894B1B6813F0010F00F054
:105610000A81864A136823F0010313600121844B39
:105620001B6813F0010F07D0814A136823F00103B0
:10563000136041F00201C9B206EB46030CAA02EB6B
:10564000C30353F8283C013B7A4800EB83035A68B4
:1056500022F480725A60036813F0010F00F02E816B
:10566000036823F001030360B8F1000F40F0E48009
:10567000D5F800E0434608EB48020CA800EBC20254
:1056800052F8300C864518D008EB48080CAA02EBFB
:10569000C80858F82C2C6C6894420ED058F8282C66
:1056A000AC68944209D058F8242CEC68944204D099
:1056B00058F8202C2C69944248D1864500F0478147
:1056C000013880005B4A0244506820F001005060BD
:1056D00003EB43020CA800EBC20252F82C2C3AB1A7
:1056E000013A920053481044426822F0100242608E
:1056F00003EB43000CAA02EBC00050F8282C013A3F
:1057000092004C4C1444626822F48072626050F83B
:10571000242C4AB1013A02F001029200454810449B
:10572000426822F48032426003EB43030CAA02EB8E
:10573000C30353F8203C4BB1013B03F001039B0032
:105740003C4A1A44536823F080735360AA68013AB4
:10575000384800EB8202536823F4407343EA46233F
:1057600043F4807353606B69013B0268C2F30742E4
:10577000934205D9026822F47F0242EA03430360A0
:105780002C4B1B6813F0010F00F027812B68013BA5
:105790009B00284A1A44536823F0030343F0010393
:1057A00053606B684BB1013B9B00224A1A4453681B
:1057B00023F0300343F010035360EB6813F4803F91
:1057C00000F0EB80013B03F001039B00194A1A44EF
:1057D000536823F4E02343F4803353602B6913F4BC
:1057E000803F00F0EA80013B03F001039B00114A77
:1057F0001A44536823F4E02343F44033536011F018
:10580000010F04D0094A136843F00103136011F03B
:10581000020F04D0064A136843F0010313603846B0
:105820000DB0BDE8F0833946F9E600BF00500052E4
:1058300000A0005200B40052434608EB48000CAAF6
:1058400002EBC00050F8302C013A9200944C144402
:10585000626842F00202626050F82C2C3AB1013AC0
:1058600092008F481044426842F02002426003EBED
:1058700043020CA800EBC20252F8242C4AB1013AB0
:1058800002F00102920086481044426842F48022ED
:10589000426003EB43030CAA02EBC30353F8203C22
:1058A000002B3FF4E5AE013B03F001039B007C4A73
:1058B0001A44536843F080635360D9E606EB46030D
:1058C0000CAA02EBC30353F8303C002B3FF4D0AEDC
:1058D000013B9B00724A1A44536823F00103536052
:1058E00006EB46030CAA02EBC30353F82C3C3BB176
:1058F000013B9B006A4A1A44536823F0100353602B
:1059000006EB46030CAA02EBC30353F8243C4BB14D
:10591000013B03F001039B00614A1A44536823F4DE
:105920008033536006EB46030CAA02EBC30353F823
:10593000203C002B3FF49CAE013B03F001039B0095
:10594000574A1A44536823F08073536090E66C689A
:1059500003EB43020DF1300C0CEBC20252F82C2C7D
:1059600094427FF4ADAEEC6803EB43020CEBC20251
:1059700052F8242C94427FF4A3AE2C6903EB43022B
:105980000CEBC20252F8202C94427FF499AE444AA8
:10599000136843F001031360D8E6002B3FF41EAFF9
:1059A000013B03F001039B003D4A1A44536823F076
:1059B000E06343F08073536010E7002B3FF41FAFA8
:1059C000013B03F001039B00354A1A44536823F05E
:1059D000E06343F04073536011E72B68013B9B0089
:1059E0002F4A1A44536823F0030343EA460343F063
:1059F000010353606B685BB1013B9B00284A1A446A
:105A0000536823F0300343EA461343F01003536016
:105A1000EB6813F4803F20D0013B03F001039B00AF
:105A20001F4A1A44536823F4E02343EA864343F4AD
:105A3000803353602B6913F4803F1FD0013B03F088
:105A400001039B00164A1A44536823F4E02343EAF7
:105A5000864343F440335360D1E6002BEAD0013B48
:105A600003F001039B000E4A1A44536823F0E063DD
:105A700043EA866343F080735360DBE7002B3FF417
:105A8000BEAE013B03F001039B00054A1A44536874
:105A900023F0E06343EA866343F040735360AEE66D
:105AA00000B400522DE9F04383B0D0F8008001EB40
:105AB000C10300EB83039A6A5B6A9A4254D8074693
:105AC0000C469B1A01EBC10200EB8202D2699A429A
:105AD00000D31A4602F103094FEA990915E006F1CD
