:020000040800F2
:1000000000000524B92A0008112100081321000866
:100010001521000817210008192100080000000020
:10002000000000000000000000000000F1D4000803
:100030001B2100080000000091D50008F5D500083C
:10004000092B0008092B0008092B0008092B0008C0
:10005000092B0008092B0008092B0008092B0008B0
:10006000092B0008092B0008092B00081D21000896
:100070002D2100083D210008092B0008092B00084C
:10008000092B0008092B0008092B00084D21000846
:100090005D2100086D2100087D210008092B000862
:1000A000092B0008092B0008092B0008092B000860
:1000B000092B0008092B0008092B0008092B000850
:1000C000092B0008092B0008092B0008092B000840
:1000D000092B00088D210008092B0008092B0008B6
:1000E000092B0008092B000800000000092B00085C
:1000F000092B0008092B0008092B0008092B000810
:10010000092B0008092B0008092B0008092B0008FF
:10011000092B00089D210008092B0008092B000865
:10012000092B0008092B0008092B0008092B0008DF
:10013000092B0008092B0008092B0008BD21000825
:1001400000000000000000000000000000000000AF
:10015000092B0008092B0008092B0008092B0008AF
:10016000092B0008092B0008092B0008092B00089F
:10017000092B0008D5210008092B00080000000009
:10018000092B0008092B0008E5210008092B0008AD
:10019000092B0008092B0008092B0008092B00086F
:1001A000092B0008092B0008092B0008000000009B
:1001B000092B0008092B0008092B0008092B00084F
:1001C000092B0008092B00080000000000000000B7
:1001D0000000000000000000092B000800000000E3
:1001E000000000000000000000000000000000000F
:1001F0000000000000000000092B0008092B000887
:10020000092B0008092B000800000000092B00083A
:10021000092B0008092B0008092B0008092B0008EE
:10022000092B000800000000092B00080000000056
:10023000092B0008092B000800000000092B00080A
:10024000092B0008092B0008092B0008092B0008BE
:10025000092B0008092B0008092B0008092B0008AE
:10026000092B0008092B0008092B0008092B00089E
:10027000092B0008092B0008092B000800000000CA
:10028000092B0008092B0008092B0008092B00087E
:1002900000000000092B0008092B000800000000E6
:1002A00000000000092B0008092B0008092B00089A
:1002B000F5210008092B0008092B00080522000879
:0C02C0001522000825220008092B000868
:1003000081F0004102E000BF83F0004330B54FEAC6
:1003100041044FEA430594EA050F08BF90EA020F33
:100320001FBF54EA000C55EA020C7FEA645C7FEAC6
:10033000655C00F0E2804FEA5454D4EB5555B8BFE9
:100340006D420CDD2C4480EA020281EA030382EA5A
:10035000000083EA010180EA020281EA0303362DEC
:1003600088BF30BD11F0004F4FEA01314FF4801CBF
:100370004CEA113102D0404261EB410113F0004FD1
:100380004FEA03334CEA133302D0524263EB430388
:1003900094EA050F00F0A780A4F10104D5F1200E26
:1003A0000DDB02FA0EFC22FA05F2801841F1000181
:1003B00003FA0EF2801843FA05F359410EE0A5F155
:1003C00020050EF1200E012A03FA0EFC28BF4CF086
:1003D000020C43FA05F3C01851EBE37101F000453C
:1003E00007D54FF0000EDCF1000C7EEB00006EEB49
:1003F0000101B1F5801F1BD3B1F5001F0CD34908D3
:100400005FEA30004FEA3C0C04F101044FEA445229
:1004100012F5800F80F09A80BCF1004F08BF5FEAB0
:10042000500C50F1000041EB045141EA050130BD90
:100430005FEA4C0C404141EB0101013C28BFB1F5A2
:10044000801FE9D291F0000F04BF01460020B1FAED
:1004500081F308BF2033A3F10B03B3F120020CDAC0
:100460000C3208DD02F1140CC2F10C0201FA0CF09E
:1004700021FA02F10CE002F11402D8BFC2F1200C03
:1004800001FA02F120FA0CFCDCBF41EA0C019040B9
:10049000E41AA2BF01EB0451294330BD6FEA040402
:1004A0001F3C1CDA0C340EDC04F11404C4F12002ED
:1004B00020FA04F001FA02F340EA030021FA04F3FF
:1004C00045EA030130BDC4F10C04C4F1200220FA56
:1004D00002F001FA04F340EA0300294630BD21FA94
:1004E00004F0294630BD94F0000F83F4801306BF5A
:1004F00081F480110134013D4EE77FEA645C18BF4E
:100500007FEA655C29D094EA050F08BF90EA020FE4
:1005100005D054EA000C04BF1946104630BD91EADC
:10052000030F1EBF0021002030BD5FEA545C05D1DF
:100530004000494128BF41F0004130BD14F580041E
:100540003CBF01F5801130BD01F0004545F0FE4192
:1005500041F470014FF0000030BD7FEA645C1ABFC7
:10056000194610467FEA655C1CBF0B46024650EAFE
:10057000013406BF52EA033591EA030F41F400212A
:1005800030BD00BF90F0000F04BF0021704730B5B0
:100590004FF4806404F132044FF000054FF0000185
:1005A00050E700BF90F0000F04BF0021704730B546
:1005B0004FF4806404F1320410F0004548BF40421B
:1005C0004FF000013EE700BF42004FEAE2014FEA70
:1005D00031014FEA02701FBF12F07F4393F07F4F4B
:1005E00081F06051704732F07F4208BF704793F04E
:1005F0007F4F04BF41F40021704730B54FF4607461
:1006000001F0004521F000411CE700BF50EA010263
:1006100008BF704730B54FF000050AE050EA01020C
:1006200008BF704730B511F0004502D5404261EB7C
:1006300041014FF4806404F132045FEA915C3FF4BD
:10064000D8AE4FF003025FEADC0C18BF03325FEA5A
:10065000DC0C18BF033202EBDC02C2F1200300FA0B
:1006600003FC20FA02F001FA03FE40EA0E0021FA30
:1006700002F11444BDE600BF70B54FF0FF0C4CF41E
:10068000E06C1CEA11541DBF1CEA135594EA0C0FD0
:1006900095EA0C0F00F0DEF82C4481EA030621EA0B
:1006A0004C5123EA4C5350EA013518BF52EA033546
:1006B00041F4801143F4801338D0A0FB02CE4FF0F8
:1006C0000005E1FB02E506F00042E0FB03E54FF028
:1006D0000006E1FB03569CF0000F18BF4EF0010E20
:1006E000A4F1FF04B6F5007F64F5407404D25FEA1C
:1006F0004E0E6D4146EB060642EAC62141EA5551CF
:100700004FEAC52040EA5E504FEACE2EB4F1FD0C10
:1007100088BFBCF5E06F1ED8BEF1004F08BF5FEA8E
:10072000500E50F1000041EB045170BD06F0004640
:1007300046EA010140EA020081EA0301B4EB5C04ED
:10074000C2BFD4EB0C0541EA045170BD41F48011E5
:100750004FF0000E013C00F3AB8014F1360FDEBF0A
:10076000002001F0004170BDC4F10004203C35DAE6
:100770000C341BDC04F11404C4F1200500FA05F369
:1007800020FA04F001FA05F240EA020001F000420A
:1007900021F0004110EBD37021FA04F642EB060180
:1007A0005EEA430E08BF20EAD37070BDC4F10C04AA
:1007B000C4F1200500FA04F320FA05F001FA04F26E
:1007C00040EA020001F0004110EBD37041F100015A
:1007D0005EEA430E08BF20EAD37070BDC4F1200565
:1007E00000FA05F24EEA020E20FA04F301FA05F2CD
:1007F00043EA020321FA04F001F0004121FA04F275
:1008000020EA020000EBD3705EEA430E08BF20EA44
:10081000D37070BD94F0000F0FD101F0004640007E
:1008200041EB010111F4801F08BF013CF7D041EA00
:10083000060195F0000F18BF704703F00046520004
:1008400043EB030313F4801F08BF013DF7D043EAD5
:100850000603704794EA0C0F0CEA135518BF95EA8B
:100860000C0F0CD050EA410618BF52EA4306D1D112
:1008700081EA030101F000414FF0000070BD50EA31
:10088000410606BF1046194652EA430619D094EABB
:100890000C0F02D150EA013613D195EA0C0F05D1A5
:1008A00052EA03361CBF104619460AD181EA0301F9
:1008B00001F0004141F0FE4141F470014FF00000B1
:1008C00070BD41F0FE4141F4780170BD70B54FF04C
:1008D000FF0C4CF4E06C1CEA11541DBF1CEA1355CC
:1008E00094EA0C0F95EA0C0F00F0A7F8A4EB0504AE
:1008F00081EA030E52EA03354FEA013100F08880A5
:100900004FEA03334FF0805545EA131343EA12636D
:100910004FEA022245EA111545EA10654FEA002622
:100920000EF000419D4208BF964244F1FD0404F5DB
:10093000407402D25B084FEA3202B61A65EB030537
:100940005B084FEA32024FF480104FF4002CB6EBF4
:10095000020E75EB030E22BFB61A754640EA0C0074
:100960005B084FEA3202B6EB020E75EB030E22BFB4
:10097000B61A754640EA5C005B084FEA3202B6EBF5
:10098000020E75EB030E22BFB61A754640EA9C00B4
:100990005B084FEA3202B6EB020E75EB030E22BF84
:1009A000B61A754640EADC0055EA060E18D04FEA42
:1009B000051545EA16754FEA06164FEAC30343EAE2
:1009C00052734FEAC2025FEA1C1CC0D111F4801FAF
:1009D0000BD141EA00014FF000004FF0004CB6E7A8
:1009E00011F4801F04BF01430020B4F1FD0C88BF47
:1009F000BCF5E06F3FF6AFAEB5EB030C04BFB6EB52
:100A0000020C5FEA500C50F1000041EB045170BD44
:100A10000EF0004E4EEA113114EB5C04C2BFD4EB71
:100A20000C0541EA045170BD41F480114FF0000EF5
:100A3000013C90E645EA060E8DE60CEA135594EA71
:100A40000C0F08BF95EA0C0F3FF43BAF94EA0C0F74
:100A50000AD150EA01347FF434AF95EA0C0F7FF4E9
:100A600025AF104619462CE795EA0C0F06D152EA3D
:100A700003353FF4FDAE1046194622E750EA410621
:100A800018BF52EA43067FF4C5AE50EA41047FF432
:100A90000DAF52EA43057FF4EBAE12E74FF0FF3C97
:100AA00006E000BF4FF0010C02E000BF4FF0010C68
:100AB0004DF804CD4FEA410C7FEA6C5C4FEA430CE1
:100AC00018BF7FEA6C5C1BD001B050EA410C0CBF30
:100AD00052EA430C91EA030F02BF90EA020F002092
:100AE000704710F1000F91EA030F58BF994208BFF9
:100AF00090422CBFD8176FEAE37040F001007047B6
:100B00004FEA410C7FEA6C5C02D150EA013C07D10C
:100B10004FEA430C7FEA6C5CD6D152EA033CD3D057
:100B20005DF8040B704700BF8446104662468C4651
:100B30001946634600E000BF01B5FFF7B7FF002884
:100B400048BF10F1000F01BD4DF808EDFFF7F4FFAD
:100B50000CBF012000205DF808FB00BF4DF808ED38
:100B6000FFF7EAFF34BF012000205DF808FB00BF5B
:100B70004DF808EDFFF7E0FF94BF012000205DF87D
:100B800008FB00BF4DF808EDFFF7CEFF94BF012032
:100B900000205DF808FB00BF4DF808EDFFF7C4FF2B
:100BA00034BF012000205DF808FB00BF4FEA41027E
:100BB000B2F1E04324BFB3F5001CDCF1FE5C0DD9BB
:100BC00001F0004C4FEAC0024CEA5070B2F1004F05
:100BD00040EB830008BF20F00100704711F0804F08
:100BE00021D113F13872BCBF01F00040704741F4CD
:100BF00080114FEA5252C2F11802C2F1200C10FAD1
:100C00000CF320FA02F018BF40F001004FEAC123B4
:100C10004FEAD32303FA0CFC40EA0C0023FA02F358
:100C20004FEA4303CCE77FEA625307D150EA01332E
:100C30001EBF4FF0FE4040F44000704701F00040FE
:100C400040F0FE4040F40000704700BF53B94AB97D
:100C5000002908BF00281CBF4FF0FF314FF0FF30C4
:100C600000F00CB8ADF1080C6DE904CE11F016FBE4
:100C7000DDF804E0DDE9022304B07047704700BFEF
:100C8000844641EA000313F003036DD1403A41D397
:100C900051F8043B40F8043B51F8043B40F8043B56
:100CA00051F8043B40F8043B51F8043B40F8043B46
:100CB00051F8043B40F8043B51F8043B40F8043B36
:100CC00051F8043B40F8043B51F8043B40F8043B26
:100CD00051F8043B40F8043B51F8043B40F8043B16
:100CE00051F8043B40F8043B51F8043B40F8043B06
:100CF00051F8043B40F8043B51F8043B40F8043BF6
:100D000051F8043B40F8043B51F8043B40F8043BE5
:100D1000403ABDD2303211D351F8043B40F8043B85
:100D200051F8043B40F8043B51F8043B40F8043BC5
:100D300051F8043B40F8043B103AEDD20C3205D395
:100D400051F8043B40F8043B043AF9D2043208D08D
:100D5000D2071CBF11F8013B00F8013B01D30B88FF
:100D600003806046704700BF082A13D38B078DD0DD
:100D700010F003038AD0C3F10403D21ADB071CBFAF
:100D800011F8013B00F8013B80D331F8023B20F819
:100D9000023B7BE7043AD9D3013A11F8013B00F852
:100DA000013BF9D20B7803704B7843708B788370DA
:100DB00060467047000000000000000000000000D6
:100DC00001F0FF01102A2BDB10F0070F08D010F8FC
:100DD000013B013A8B422DD010F0070F42B3F6D100
:100DE000F0B441EA012141EA014122F007047FF019
:100DF00000070023F0E80256083C85EA010586EA70
:100E0000010685FA47F5A3FA87F586FA47F6A5FAAB
:100E100087F68EB9EED1F0BC01F0FF0102F00702B7
:100E200032B110F8013B013A83EA010313B1F8D162
:100E30000020704701387047002D06BF3546033843
:100E4000073815F0010F07D1013015F4807F02BF7C
:100E5000013015F4C03F0130F0BC0138704700BFCD
:100E60000000000000000000000000000000000082
:100E70000000000000000000000000000000000072
:100E800030B490F800F020F007016FF0000C10F083
:100E9000070491F820F040F048804FF000046FF014
:100EA0000700D1E9002391F840F000F1080082FA30
:100EB0004CF2A4FA8CF283FA4CF3A2FA8CF34BBBFB
:100EC000D1E9022382FA4CF200F10800A4FA8CF274
:100ED00083FA4CF3A2FA8CF3E3B9D1E9042382FA42
:100EE0004CF200F10800A4FA8CF283FA4CF3A2FA57
:100EF0008CF37BB9D1E9062301F1200182FA4CF28F
:100F000000F10800A4FA8CF283FA4CF3A2FA8CF3F5
:100F1000002BC6D0002A04BF04301A4612BAB2FA17
:100F200082F200EBD20030BC7047D1E9002304F01C
:100F30000305C4F100004FEAC50514F0040F91F851
:100F400040F00CFA05F562EA05021CBF63EA0503EE
:100F500062464FF00004AAE74FEA410C7FEA6C5C5E
:100F600002D150EA013C0AD14FEA430C7FEA6C5CA3
:100F700002D152EA033C02D14FF0000070474FF01B
:100F8000010070474FEA410212F5001215D211D547
:100F90006FF47873B3EB625212D94FEAC12343F076
:100FA000004343EA505311F0004F23FA02F018BFF8
:100FB000404270474FF00000704750EA013005D1C1
:100FC00011F0004008BF6FF0004070474FF0000084
:100FD000704700BF0348044B834202D0034B03B168
:100FE00018477047B8080024B80800240000000023
:100FF0000548064B1B1AD90F01EBA301491002D07B
:10100000034B03B118477047B8080024B808002400
:101010000000000010B5064C237843B9FFF7DAFF53
:10102000044B13B10448AFF300800123237010BDBB
:10103000B808002400000000B885010808B5054B79
:101040001BB105490548AFF30080BDE80840FFF734
:10105000CFBF00BF00000000BC080024B885010815
:1010600010B58CB0002409940A940B9424222146D4
:10107000684611F083FE2748274B03604FF4101396
:101080004360846001230361042242610476437655
:101090000222C26180F820408462C462032202639B
:1010A000C463046480F84440836402F0B9F920BB4F
:1010B0000023099309A9174802F01AFB00BB174B3C
:1010C0000093062301930423029340F2FF720392DC
:1010D0000493002305938DF8213069460D4801F0F3
:1010E00017FE80B90E4B00930C2301936946094803
:1010F00001F00EFE50B90CB010BD00F0ABFCD7E70C
:1011000000F0A8FCDBE700F0A5FCEBE700F0A2FC98
:10111000F1E700BFD4080024002002401000C010F6
:101120000000B84F30B5B9B0044600213391349176
:10113000359136913791B82204A811F01FFE22682C
:10114000294B9A4201D039B030BD4FF40022002320
:10115000CDE90423022306931022079208930993F2
:101160000A93C0230B930DEB020007F035F900281A
:1011700037D11E4BD3F8D82042F02002C3F8D82034
:10118000D3F8D82002F020020192019AD3F8E0208F
:1011900042F00102C3F8E020D3F8E02002F001029F
:1011A0000292029AD3F8E02042F00402C3F8E02051
:1011B000D3F8E03003F004030393039B202333931D
:1011C000032534950024359433A9094804F0FAFD29
:1011D000102333933495359433A9064804F0F2FD77
:1011E000B1E700F037FCC4E7002002400044025899
:1011F000000002580008025800B583B0134BD3F822
:10120000D82042F00102C3F8D820D3F8D83003F038
:1012100001030193019B002205210B2002F074FBC6
:101220000B2002F081FB002205210C2002F06CFB58
:101230000C2002F079FB002205210D2002F064FB56
:101240000D2002F071FB03B05DF804FB004402586E
:1012500010B51748174B03604FF4407383600021AB
:10126000C160012303744174837443611422826159
:101270003B24C46102624362022484620D23C36280
:101280000463416304238363C3630A2202644364E7
:101290008264C364046543658265C2650266416613
:1012A000836604F017F800B910BD00F0D3FBFBE72C
:1012B000880A002400A0004010B51748174B0360AF
:1012C0004FF4407383600021C160012303744174B3
:1012D00083744361142282613B24C46102624362CD
:1012E000022484620D23C362046341630423836385
:1012F000C3630A22026443648264C3640465436571
:101300008265C26502664166836603F0E3FF00B949
:1013100010BD00F09FFBFBE7E809002400A400409B
:1013200010B51748174B03604FF4407383600021DA
:10133000C160012303744174837443611422826188
:101340003B24C46102624362022484620D23C362AF
:101350000463416304238363C3630A220264436416
:101360008264C364046543658265C2650266416642
:10137000836603F0AFFF00B910BD00F06BFBFBE725
:101380004809002400D4004030B5BBB00446002119
:1013900035913691379138913991B82206A811F0DC
:1013A000EDFC2368844A934208D0844A93425CD07F
:1013B000834A934200F0B0803BB030BD4FF400420E
:1013C0000023CDE906234FF08053219306A807F0B0
:1013D00003F8002838D17B4A136801331360012BCE
:1013E00035D0794BD3F8E02042F00802C3F8E02072
:1013F000D3F8E03003F008030193019B03233593F6
:10140000022336930024379438940923399335A95D
:101410006E4804F0D7FC22460521132002F074FA2E
:10142000132002F081FA22460521152002F06CFA01
:10143000152002F079FA224605213F2002F064FAD5
:101440003F2002F071FAB7E700F004FBC3E75E4B00
:10145000D3F8EC2042F48072C3F8EC20D3F8EC30DF
:1014600003F480730093009BBBE74FF4004200231A
:10147000CDE906234FF08053219306A806F0ACFF78
:10148000002838D14F4A136801331360012B35D03F
:101490004D4BD3F8E02042F00202C3F8E020D3F82D
:1014A000E03003F002030393039B60233593022390
:1014B00036930024379438940923399335A9444846
:1014C00004F080FC22460521142002F01DFA1420AD
:1014D00002F02AFA22460521162002F015FA1620FB
:1014E00002F022FA224605213F2002F00DFA3F20A9
:1014F00002F01AFA60E700F0ADFAC3E7324BD3F816
:10150000EC2042F48072C3F8EC20D3F8EC3003F402
:1015100080730293029BBBE74FF400420023CDE9A6
:1015200006234FF08053219306A806F055FF88BB91
:10153000244A136801331360012B2ED0224BD3F8B9
:10154000E02042F00802C3F8E020D3F8E03003F0D6
:1015500008030593059B4FF44053359302233693BC
:101560000024379438940525399535A9174804F097
:1015700029FC224629469F2002F0C6F99F2002F04E
:10158000D3F922462946A02002F0BEF9A02002F09D
:10159000CBF911E700F05EFACAE70B4BD3F8EC2069
:1015A00042F48072C3F8EC20D3F8EC3003F480737B
:1015B0000493049BC2E700BF00A0004000A40040C9
:1015C00000D400404409002400440258000C025892
:1015D0000004025808B50368274A934206D0274AF8
:1015E00093421AD0264A93422ED008BD254A13684A
:1015F000013B136033B9244AD2F8EC3023F48073F2
:10160000C2F8EC300321214804F0E6FC132002F07C
:101610008FF9152002F08CF9E7E71A4A1368013BAD
:10162000136033B9184AD2F8EC3023F48073C2F84F
:10163000EC306021164804F0CFFC142002F078F959
:10164000162002F075F9D0E70E4A1368013B1360CB
:1016500033B90D4AD2F8EC3023F48073C2F8EC3081
:101660004FF44051094804F0B7FC9F2002F060F9A4
:10167000A02002F05DF9B8E700A0004000A40040FF
:1016800000D400404409002400440258000C0258D1
:101690000004025808B50DF069FE01200BF081FE30
:1016A000FBE708B501200BF07CFEFBE708B5012045
:1016B0000BF077FEFBE708B501200BF072FEFBE7AD
:1016C000034B0360034B0B6080231360704700BF24
:1016D00084110024840F0024034B0360034B0B6030
:1016E0004FF4807313607047280F0024280B0024E8
:1016F00010B5B8B0484C0DF1C40CA646BEE80F00BA
:10170000ACE80F009EE807008CE80700002131A834
:101710000BF014FE414B18600DF1A80C04F11C0EE7
:10172000BEE80F00ACE80F009EE807008CE8070059
:1017300000212AA80BF002FE394B18600DF18C0C29
:1017400004F1380EBEE80F00ACE80F009EE8070079
:101750008CE80700002123A80BF0F0FD314B186046
:101760000DF1700C04F1540EBEE80F00ACE80F0050
:101770009EE807008CE8070000211CA80BF0DEFDA6
:10178000294B18600DF1540C04F1700EBEE80F00E7
:10179000ACE80F009EE807008CE80700002115A8C0
:1017A0000BF0CCFD214B18600DF1380C04F18C0EC0
:1017B000BEE80F00ACE80F009EE807008CE80700C9
:1017C00000210EA80BF0BAFD194B18600DF11C0C8E
:1017D00004F1A80EBEE80F00ACE80F009EE8070079
:1017E0008CE80700002107A80BF0A8FD114B18603A
:1017F000EE4604F1C40CBCE80F00AEE80F009CE814
:1018000007008EE80700002168460BF097FD0A4BA1
:10181000186038B010BD00BFD0850108FC1100244D
:10182000F8110024F4110024F0110024EC1100241C
:10183000E8110024E4110024E01100242DE9F04F08
:101840008DB000240794089409940A940B94754B66
:10185000D3F8E02042F01002C3F8E020D3F8E020F3
:1018600002F010020192019AD3F8E02042F0040243
:10187000C3F8E020D3F8E02002F004020292029ABA
:10188000D3F8E02042F08002C3F8E020D3F8E02053
:1018900002F080020392039AD3F8E02042F00102A2
:1018A000C3F8E020D3F8E02002F001020492049A89
:1018B000D3F8E02042F00202C3F8E020D3F8E020A1
:1018C00002F002020592059AD3F8E02042F00802E5
:1018D000C3F8E020D3F8E03003F008030693069B3A
:1018E000DFF84CA101224EF22901504604F016FC0B
:1018F0004D4E22460521304604F010FCDFF83491AD
:1019000022464FF42241484604F008FC474F224645
:101910004FF44061384604F001FC01224FF480513D
:10192000384604F0FBFBDFF8108122464FF480615B
:10193000404604F0F3FB4FF46043079301250895FC
:1019400009940A9407A9504604F03CFA2923079306
:10195000089509944FF0030BCDF828B007A950461D
:1019600004F030FA05230793089509940A9407A90F
:10197000304604F027FA4FF4224307930895099460
:101980000A9407A9484604F01DFA4FF4A0530793A0
:101990004FF488130893099407A9484604F012FAF3
:1019A0004FF440630793089509940A9407A93846B1
:1019B00004F008FA4FF48053079308950995CDF881
:1019C00028B007A9384604F0FDF94FF48063079367
:1019D000089509940A9407A9404604F0F3F94FF4D6
:1019E000807307930225089509940A940B9407A91C
:1019F000304604F0E7F94FF4004307930894099444
:101A000007A9304604F0DEF970230793089509947E
:101A10000A9407230B9307A9404604F0D3F90DB0AD
:101A2000BDE8F08F0044025800000258000402583C
:101A30000008025800100258000C025808B502684D
:101A4000034B9A4200D008BD01F08EF8FBE700BFBF
:101A500000E0004072B6FEE700B59DB04C220021C8
:101A600009A811F08BF92022002101A811F086F9B4
:101A7000022005F07DFD00230093264B9A6922F495
:101A800040429A619B6903F440430093009B214BC1
:101A90009B6913F4005FFAD0232309934FF480333A
:101AA0000A9301220C9240230D930F92022312936A
:101AB00013931493282115911692062217921893C6
:101AC0000C23199300231A931B9309A805F082FD98
:101AD000D8B93F23019303210291002303930823E4
:101AE00004934023059306934FF480620792089372
:101AF00001A806F0AFF950B94FF480220021084642
:101B000006F05AF81DB05DF804FBFFF7A3FFFFF7DE
:101B1000A1FF00BF0048025808B500F0F7FFFFF72B
:101B20009BFFFFF78BFEFFF767FBFFF799FA00F0CB
:101B3000EDFC00F06FF900F09FF900F0A3FC00F05D
:101B4000CBFDFFF785FBFFF7B7FBFFF7E9FB00F0E5
:101B500061F800F01DFD00F057FD00F089FD032243
:101B6000002101200CF09CF8224B186000283FD087
:101B7000214C00220121204604F0D0FA0022042149
:101B8000204604F0CBFA04F5805400224FF4007193
:101B9000204604F0C3FA00224FF40051204604F01E
:101BA000BDFA4FF4F0700DF0A7FE3222134914482D
:101BB00009F072FD01224FF48041124804F0AEFAA0
:101BC0000422002110480EF0B7FC042200210F4827
:101BD0000EF0B2FC042200210D480EF0ADFC0EF018
:101BE00087FC0EF0FFFAFFF783FD0BF0A2FBFEE788
:101BF000FFF730FF0012002400000258FC7E002492
:101C00007C17002400080258880A0024E8090024F0
:101C10004809002400B587B0002300930193029384
:101C20000393049305931848184A026008224260FF
:101C30008360C36017210161012141618361C1613A
:101C40000362032141624FF080418162C3620363FA
:101C500042638363C36304F00BFB78B901230093F1
:101C600002934FF00113039341F28832694606480C
:101C700004F082FB28B907B05DF804FBFFF7EAFE29
:101C8000ECE7FFF7E7FEF6E70412002400A000529D
:101C90002DE9F043BBB004460021359136913791D0
:101CA00038913991B82206A811F068F82268544B8F
:101CB0009A4202D03BB0BDE8F0834FF0007200239F
:101CC000CDE9062306A806F087FB002840F09480A3
:101CD0004C4BD3F8D42042F40012C3F8D420D3F8EC
:101CE000D42002F400120092009AD3F8D42042F4D7
:101CF0000022C3F8D420D3F8D42002F400220192A9
:101D0000019AD3F8E02042F00102C3F8E020D3F8B2
:101D1000E02002F001020292029AD3F8E02042F0A1
:101D20000202C3F8E020D3F8E02002F0020203929E
:101D3000039AD3F8E02042F01002C3F8E020D3F871
:101D4000E02002F010020492049AD3F8E02042F05E
:101D50000802C3F8E020D3F8E03003F0080305934D
:101D6000059B022435943694002637960325389532
:101D700009273997DFF8988035A9404604F022F802
:101D8000082335933694379638950623399335A929
:101D9000404604F017F8012335933694379638956A
:101DA0004FF00409CDF8E49008F5806835A9404665
:101DB00004F008F8CDF8D4903694379638953997D2
:101DC00035A9404603F0FEFF4FF40068CDF8D480FB
:101DD0003694379638950B23399335A90A4803F082
:101DE000F1FFCDF8D480369437963895399735A9D8
:101DF000064803F0E7FF5DE7FFF72CFE68E700BF4A
:101E000000A000520044025800100258000C025872
:101E10000000025808B51648164B03604FF48003C3
:101E200043604FF4003383600723C3604FF00073B7
:101E30000361002343614FF0806282614FF0805262
:101E4000C261036243628362C3624FF080424263B5
:101E50008363C363036443648364C364036543654A
:101E6000836507F0EDFD00B908BDFFF7F3FDFBE763
:101E7000E81200240030014008B51548154B0360F6
:101E80004FF480034360002383600722C2604FF059
:101E9000007202614FF0807242614FF08062826195
:101EA0004FF08042C261036243628362C362426355
:101EB0008363C363036443648364C36403654365EA
:101EC000836507F0BDFD00B908BDFFF7C3FDFBE763
:101ED0006012002400380040F0B5BBB00446002179
:101EE00035913691379138913991B82206A810F082
:101EF00045FF23684F4A934204D04F4A93424CD047
:101F00003BB0F0BD4FF480520023CDE9062306A874
:101F100006F062FA00283DD1484BD3F8F02042F495
:101F20008052C3F8F020D3F8F02002F480520092DF
:101F3000009AD3F8E02042F00802C3F8E020D3F87A
:101F4000E02002F008020192019AD3F8E02042F06A
:101F50000202C3F8E020D3F8E03003F0020302935A
:101F6000029B802335930227369700263796032558
:101F700038950524399435A9314803F023FF082307
:101F80003593369737963895399435A92D4803F00F
:101F900019FFB5E7FFF75EFDBEE74FF4805200235F
:101FA000CDE9062306A806F017FA00283ED1234BF8
:101FB000D3F8E82042F48042C3F8E820D3F8E820C0
:101FC00002F480420392039AD3F8E02042F0040224
:101FD000C3F8E020D3F8E02002F004020492049A4F
:101FE000D3F8E02042F00202C3F8E020D3F8E0305A
:101FF00003F002030593059B0623359302273697CA
:1020000000263796032538950524399435A90E48BE
:1020100003F0D8FE4FF40053359336973796389532
:10202000399435A9074803F0CDFE69E7FFF712FDA3
:10203000BDE700BF003001400038004000440258B6
:10204000000C0258000402580008025800B583B082
:102050000A4BD3F8F42042F00202C3F8F420D3F87C
:10206000F43003F002030193019B00220F216FF073
:10207000010001F049FC03B05DF804FB0044025884
:102080000F2801D90120704710B58AB004460022FC
:102090000146A12001F038FCA12001F045FC174BBE
:1020A0001C60174BD3F8EC2042F08072C3F8EC2090
:1020B000D3F8EC3003F080730093009B01A902A8D1
:1020C00006F058F806F044F843000E4AA2FB03233A
:1020D0009B0C013B0C480D4A026040F2E732C260A3
:1020E000436000230361836008F060F810B10120B1
:1020F0000AB010BD044807F0B7FEF9E70C00002451
:102100000044025883DE1B437013002400E00040AB
:10211000FEE7FEE7FEE7FEE7FEE7704708B5024888
:1021200002F00CFC08BD00BFD014002408B5024822
:1021300002F004FC08BD00BF4815002408B50248A1
:1021400002F0FCFB08BD00BF5814002408B502488B
:1021500003F0A8FC08BD00BF880A002408B50248A7
:1021600003F0A0FC08BD00BFE809002408B5024840
:1021700003F098FC08BD00BF880A002408B5024897
:1021800003F090FC08BD00BFE809002408B5024830
:1021900008F03EFA08BD00BF5416002410B5054CE7
:1021A000204608F035FA32220349204609F074FA35
:1021B00010BD00BF7C170024347F002408B50348FD
:1021C00003F070FC024803F06DFC08BD880A00248F
:1021D000E809002408B5024804F089FE08BD00BFE4
:1021E000D46D002408B5024808F012FA08BD00BFFB
:1021F000E816002408B5024808F00AFA08BD00BF36
:10220000C015002408B5024803F04CFC08BD00BF0F
:102210004809002408B5024803F044FC08BD00BF8B
:102220004809002408B5024807F072FE08BD00BF47
:10223000701300240120704708B510F057FE1623D4
:1022400003604FF0FF3008BD08B54FF0FF31FFF7D6
:10225000F3FFFEE770B50C461646002506E0AFF327
:102260000080214601F8010B01350C46B542F6DB32
:10227000304670BD70B50C461646002504E014F8D3
:10228000010B00F009FC0135B542F8DB304670BDAA
:102290004FF0FF3070474FF400534B600020704701
:1022A000012070470020704710B503460C4A0D49C5
:1022B0000D48006840B10C4800680344521A93422C
:1022C00006D8094A136010BD0748084C0460F2E7BD
:1022D00010F00CFE0C2303604FF0FF30F3E700BF5B
:1022E0000000052400080000BC130024E887002437
:1022F000224AD2F8883043F47003C2F88830204B69
:102300001B6803F00F03062B06D81D4A136823F041
:102310000F0343F0070313601A4B1A6842F00102DF
:102320001A6000221A611968174A0A401A60144B91
:102330001B6813F0080F06D0114A136823F00F032F
:1023400043F0070313600F4B00229A61DA611A62AF
:102350000E4999620E49D9620E4919635A6399630D
:10236000DA6319645A64196821F4802119601A66C5
:10237000094B43F2D2021A60704700BF00ED00E043
:1023800000200052004402587FEDF6EA00020202EB
:102390000000FF01800201010040005282B003688A
:1023A000114A934204D0114A93420FD002B07047B1
:1023B0000F4BD3F8E82042F00202C3F8E820D3F82C
:1023C000E83003F002030093009BEFE7084BD3F8DB
:1023D000E82042F04002C3F8E820D3F8E83003F0E8
:1023E00040030193019BE1E7000400400018004016
:1023F0000044025800B589B0002303930493059369
:102400000693079303681B4A934205D01A4A9342E6
:1024100018D009B05DF804FB184BD3F8E02042F067
:102420000202C3F8E020D3F8E03003F00203019386
:10243000019B022303930493079303A9104803F01D
:10244000C1FCE6E70D4BD3F8E02042F00202C3F8EE
:10245000E020D3F8E03003F002030293029B4FF434
:102460000043039302230493079303A9044803F052
:10247000A9FCCEE7000400400018004000440258C8
:102480000004025800B58BB000230793089309930A
:1024900000930193029303930493059306931948C1
:1024A000194A026017224260836042F20F72C260D2
:1024B00003618023836107F0A9FEC8B90023079355
:1024C000099307A90F4807F0B9FFA0B9602300934B
:1024D00000230193029304930C226946094807F0F4
:1024E0000FFF58B90748FFF785FF0BB05DF804FBF5
:1024F000FFF7B0FAE2E7FFF7ADFAE7E7FFF7AAFA6E
:10250000F0E700BF0C1400240004004000B58BB0BD
:102510000023079308930993009301930293039375
:102520000493059306931848184A026017224260E4
:10253000836040F2CF72C2600361836107F066FE80
:10254000C8B900230793099307A90F4807F076FF3E
:10255000A0B9602300930023019302930493042203
:102560006946094807F0CCFE58B90748FFF742FF13
:102570000BB05DF804FBFFF76DFAE2E7FFF76AFACC
:10258000E7E7FFF767FAF0E7C01300240018004000
:1025900008B51A481A4B03601A4B43604FF4805336
:1025A00083604FF40053C3604FF4806303610C23D6
:1025B000436100238361C36103624362836208F065
:1025C0004EFF70B900210D4809F01CF860B90021D8
:1025D0000A4809F03CF850B9084808F0F4FF48B937
:1025E00008BDFFF737FAEDE7FFF734FAEFE7FFF73B
:1025F00031FAF1E7FFF72EFAF2E700BF7C1700246B
:1026000000500040A086010008B51748174B036032
:102610004FF4E133436000238360C36003610C2205
:1026200042618361C36103624362836208F017FF02
:1026300070B900210C4808F0E5FF60B900210A4894
:1026400009F005F850B9084808F0BDFF48B908BDC1
:10265000FFF700FAEDE7FFF7FDF9EFE7FFF7FAF90B
:10266000F1E7FFF7F7F9F2E7E816002400780040F9
:1026700008B51748174B03604FF4E133436000235C
:102680008360C36003610C2242618361C3610362A2
:102690004362836208F0E3FE70B900210C4808F041
:1026A000B1FF60B900210A4808F0D1FF50B90848CD
:1026B00008F089FF48B908BDFFF7CCF9EDE7FFF74F
:1026C000C9F9EFE7FFF7C6F9F1E7FFF7C3F9F2E75A
:1026D000541600240010014008B51748174B03603A
:1026E0004FF4E133436000238360C36003610C2235
:1026F00042618361C36103624362836208F0AFFE9B
:1027000070B900210C4808F07DFF60B900210A482B
:1027100008F09DFF50B9084808F055FF48B908BDBA
:10272000FFF798F9EDE7FFF795F9EFE7FFF792F973
:10273000F1E7FFF78FF9F2E7C0150024001C014014
:102740002DE9F041BEB00446002139913A913B9108
:102750003C913D91B8220AA810F010FB23688A4AE8
:1027600093420DD0894A93427BD0894A934200F02C
:10277000B380884A934200F021813EB0BDE8F081E9
:1027800002220023CDE90A230AA805F025FE00282D
:1027900061D1814BD3F8E82042F48012C3F8E820DD
:1027A000D3F8E82002F480120192019AD3F8E020D5
:1027B00042F00402C3F8E020D3F8E02002F0040263
:1027C0000292029AD3F8E02042F00802C3F8E02017
:1027D000D3F8E03003F008030393039B4FF48053D6
:1027E00039934FF00208CDF8E88000253B95032788
:1027F0003C9708263D9639A9684803F0E3FA04237C
:102800003993CDF8E8803B953C973D9639A96448CB
:1028100003F0D8FA6348644B03604123436085604A
:10282000C5604FF48063036145618561C5614FF404
:1028300040330362456201F08FFA78B9594BC4F80E
:1028400080309C6300220521352001F05DF83520A1
:1028500001F06AF891E7FFF7FDF89AE7FFF7FAF859
:10286000ECE702220023CDE90A230AA805F0B4FD13
:1028700078BB494BD3F8E82042F08042C3F8E82007
:10288000D3F8E82002F080420492049AD3F8E020C2
:1028900042F01002C3F8E020D3F8E03003F0100358
:1028A0000593059B4FF4C073399302233A93002498
:1028B0003B943C9407233D9339A93C4803F082FAAA
:1028C00022460521522001F01FF8522001F02CF879
:1028D00053E7FFF7BFF8CCE701220023CDE90A2335
:1028E0000AA805F079FD002848D12B4BD3F8F02039
:1028F00042F01002C3F8F020D3F8F02002F01002EA
:102900000692069AD3F8E02042F00102C3F8E020D4
:10291000D3F8E03003F001030793079B4FF4C06343
:10292000399302233A9300253B9503233C930723D5
:102930003D9339A91E4803F045FA1E481E4B03601B
:10294000292343608560C5604FF48063036145615E
:102950008561C5614FF440330362456201F0FCF9C3
:1029600078B9144BC4F880309C63002205212520DF
:1029700000F0CAFF252000F0D7FFFEE6FFF76AF857
:10298000B3E7FFF767F8ECE700500040007800403D
:1029900000100140001C0140004402580008025889
:1029A000000C02584815002428000240001002586C
:1029B00000000258D014002410000240012200231D
:1029C000CDE90A230AA805F007FD002855D12E4BB2
:1029D000D3F8F02042F08002C3F8F020D3F8F020C2
:1029E00002F080020892089AD3F8E02042F0100228
:1029F000C3F8E020D3F8E03003F010030993099BFB
:102A0000042339934FF00208CDF8E88000253B9568
:102A100003273C973D931D4E39A9304603F0D2F968
:102A200008233993CDF8E8803B953C970B233D93E1
:102A300039A9304603F0C6F91548164B03607623D2
:102A400043608560C5604FF48063036145618561C3
:102A5000C5614FF440330362456201F07DF978B9F6
:102A60000B4BC4F880309C63002205219C2000F0B1
:102A70004BFF9C2000F058FF7FE6FEF7EBFFA6E738
:102A8000FEF7E8FFECE700BF0044025800100258D0
:102A9000581400244000024000B583B001904FF06C
:102AA000FF33012201A9034808F00CFC019803B090
:102AB0005DF804FBE8160024DFF834D0FFF718FCBB
:102AC0000C480D490D4A002302E0D458C450043389
:102AD000C4188C42F9D30A4A0A4C002301E013605F
:102AE0000432A242FBD310F007FAFFF715F8704743
:102AF0000000052400000024B8080024988F010875
:102B0000B8080024E8870024FEE7000010B5032081
:102B100000F0E8FE05F0A2F80F498B69C3F3032328
:102B20000E4AD35C03F01F03D8408B6903F00F03F8
:102B3000D35C03F01F0320FA03F3094A1360094B27
:102B400018600F20FFF79CFA10B10124204610BD39
:102B50000446FFF77BFAF9E700440258E4890108CC
:102B60000000002404000024034B1B78034A116872
:102B70000B441360704700BF0800002410180024A5
:102B8000014B1868704700BF1018002438B5044680
:102B9000FFF7F6FF0546B4F1FF3F02D0044B1B7868
:102BA0001C44FFF7EDFF401BA042FAD338BD00BF25
:102BB0000800002410B400F1600C0D4CA0420CD0B1
:102BC0005CF8210000F0004002F0F8421343034398
:102BD0004CF821305DF8044B70475CF8210002F09E
:102BE000F842134343F000434CF82130F2E700BFB2
:102BF0000060025800F1600C094B984207D05CF865
:102C0000213023F000431A434CF8212070475CF830
:102C1000213023F0004313434CF82130704700BFAC
:102C20000060025810B430300B0A9B0003F00C0314
:102C3000C45801F01F014FF01F0C0CFA01FC24EAEC
:102C40000C0CC2F384628A404CEA0202C2505DF866
:102C5000044B704710B414304B0E9B0003F0040378
:102C6000C458C1F304514FF0070C0CFA01FC24EADC
:102C70000C0C8A404CEA0202C2505DF8044B7047CB
:102C8000134B984211D0D0F8C030C1F3130C23EA93
:102C90000C0C02F018020F4BD3401940C1F3130182
:102CA0004CEA0101C0F8C0107047D0F8B030C1F351
:102CB000130C23EA0C0C02F01802064BD3400B4015
:102CC000C3F313034CEA0303C0F8B030704700BFEE
:102CD00000600258FFFF0F000C4B984209D0C1F36F
:102CE00013033BB9C1F3846101228A40C3691343D2
:102CF000C361704791FAA1F131B1B1FA81F101F0EC
:102D00001F0101228A40F1E72021F8E70060025804
:102D100070B582B00023019390F85C30012B00F075
:102D2000E48204460D46012380F85C3001688B681C
:102D300013F0040F09D0036E43F020030366012053
:102D4000002384F85C3002B070BD2B68002B0CDBD4
:102D5000A74A914209D0C3F3130272BBC3F3846341
:102D600001229A40CB691343CB612A6869682068C5
:102D7000FFF758FF2068836813F0040300D0012395
:102D8000826812F0080200D0012252EA030620D025
:102D90002068866816F0010640F0A382EA68296878
:102DA000FFF76EFFEA68934B9A4200F036812B687A
:102DB000002BC0F2E4810020C2E793FAA3F333B101
:102DC000B3FA83F303F01F0301229A40CAE72023DA
:102DD000F8E7AA682968FFF73DFF2068844B98420E
:102DE00011D0854B1B6803F07043B3F1805F3DD079
:102DF000C36813F0100F40D16B69C268C2F382023E
:102E00005200934005E06B69C268C2F3C1025200F0
:102E100093402969042938D1754B98427FD0036EBD
:102E200003F0F8432A68B3EB826F00F0E780226872
:102E3000536E03F0F8432968B3EB816F00F0E38031
:102E40002268936E03F0F8432968B3EB816F00F0BA
:102E5000DF802268D36E03F0F8432968B3EB816FFB
:102E600096D1D36E23F00043D36691E76B69C268B5
:102E7000C2F3820252009340CBE76B69C2689208AA
:102E800002F0040252009340C3E72A68FFF792FE63
:102E90002368574A93421CD0286995F82120012ABB
:102EA00037D03146603353F8202022F000420A43E5
:102EB00043F8202021682A692B7E012B2CD00B6936
:102EC00023F4F04302F01F0206FA02F213430B61EF
:102ED0005EE72869EA69603353F8201021F08071B9
:102EE0000A4343F820202368296995F82020012A05
:102EF0000CD03F4A93427FF44BAF603353F821200C
:102F000022F00072324343F8212041E74FF000766F
:102F1000EFE74FF00041C5E74FF40066CFE7036EDF
:102F2000026EC2F384622B68C3F3130181BBC3F347
:102F300084639A4234D02068436E426EC2F3846246
:102F40002B68C3F3130181BBC3F384639A4234D06B
:102F50002068836E826EC2F384622B68C3F3130110
:102F600081BBC3F384639A4234D02068C36EC26EBF
:102F7000C2F384622B68C3F3130181BBC3F3846380
:102F80009A427FF405AF00220321FFF733FEFFE6EC
:102F900093FAA3F313B1B3FA83F3CAE72023C8E784
:102FA00000221146FFF726FEC5E793FAA3F313B1FB
:102FB000B3FA83F3CAE72023C8E700220121FFF711
:102FC00019FEC5E793FAA3F313B1B3FA83F3CAE783
:102FD0002023C8E700220221FFF70CFEC5E793FA81
:102FE000A3F313B1B3FA83F3CAE72023C8E700BF02
:102FF000006002580000FF470010005C036E23F0E1
:103000000043036613E7536E23F00043536617E74C
:10301000936E23F0004393661BE72068904B984221
:1030200009D0904B98422FD08F4B984252D03146C6
:10303000FFF752FEBBE62B688C4A93426DD08C4A58
:1030400093426CD08B4A93426BD08B4A93426AD0A6
:1030500002F186621032934267D0884A934266D06A
:1030600002F1042202F54012934262D002F186621C
:1030700002F5006293425ED0814A93425DD0814A5C
:103080009342D4D1804ED2E72B68784A934256D0EF
:10309000774A934255D0774A934254D0764A934226
:1030A00053D002F186621032934250D0734A934259
:1030B0004FD002F1042202F5401293424BD002F1AC
:1030C000866202F50062934247D06E4A9342AED1C7
:1030D0006D4EACE72B68654A934240D0644A9342F8
:1030E0003FD0644A93423ED0634A93423DD002F1BE
:1030F0008662103293423AD0604A934239D002F14C
:10310000042202F54012934235D0604A934234D0F3
:103110005F4A93428BD15F4E89E7012687E75E4E77
:1031200085E75E4E83E75E4E81E75E4E7FE75E4E4B
:103130007DE75E4E7BE7554E79E75D4E77E70126EA
:1031400075E7554E73E7554E71E7554E6FE7554E8F
:103150006DE7554E6BE7554E69E74C4E67E7012624
:1031600065E74D4E63E74D4E61E74D4E5FE74D4ECF
:103170005DE74D4E5BE74D4E59E7454E57E72268F8
:1031800037493848824218BF8A420CBF01210021CA
:1031900018D1484EB56805F0E07CA9B1304988687F
:1031A00010F0010000D001202E49896811F00101C2
:1031B00000D0012101430CD0236E43F0200323668D
:1031C0000120BDE53C4EE5E72749896811F0010F74
:1031D000F2D13A498B4207D039498B4226D039493E
:1031E0008B4234D00020ABE515F4000FF4D11E4B18
:1031F0009A4201D00020A3E54CF40003B26822F00B
:10320000E0721343B360304B1B689B092F4AA2FB4B
:1032100003239B0901335B00019302E0019B013B07
:103220000193019B002BF9D1002089E515F0807FE7
:10323000D5D10D4B9A4201D0002081E54CF080732E
:10324000B26822F0E0721343B360002078E515F411
:10325000800F48D1044B9A423AD0002070E500BF5D
:1032600000200240002102400060025802003004A9
:10327000040060080800900C1000C0100004002A30
:10328000000021430000844B0000B84F002090361E
:103290000040C03A0080F03E400020198000501DE0
:1032A000000180210002B0250008302E001060329D
:1032B000000052470023024000630258000052C73A
:1032C000000021C3000084CB04000024632D3E05D0
:1032D0004CF48003B26822F0E0721343B360002024
:1032E0002EE500202CE500202AE502202BE500BF7A
:1032F00010B5044603684349434A934218BF8B42C2
:103300001FD1424B9B6813F4403F14BF012300239D
:103310000BB304F0E9FE6368B3F5003F05D0B3F5E5
:10332000403F16D0B3F5803F02D11B0CB0FBF3F049
:10333000374B984249D82268936823F440739360CE
:1033400010BD344B9B6813F4403F14BF012300238E
:10335000DEE78008ECE74FF40020002106F064F877
:103360006368B3F5101F2CD021D8B3F5E01F26D029
:1033700004D9B3F5001FDBD14009D9E7B3F5801FAD
:1033800010D009D8B3F5002F0CD0B3F5402F09D0D9
:10339000B3F5802F06D0CBE7B3F5A01F02D0B3F56D
:1033A000C01FC5D19B0C5B00B0FBF3F0C0E7B3F5C9
:1033B000201F08D0B3F5301FBAD1000AB8E70009C2
:1033C000B6E78009B4E7C009B2E7134B984207D8C3
:1033D0002268936823F4407343F480739360AFE7EB
:1033E0000E4B984207D82268936823F4407343F445
:1033F00000739360A4E72268936843F4407393607A
:103400009EE700BF0020024000210240002302404E
:1034100021BCBE000063025841787D0181F0FA02B0
:1034200030B583B000230193002800F043810446A7
:10343000036EEBB123689A6812F0005F03D09968BD
:103440009D4A0A409A6023689A6812F0805F1CD1F6
:1034500099689A4A0A4042F080529A60984B1B68D9
:103460009B09984AA2FB03239B090133019309E0BE
:10347000FDF758FE0023636684F85C30DAE7019BB1
:10348000013B0193019B002BF9D123689A6812F04C
:10349000805F40F09F80226E42F010022266626ED2
:1034A00042F00102626601259A6812F0040200D01F
:1034B0000122216E11F0100F40F0F480002A40F03C
:1034C000F180216E21F4817141F002012166996839
:1034D00011F0010F1ED17C487C498B4218BF8342FA
:1034E0000CBF0123002377D1806810F0010000D0C9
:1034F00001207649896811F0010100D001210143C2
:1035000008D1002B6ED072486368816821F47C1169
:103510000B43836021686F4B994265D0627EE36BF9
:1035200043EA4233A268134394F8202043EA02435B
:1035300094F82020012A6FD0A26A22B102F4787296
:10354000E06A02431343634A91426AD0C868624A00
:1035500002401A43CA6021688A6812F0040200D04F
:1035600001228B6813F0080300D00123134322D1FA
:10357000584B994262D0237E226B42EA8332C8685C
:10358000564B03401343CB6094F84430012B5CD07E
:103590002268136923F0010313612268136923F081
:1035A0007043216C0B43136122684A4B9A4202D04C
:1035B0002046FFF79DFE2369012B6AD02268136B1A
:1035C00023F00F031363236E23F0030343F001037F
:1035D00023666CE0002567E73E49896811F0010F1A
:1035E00098D18EE73E488FE7607EE36B43EA403335
:1035F000E0680343A068182804D01C2808D00C28D1
:1036000008D10820034394F8202043EA02438FE7BF
:103610001020F7E71046F5E7626A013A43EA4243B1
:103620008AE7C8682F4A02401A43CA6022681369B1
:1036300023F04063616B0B4313618CE7237E94F8A6
:103640003820520042EA833299E72168214B99429F
:1036500010D00A69244B1340A26C501EE26C42EA5F
:103660000042206D0243606D0243134343F00103A7
:103670000B6192E70A691D4B1340A26CE06C024398
:10368000206D0243606D0243134343F001030B615D
:1036900083E721680B6B23F00F03E269013A1343C0
:1036A0000B6390E7236E43F0100323660125284641
:1036B00003B030BD0125FAE7C0FFFF5FC0FFFF6F19
:1036C00004000024632D3E0500200240002102403A
:1036D000002302400060025803C0F0FFFCBFFFFF60
:1036E000006302580740F0FF1EF800FC1FF800FCC2
:1036F00090F85C20012A00F0968030B49CB003461C
:10370000012280F85C200022189219920068474A32
:10371000904236D000220092009A002A35D092685A
:1037200012F0040200D00122846814F0040F6BD15F
:10373000002A69D13D4C3E4A904218BFA0422DD18B
:1037400002F500720868002839D0906820F44040E3
:103750004C68204390601868344D354CA04218BF27
:10376000A8421DD1AC6814F0010400D001243048F7
:10377000806810F0010000D00120204315D0002007
:1037800047E002F580720092C6E71A6E42F020020E
:103790001A66002283F85C2001203DE0254AD1E72B
:1037A0002548806810F0010F39D1946823482040E3
:1037B0000C688968214308439060002029E09168E3
:1037C00021F4404191601968184C1948814218BF92
:1037D000A1420ED1A06810F0010000D001201449D0
:1037E000896811F0010100D00121014306D00020B9
:1037F0000FE01149896811F0010F12D190680F494B
:1038000001409160002004E01A6E42F020021A6626
:103810000120002283F85C201CB030BC70470020DF
:10382000F7E70020F5E70220704700BF00200240C4
:10383000002102400063025800600258E0F0FFFFE0
:10384000002807DB00F01F02400901239340024AD1
:1038500042F82030704700BF00E100E000280CDB98
:1038600000F01F024009012393402030034A42F830
:103870002030BFF34F8FBFF36F8F704700E100E040
:10388000002804DB0901C9B2044B1954704700F049
:103890000F000901C9B2024B1954704700E400E05F
:1038A00014ED00E000B500F00700C0F1070CBCF11A
:1038B000040F28BF4FF0040C031D062B0FD9C31EA5
:1038C0004FF0FF3E0EFA0CF021EA000199400EFA8B
:1038D00003FE22EA0E0241EA02005DF804FB002327
:1038E000EEE700000649CB6823F4E0631B041B0CE1
:1038F000000200F4E0600343024A1A43CA607047C2
:1039000000ED00E00000FA0510B50446054BD8684C
:10391000C0F30220FFF7C6FF01462046FFF7B0FFC5
:1039200010BD00BF00ED00E008B5FFF789FF08BD3E
:1039300008B5FFF793FF08BDF0B4876D0468664EC5
:10394000664DAC4218BFB44242D01835AC423FD0AD
:103950001835AC423CD01835AC4239D01835AC42A1
:1039600036D01835AC4233D01835AC4230D005F5DE
:103970005675AC422CD01835AC4229D01835AC4223
:1039800026D01835AC4223D01835AC4220D018359B
:10399000AC421DD01835AC421AD01835AC4217D005
:1039A0004F4DAC4214D01435AC4211D01435AC425A
:1039B0000ED01435AC420BD01435AC4208D01435BF
:1039C000AC4205D01435AC4202D01435AC4207D11C
:1039D000446E856E6560C46E14B1046F456F65609A
:1039E00004683D4E3D4DAC4218BFB44252D018352C
:1039F000AC424FD01835AC424CD01835AC4249D00F
:103A00001835AC4246D01835AC4243D01835AC42DC
:103A100040D005F55675AC423CD01835AC4239D093
:103A20001835AC4236D01835AC4233D01835AC42DC
:103A300030D01835AC422DD01835AC422AD01835CC
:103A4000AC4227D0264E274DAC4218BFB44211D00D
:103A5000254DAC420ED01435AC420BD01435AC42DF
:103A600008D01435AC4205D01435AC4202D0143520
:103A7000AC4224D1C46D04F01F050124AC407C602D
:103A8000046863608368402B20D0036899600368F2
:103A9000DA6014E0C46D04F01F0C3F2404FA0CF447
:103AA000BC6005682C6824F480242C600468636082
:103AB0008368402B05D0036899600368DA60F0BC26
:103AC000704703689A600368D960F8E703689A60F2
:103AD0000368D960F3E700BF1000024028000240ED
:103AE000085402581C54025830540258036827499D
:103AF000274A934218BF8B422FD0183293422CD0C2
:103B00001832934229D01832934226D01832934269
:103B100023D01832934220D0183293421DD002F5A0
:103B20005672934219D01832934216D018329342EB
:103B300013D01832934210D0183293420DD018325D
:103B400093420AD01832934207D01832934204D0DD
:103B500023F0FF038365806D704710B4D9B210392C
:103B60000C4AA2FB0142C2F302120B4CA25CC265DA
:103B70005F2907D96FF3090304338365806D5DF80E
:103B8000044B70476FF309038365F7E710000240A9
:103B900028000240ABAAAAAAF489010883699BB94C
:103BA000836A012B0AD0022B02D00BB10020704790
:103BB000C36A13F0807F2AD100207047C36AB3F133
:103BC000C07F26D000207047B3F5005F0AD0836A1B
:103BD000022B26D9032B26D1C36A13F0807F24D170
:103BE00000207047836A032B03D8DFE803F0140436
:103BF000140A00207047C36A13F0807F0DD10020A3
:103C00007047C36AB3F1C07F09D00020704701201C
:103C10007047012070470120704701207047012044
:103C20007047012070470020704701207047000056
:103C300003682149214A934218BF8B4227D014328E
:103C4000934224D01432934221D0143293421ED096
:103C5000143293421BD01432934218D01432934240
:103C600015D0DAB2103A1649A1FB02121209154911
:103C70001944A8291ED9144B13449B000366134B07
:103C8000436602F01F020123934083667047DBB254
:103C9000083B0F4AA2FB03230E4A02EB13129200C9
:103CA00002660D4A4266C3F30413012202FA03F3CB
:103CB000836670470832DEE7085402581C540258E5
:103CC000ABAAAAAAF0FBFDBF008200108008024048
:103CD000CDCCCCCC009600168058025801794A1EF3
:103CE000072A2BD830B40368154D164CA34218BFD1
:103CF000AB4218D01434A34215D01434A34212D0CE
:103D00001434A3420FD01434A3420CD01434A34271
:103D100009D01434A34206D00B4B0B449B00C3665E
:103D20000A4B036705E00A4B0B449B00C366094B33
:103D3000036701239340436730BC7047704700BF5F
:103D4000085402581C5402583F8200104009024097
:103D50003F9600164059025870B50446FEF710FF12
:103D6000002C00F0B781054623685349534A93421B
:103D700018BF8B420CBF0121002150D01832934252
:103D80004DD0183293424AD01832934247D018325D
:103D9000934244D01832934241D0183293423ED0DD
:103DA00002F5567293423AD01832934237D0183205
:103DB000934234D01832934231D0183293422ED0ED
:103DC000183293422BD01832934228D018329342A3
:103DD00025D03B493B4A934218BF8B4200F03281C9
:103DE000394A934200F02E811432934200F02A8126
:103DF0001432934200F026811432934200F0228163
:103E00001432934200F01E811432934200F01A8162
:103E100040236365032384F8353001204AE0022201
:103E200084F83520002284F8342079BB274A934255
:103E30002CD01832934229D01832934226D018320F
:103E4000934223D01832934220D0183293421DD08F
:103E500002F55672934219D01832934216D0183296
:103E6000934213D01832934210D0183293420DD09F
:103E7000183293420AD01832934207D01832934234
:103E800004D01A6822F001021A6003E01A6822F0D6
:103E900001021A6023681A6812F0010F18D0FEF7A9
:103EA0006FFE431B052BF5D920236365032384F89C
:103EB0003530012070BD00BF1000024028000240D4
:103EC000085402581C540258305402584000024012
:103ED0001A6881491140A268E068024320690243E0
:103EE00060690243A0690243E0690243206A024319
:103EF0000A43616A042900F090806168522900F247
:103F000096803F29C0F08E803F39744820FA01F135
:103F100011F0010F01D042F480121A602668756911
:103F200025F00705636A1D43042B08D1A36A1D43CE
:103F3000E36A23B12046FFF731FE00287CD175618A
:103F40002046FFF7D3FDE36D03F01F023F239340AC
:103F5000836023686249634A934218BF8B4242D010
:103F6000183293423FD0183293423CD018329342D9
:103F700039D01832934236D01832934233D01832A7
:103F8000934230D002F5567293422CD018329342AD
:103F900029D01832934226D01832934223D01832B7
:103FA000934220D0183293421DD0183293421AD037
:103FB0001832934217D04C4A934214D01432934291
:103FC00011D0143293420ED0143293420BD01432DB
:103FD000934208D01432934205D01432934202D057
:103FE0001432934213D12046FFF722FEA368802BA0
:103FF00063D0236E22791A60636EA26E5A60636882
:10400000013B072B5CD90023E3662367636700202D
:104010006065012384F835304CE7E16A206B014389
:104020000A436AE7293905293FF677AF73E7743900
:1040300003293FF672AF6EE740236365012084F8E1
:10404000350037E7022284F83520002284F8342036
:1040500019686FF31011A268402A2CD0802A27D04B
:104060000022E06842EAD002206942EAD002606998
:1040700042EAD002A06942EAD002E06942EAD002F4
:10408000206A42EA10120A431A602268174B13444E
:10409000174AA2FB03231B099B00E3652046FFF799
:1040A00025FDE26D02F01F0101228A40426050E7C7
:1040B0004FF48042D5E71022D3E70023636098E7EE
:1040C0002046FFF70BFEE36E00221A60236F626F3B
:1040D0005A609CE70120EDE63F8010FE0F030F00C1
:1040E000100002402800024008540258F8ABFDA717
:1040F000CDCCCCCC002800F03E8170B5044690F8C1
:104100003400012800F03981012084F8340094F84B
:104110003500C0B2012807D04FF400636365002367
:1041200084F83430012070BD022084F8350000206E
:1041300060652068924E934DA84218BFB0422FD0C0
:104140001835A8422CD01835A84229D01835A842D5
:1041500026D01835A84223D01835A84220D01835CB
:10416000A8421DD005F55675A84219D01835A842A9
:1041700016D01835A84213D01835A84210D01835DB
:10418000A8420DD01835A8420AD01835A84207D049
:104190001835A84204D0056825F00105056003E044
:1041A000056825F0010505602046FFF7C5FB23687B
:1041B0007349744A934218BF8B4238D018329342E5
:1041C00035D01832934232D0183293422FD0183261
:1041D00093422CD01832934229D01832934226D0E1
:1041E00002F55672934222D0183293421FD01832F1
:1041F00093421CD01832934219D01832934216D0F1
:104200001832934213D01832934210D0183293428E
:104210000DD01A6822F00E0242F00A021A60236CD6
:1042200093B12268136843F0040313600CE01A682A
:1042300022F01E0242F016021A60236C23B122689B
:10424000136843F00803136023684D494D4A9342B5
:1042500018BF8B4242D0183293423FD0183293425B
:104260003CD01832934239D01832934236D01832AB
:10427000934233D01832934230D002F556729342B3
:104280002CD01832934229D01832934226D01832BB
:10429000934223D01832934220D0183293421DD03B
:1042A000183293421AD01832934217D0364A9342AA
:1042B00014D01432934211D0143293420ED01432DF
:1042C00093420BD01432934208D01432934205D05B
:1042D0001432934202D0143293420ED1236E1A68E4
:1042E00012F4803F03D01A6842F480721A60E36EC1
:1042F0001BB11A6842F480721A6023682049214A6F
:10430000934218BF8B4230D0183293422DD01832CE
:1043100093422AD01832934227D01832934224D0A5
:104320001832934221D0183293421ED002F55672B1
:1043300093421AD01832934217D01832934214D0B5
:104340001832934211D0183293420ED01832934251
:104350000BD01832934208D01832934205D01A6815
:1043600042F001021A600020DDE61A6842F0010204
:104370001A600020D7E6012070470220D3E600BF74
:1043800010000240280002400854025870B504464C
:10439000FEF7F6FB002C00F09181054694F83530CD
:1043A000DBB2022B06D080236365002384F834300F
:1043B000012070BD23688C498C4A934218BF8B4200
:1043C00030D0183293422DD0183293422AD018326E
:1043D000934227D01832934224D01832934221D0EE
:1043E000183293421ED002F5567293421AD01832F8
:1043F000934217D01832934214D01832934211D0FE
:10440000183293420ED0183293420BD01832934296
:1044100008D01832934205D01A6822F00E021A60B2
:10442000266809E01A6822F01E021A6022685369A1
:1044300023F080035361266823686B496B4A9342DB
:1044400018BF8B4242D0183293423FD01832934269
:104450003CD01832934239D01832934236D01832B9
:10446000934233D01832934230D002F556729342C1
:104470002CD01832934229D01832934226D01832C9
:10448000934223D01832934220D0183293421DD049
:10449000183293421AD01832934217D0544A93429A
:1044A00014D01432934211D0143293420ED01432ED
:1044B00093420BD01432934208D01432934205D069
:1044C0001432934202D01432934204D1226E136804
:1044D00023F48073136023684349444A934218BF0E
:1044E0008B422FD0183293422CD01832934229D0CD
:1044F0001832934226D01832934223D01832934276
:1045000020D0183293421DD002F55672934219D032
:104510001832934216D01832934213D01832934275
:1045200010D0183293420DD0183293420AD018326C
:10453000934207D01832934204D01A6822F0010245
:104540001A6003E01A6822F001021A60336813F05F
:10455000010F0ED0FEF714FB431B052BF6D92023C9
:104560006365032384F83530002384F83430012058
:104570001FE723681C491D4A934218BF8B4239D05C
:104580001832934236D01832934233D018329342C5
:1045900030D0183293422DD0183293422AD018329C
:1045A000934227D002F55672934223D01832934299
:1045B00020D0183293421DD0183293421AD01832AC
:1045C000934217D01832934214D01832934211D02C
:1045D000183293420ED0A16DE36D03F01F02012348
:1045E00093404B600DE000BF1000024028000240E5
:1045F00008540258A16DE36D03F01F023F2393405E
:104600008B6023682E492F4A934218BF8B4242D0B9
:10461000183293423FD0183293423CD01832934222
:1046200039D01832934236D01832934233D01832F0
:10463000934230D002F5567293422CD018329342F6
:1046400029D01832934226D01832934223D0183200
:10465000934220D0183293421DD0183293421AD080
:104660001832934217D0184A934214D0143293420E
:1046700011D0143293420ED0143293420BD0143224
:10468000934208D01432934205D01432934202D0A0
:10469000143293420BD1636EA26E5A60E36E33B153
:1046A0001A6822F480721A60236F626F5A600123C5
:1046B00084F83530002084F834007AE6012078E66A
:1046C000100002402800024008540258002800F060
:1046D000288108B5024690F83530DBB2022B03D0B2
:1046E00080234365012008BD0368904890498B42B0
:1046F00018BF83420CBF0120002065D018318B42C7
:1047000062D018318B425FD018318B425CD01831A7
:104710008B4259D018318B4256D018318B4253D02E
:1047200001F556718B424FD018318B424CD0183165
:104730008B4249D018318B4246D018318B4243D03E
:1047400018318B4240D018318B423DD018318B420A
:104750003AD0196821F00E01196013687348744942
:104760008B4218BF83426AD072498B4267D018319E
:104770008B4264D018318B4261D018318B425ED0AD
:1047800018318B425BD018318B4258D001F55671ED
:104790008B4254D018318B4251D018318B424ED0BD
:1047A00018318B424BD018318B4248D018318B4294
:1047B00045D018318B4242D018318B423FD0196816
:1047C00021F0010119603EE0042182F8351080BB20
:1047D000584A93422DD0183293422AD0183293422D
:1047E00027D01832934224D01832934221D0183265
:1047F00093421ED002F5567293421AD01832934259
:1048000017D01832934214D01832934211D0183274
:1048100093420ED0183293420BD01832934208D0F4
:104820001832934205D01A6822F001021A60002063
:1048300059E71A6822F001021A60002053E719684C
:1048400021F0010119601368384839498B4218BFBB
:10485000834242D018318B423FD018318B423CD03A
:1048600018318B4239D018318B4236D018318B42F7
:1048700033D018318B4230D001F556718B422CD099
:1048800018318B4229D018318B4226D018318B42F7
:1048900023D018318B4220D018318B421DD01831D3
:1048A0008B421AD018318B4217D023498B4214D037
:1048B00014318B4211D014318B420ED014318B4203
:1048C0000BD014318B4208D014318B4205D01431F7
:1048D0008B4202D014318B4217D1116E0B6823F436
:1048E00080730B60906DD36D03F01F0101238B402B
:1048F0004360536E916E5960D36E33B1196821F4E1
:1049000080711960136F516F5960012382F835303F
:10491000002382F83430136D2BB1104698470020E5
:10492000E1E6012070470020DDE600BF10000240F4
:10493000280002404000024008540258F0B583B0FD
:104940000446002301937D4B1D687D4BA3FB053579
:10495000AD0A876D3E68D7F800C0036879497A4888
:10496000834218BF8B420CBF0120002061D0774AE0
:1049700093425ED0183293425BD01832934258D0A3
:104980001832934255D01832934252D01832934283
:104990004FD002F5567293424BD01832934248D012
:1049A0001832934245D01832934242D01832934283
:1049B0003FD0183293423CD01832934239D018324B
:1049C000934236D06249634A934218BF8B4212D059
:1049D000614A93420FD0143293420CD01432934266
:1049E00009D01432934206D01432934203D01432C9
:1049F000934240F061821A68E16D01F01F010420CA
:104A0000884010EA0C0F00F0A78212F0040F00F0AB
:104A1000A382786012F4004F00F05A8212F4803FB3
:104A200040F05082A36C002B00F04682204698474D
:104A300042E2E26D02F01F0108228A40324241D078
:104A400070BB424A93422BD01832934228D018327E
:104A5000934225D01832934222D0183293421FD06D
:104A6000183293421CD002F55672934218D0183275
:104A7000934215D01832934212D0183293420FD07D
:104A8000183293420CD01832934209D01832934214
:104A900006D01832934203D01A68C2F3C00202E073
:104AA0001A68C2F380026AB11A6822F004021A601E
:104AB000E36D03F01F0208239340BB60636D43F076
:104AC00001036365E26D02F01F0226FA02F313F0A0
:104AD000010F47D023681B481B498B4218BF8342F4
:104AE0003CD018318B4239D018318B4236D0183136
:104AF0008B4233D018318B4230D018318B422DD0BD
:104B000018318B422AD001F556718B4226D01831CC
:104B10008B4223D018318B4220D018318B421DD0CC
:104B200018318B421AD018318B4217D018318B4272
:104B300014D018318B4211D01B6813E004000024FC
:104B4000B5814E1B10000240280002404000024088
:104B5000085402581C540258305402585B6913F030
:104B6000800F3BD1E36D03F01F03042202FA03F32D
:104B700033423FD02268964896498A4218BF824203
:104B800034D018318A4231D018318A422ED01831AF
:104B90008A422BD018318A4228D018318A4225D037
:104BA00018318A4222D001F556718A421ED018313E
:104BB0008A421BD018318A4218D018318A4215D047
:104BC00018318A4212D018318A420FD018318A42E5
:104BD0000CD018318A4209D013680BE001239340AE
:104BE000BB60636D43F002036365BBE7126812F0BC
:104BF000020F3DD1E36D03F01F03102202FA03F30D
:104C000033425FD02268724872498A4218BF82429A
:104C100034D018318A4231D018318A422ED018311E
:104C20008A422BD018318A4228D018318A4225D0A6
:104C300018318A4222D001F556718A421ED01831AD
:104C40008A421BD018318A4218D018318A4215D0B6
:104C500018318A4212D018318A420FD018318A4254
:104C60000CD018318A4209D01268C2F3800208E0E1
:104C7000BB60636D43F004036365BBE71268C2F376
:104C8000C002FAB1BB6023681A6812F4802F0DD0FD
:104C90001B6813F4002F04D1236C9BB12046984766
:104CA00010E0A36C73B1204698470BE01A6812F429
:104CB000807F03D11A6822F008021A60236C0BB1BE
:104CC00020469847E36D03F01F03202202FA03F306
:104CD000334200F0938022683D483E498A4218BF23
:104CE00082422ED018318A422BD018318A4228D0E5
:104CF00018318A4225D018318A4222D018318A428E
:104D00001FD018318A421CD001F556718A4218D042
:104D100018318A4215D018318A4212D018318A428D
:104D20000FD018318A420CD018318A4209D018317C
:104D30008A4206D018318A4203D01268C2F3400278
:104D400002E01268C2F30012002A57D0BB6094F848
:104D50003530DBB2042B0ED023681A6812F4802F92
:104D60003AD01B6813F4002F2DD1636C002B45D073
:104D70002046984742E02268136823F01603136028
:104D80002268536923F080035361236CBBB122680E
:104D9000136823F008031360E36D03F01F023F2341
:104DA0009340BB60012384F83530002384F834300D
:104DB000236D002B00F08080204698477CE0A36C98
:104DC000002BE4D1E8E7E36BC3B12046984715E038
:104DD00010000240280002401A6812F4807F09D1B6
:104DE0001A6822F010021A60012384F8353000237B
:104DF00084F83430E36B0BB120469847636D002B89
:104E00005AD0636D13F0010F52D0042384F835306B
:104E100023689649964A934218BF8B422FD0183286
:104E200093422CD01832934229D01832934226D084
:104E30001832934223D01832934220D01832934232
:104E40001DD002F55672934219D01832934216D0F3
:104E50001832934213D01832934210D01832934232
:104E60000DD0183293420AD01832934207D018322C
:104E7000934204D01A6822F001021A6003E01A6813
:104E800022F001021A60019B01330193AB4204D866
:104E900023681B6813F0010FF5D123681B6813F01A
:104EA000010F0BD0032384F83530002384F834300D
:104EB000E36C0BB12046984703B0F0BD012384F8A2
:104EC0003530F2E7236C002BF6D020469847F3E705
:104ED00012F0200F3AD123686449654A934218BF03
:104EE0008B422FD0183293422CD01832934229D0C3
:104EF0001832934226D01832934223D0183293426C
:104F000020D0183293421DD002F55672934219D028
:104F10001832934216D01832934213D0183293426B
:104F200010D0183293420DD0183293420AD0183262
:104F3000934207D01832934204D01A6822F0040238
:104F40001A6003E01A6822F008021A60236C002B32
:104F5000B2D020469847AFE70220884010EA0C0FF5
:104F600060D012F0020F5DD0786012F4004F0ED0C6
:104F700012F4803F05D1636C002B9DD020469847EA
:104F80009AE7E36B002B97D02046984794E712F0FE
:104F9000200F40D123683549354A934218BF8B42D0
:104FA0002FD0183293422CD01832934229D0183285
:104FB000934226D01832934223D01832934220D005
:104FC000183293421DD002F55672934219D018320E
:104FD000934216D01832934213D01832934210D015
:104FE000183293420DD0183293420AD018329342AD
:104FF00007D01832934204D01A6822F00A021A60CD
:1050000003E01A6822F014021A60012384F8353094
:10501000002384F83430E36B002B3FF44DAF20467F
:10502000984749E7082000FA01F111EA0C0F3FF414
:1050300043AF12F0080F3FF43FAF1A6822F00E02A0
:105040001A60E36D03F01F03012202FA03F37B6091
:10505000626584F83520002384F83430E36C002B3B
:105060003FF42AAF2046984726E700BF10000240D1
:105070002800024030B4416B0468D4F884306F4A91
:10508000134043EA8103C4F884300468D4F88430C0
:1050900023F47F03856B43EA0543C4F88430836BB4
:1050A0000B440468D4F88810114041EA8301C4F825
:1050B00088100468D4F8881021F4FE01C56B41EA19
:1050C0000541C4F88810C16B03EB41030468D4F8B0
:1050D000A010114041EA8301C4F8A0100468D4F87C
:1050E000A01021F4FE01056C41EA0541C4F8A010AE
:1050F000016C446C04FB01330468D4F8B010114017
:1051000041EA8301C4F8B0100468D4F8B01021F467
:10511000FE01856C41EA0541C4F8B010816CC46C95
:1051200004FB01330468D4F8AC10114041EA830158
:10513000C4F8AC10016D446D04FB01330468D4F86D
:10514000F010114041EA8301C4F8F0100468D4F86B
:10515000F01021F47C11856D41EA0541C4F8F0108E
:10516000816D03EB41030468D4F8C0100A4042EAA1
:105170008303C4F8C0300268D2F8C03023F47C1333
:10518000C16D43EA0143C2F8C0300268D2F8C030B2
:1051900023F07C53016E43EA0163C2F8C030436BD5
:1051A000274A1A449200C266836B02EB83030367AB
:1051B000C16B03EBC1034367016C446C04FB01F159
:1051C00003EB81038367816CC46C04FB01F103EB87
:1051D0008103C367016D446D04FB01F103EB81039F
:1051E000C0F88030816D03EBC103C0F88430816E5C
:1051F000C46D01FB04FC03EB8C03C0F88830046E23
:1052000004FB01F103EB8103C0F890300D498B42A0
:105210000DD9D0F89C3043F02003C0F89C30032314
:1052200080F89830012007E0002342F8043BD0F8D2
:1052300090309342F8D8002030BC70470300FFFF45
:10524000002B0010FCD3004070B54C68FCB90D6910
:105250008C6825430C6845EA84450E6ACC6944EAAB
:1052600006648E6934434E693443CE6844EA06448A
:10527000D0F88460806E00FB03F306EB830E46F8E3
:105280002350CEF804400EF1080E002019E00C69FE
:105290008D6825430C68254345F08045DDE702EB2A
:1052A000000C9CF803409CF802301B0443EA0463A2
:1052B0009CF8014043EA0423145C23434EF8043B6A
:1052C0000430CB68024CE35C8342E8D870BD00BF79
:1052D000FC89010830B595B004464C22A04901A8CC
:1052E000FBF7CEFC002C00F0388123689D4A9342E6
:1052F00020D094F898300BB32268936923F0100300
:105300009361FDF73DFC054623689A6912F0080F8A
:105310001AD0FDF735FC431B0A2BF5D9D4F89C3085
:1053200043F00103C4F89C30032384F89830012033
:1053300015B030BD03F580736360DAE784F8993007
:105340002046FCF721F8D7E79A6942F001029A61FA
:10535000FDF716FC054623689A6912F0010F0FD17C
:10536000FDF70EFC401B0A28F5D9D4F89C3043F019
:105370000103C4F89C30032384F898300120D7E758
:105380009A6942F002029A61237C012B40D0226884
:10539000936943F040039361637C012B3ED0226804
:1053A000936923F480439361A37C012B3CD0226852
:1053B000936943F4805393612268936923F44073A3
:1053C000A1680B4393612268936923F0A40393615E
:1053D0002268136923F010031361E368012B29D0BD
:1053E000002B2CD0022B00F09B802268936943F0A5
:1053F000800393612268136943F010031361E3682B
:10540000032B1CD12268936943F02003936116E0BB
:105410002268936923F040039361BDE72268936992
:1054200043F480439361BFE72268936923F4805378
:105430009361C1E72268936943F004039361A36910
:105440005A1EE369013B1B0243EA4263226A013AA6
:1054500013436269013A216843EA0243CB61A368BE
:10546000B3F5407F62D0236E33B12268D2F8C030EA
:10547000616E0B43C2F8C030E36D226ED3420DD093
:105480002168D1F8C83023F00703A26E14A800EBFE
:10549000820252F84C2C1343C1F8C830236C6BB114
:1054A0002168D1F8BC3023F00703626C14A800EB2C
:1054B000820252F84C2C1343C1F8BC30A36C73B178
:1054C0002168D1F8BC3023F07003E26C14A800EB23
:1054D000820252F84C2C43EA0213C1F8BC30236D0F
:1054E00073B12168D1F8BC3023F4E063626D14A875
:1054F00000EB820252F84C2C43EA0223C1F8BC3084
:105500002268184B9A4222D00023C4F89430C4F881
:105510009C30012384F898302046FFF7ABFD07E765
:105520002268936943F02003936188E7A36A013BF3
:10553000E26A013A43EA0223226B013A43EA021388
:10554000626A013A216843EA0243CB608BE76268F2
:10555000936823F003039360D6E70120E8E600BFD9
:10556000B086010800A0004090F89830013BDBB203
:10557000012B07D9D0F89C3043F00203C0F89C30CF
:10558000012070470B68DBB9CB68072B0ED08A6807
:10559000DB0643EA82730A6943EA02434A6913431A
:1055A000C26E496842F82130002070470A69CB6911
:1055B0001B0243EA02438A69134343F06053EFE757
:1055C00010B4CA680B6943EA4273072A0FD04A69CC
:1055D0008C6842EA8472006F496800EBC10C40F8A5
:1055E0003130CCF8042000205DF8044B70478A6904
:1055F000F1E790F898C05FFA8CFCBCF1010F07D07E
:10560000D0F89C3043F00403C0F89C300120704770
:10561000920042EA011242EA43030168009A1A43E7
:10562000C1F880200020704790F89830DBB2012B41
:1056300007D0D0F89C3043F00403C0F89C30012020
:10564000704751B90168D1F8F03023F07C5343EA38
:105650000263C1F8F03000207047012909D00168C9
:10566000D1F8B03023F0FE4343EA0263C1F8B03012
:10567000F1E70168D1F8A03023F0FE4343EA02636A
:10568000C1F8A030E7E790F89830DBB2012B07D0E3
:10569000D0F89C3043F00403C0F89C3001207047E0
:1056A000022380F898300268936923F00103936124
:1056B0000023C0F89C301846704790F89830DBB251
:1056C000022B3ED10268936943F0010393610023EA
:1056D0000268916911F0010F0ED1322B01D801330C
:1056E000F6E7D0F89C3043F00103C0F89C30032368
:1056F00080F8983001207047936923F0100393617C
:1057000000230268916911F0080F0ED0322B01D8E6
:105710000133F6E7D0F89C3043F00103C0F89C3029
:10572000032380F8983001207047936943F0020307
:1057300093610023C0F89430012280F89820184625
:105740007047D0F89C3043F00803C0F89C3001202B
:10575000704788B110B50446FFF7AFFF2268D36DDC
:1057600023F00303D3652046FBF734FF0020C4F881
:105770009C0084F8980010BD0120704738B504469D
:1057800090F89830DBB2022B2BD10368D3F8C0001D
:1057900010F07C5F0CD0D3F8C40010F4001F0FD0C1
:1057A000D4F89C3043F40073C4F89C3001201FE00F
:1057B000D4F89C3043F02003C4F89C30012017E05B
:1057C000D3F8C450C5F304452B462046FFF73CFDF3
:1057D00022680123AB40C2F8D030C4F894300020D6
:1057E00006E0D0F89C3043F00803C0F89C3001205C
:1057F00038BD000090F898C05FFA8CFCBCF1020F35
:1058000040F0DF8070B540290CD041293DD0046DB7
:105810008C426DD8D0F89C3043F02003C0F89C3007
:105820000120C1E00468D4F8A05015F4FE0F0CD09C
:10583000D4F8A45015F07F0F0FD1D0F89C3043F46A
:105840008073C0F89C300120AEE0D0F89C3043F06B
:105850002003C0F89C300120A6E0D4F8A46016F024
:10586000807604D0D4F8A050002D0CDB0026D4F8AC
:10587000A440C4F305242644456F446C06FB04F49D
:1058800005EB840E3BE00126F1E70468D4F8B05044
:1058900015F4FE0F0CD0D4F8B45015F07F0F0FD1D3
:1058A000D0F89C3043F48073C0F89C3001207BE03A
:1058B000D0F89C3043F02003C0F89C30012073E006
:1058C000D4F8B46016F0807604D0D4F8B050002D2F
:1058D0000CDB0026D4F8B440C4F305242644856FBD
:1058E000C46C06FB04F405EB840E08E00126F1E726
:1058F000C56F446D01FB04F405EB840E0026DEF851
:10590000004004F08044546064BBDEF80040C4F3FF
:105910008A441460DEF8004004F000549460DEF81D
:10592000004004F000441461BEF80440D461BEF8A5
:10593000064004F00F04D460DEF8044004F4801440
:105940005461DEF8044004F4001494619EF80740AA
:1059500004F07F041462DEF80440E40F54624FF058
:10596000000C0CE0DEF8004024F060441460D1E745
:105970000EEB0C04247A03F80C400CF1010CD468F3
:10598000144D2C5D6445F3D8402909D041290CD031
:105990001F290ED8026801238B40C2F8983002E01C
:1059A0000368C3F8A860002070BD0368C3F8B8603E
:1059B000F9E701F01F01026801238B40C2F89C3017
:1059C000F1E7D0F89C3043F00803C0F89C30012088
:1059D000704700BFFC890108402905D00368D3F84F
:1059E000B40000F07F0070470368D3F8A40000F013
:1059F0007F00704790F89830013BDBB2012B07D94C
:105A0000D0F89C3043F00203C0F89C30012070476E
:105A100010B403689C6D0C4224D1DC6D44F0010489
:105A2000DC6511F4007F05D00468D4F8E03013433E
:105A3000C4F8E03011F4806F05D00468D4F8E43085
:105A40001343C4F8E4300068436D0C4A0A40134322
:105A500043650B4A536943EA9173536100205DF833
:105A6000044B70479C6D31EA040402D00324DC65CA
:105A7000D7E7DC6D44F00204DC65D2E7FFFFCF3FDF
:105A800000A80040704770477047704770477047E4
:105A9000704770477047704770477047704770474E
:105AA000704700002DE9F04F83B00446904B1A690F
:105AB0005B69134001939B07009303681A6D02F41E
:105AC000704A5A6D0AEA020A1A6D02F00F095A6DFD
:105AD00009EA02091A6D02F0F0085A6D08EA020894
:105AE0001E6D06F071565A6D16401F6D07F06077F7
:105AF0005A6D17405D6DD3F850B015F4807F02D019
:105B00001BF4807F64D115F4806F02D01BF4806F8A
